{
  "abi": [
    {
      "inputs": [
        {
          "internalType": "uint256",
          "name": "id",
          "type": "uint256"
        }
      ],
      "name": "getLoan",
      "outputs": [
        {
          "components": [
            {
              "internalType": "contract IERC20",
              "name": "assetLent",
              "type": "address"
            },
            {
              "internalType": "uint256",
              "name": "lent",
              "type": "uint256"
            },
            {
              "internalType": "Ray",
              "name": "shareLent",
              "type": "uint256"
            },
            {
              "internalType": "uint256",
              "name": "startDate",
              "type": "uint256"
            },
            {
              "internalType": "uint256",
              "name": "endDate",
              "type": "uint256"
            },
            {
              "components": [
                {
                  "internalType": "uint256",
                  "name": "duration",
                  "type": "uint256"
                },
                {
                  "internalType": "Ray",
                  "name": "priceFactor",
                  "type": "uint256"
                }
              ],
              "internalType": "struct Auction",
              "name": "auction",
              "type": "tuple"
            },
            {
              "internalType": "Ray",
              "name": "interestPerSecond",
              "type": "uint256"
            },
            {
              "internalType": "address",
              "name": "borrower",
              "type": "address"
            },
            {
              "components": [
                {
                  "internalType": "contract IERC721",
                  "name": "implem",
                  "type": "address"
                },
                {
                  "internalType": "uint256",
                  "name": "id",
                  "type": "uint256"
                }
              ],
              "internalType": "struct NFToken",
              "name": "collateral",
              "type": "tuple"
            },
            {
              "components": [
                {
                  "internalType": "uint256",
                  "name": "paid",
                  "type": "uint256"
                },
                {
                  "internalType": "uint256",
                  "name": "minInterestsToRepay",
                  "type": "uint256"
                },
                {
                  "internalType": "bool",
                  "name": "liquidated",
                  "type": "bool"
                },
                {
                  "internalType": "bool",
                  "name": "borrowerClaimed",
                  "type": "bool"
                }
              ],
              "internalType": "struct Payment",
              "name": "payment",
              "type": "tuple"
            },
            {
              "internalType": "uint256",
              "name": "supplyPositionIndex",
              "type": "uint256"
            },
            {
              "internalType": "uint256",
              "name": "nbOfPositions",
              "type": "uint256"
            }
          ],
          "internalType": "struct Loan",
          "name": "",
          "type": "tuple"
        }
      ],
      "stateMutability": "view",
      "type": "function"
    },
    {
      "inputs": [
        {
          "internalType": "contract IERC20",
          "name": "currency",
          "type": "address"
        }
      ],
      "name": "getMinOfferCostAndBorrowableAmount",
      "outputs": [
        {
          "internalType": "uint256",
          "name": "minOfferCost",
          "type": "uint256"
        },
        {
          "internalType": "uint256",
          "name": "offerBorrowAmountLowerBound",
          "type": "uint256"
        }
      ],
      "stateMutability": "view",
      "type": "function"
    },
    {
      "inputs": [],
      "name": "getParameters",
      "outputs": [
        {
          "internalType": "Ray",
          "name": "auctionPriceFactor",
          "type": "uint256"
        },
        {
          "internalType": "uint256",
          "name": "auctionDuration",
          "type": "uint256"
        },
        {
          "internalType": "uint256",
          "name": "nbOfLoans",
          "type": "uint256"
        },
        {
          "internalType": "uint256",
          "name": "nbOfTranches",
          "type": "uint256"
        }
      ],
      "stateMutability": "view",
      "type": "function"
    },
    {
      "inputs": [
        {
          "internalType": "uint256",
          "name": "id",
          "type": "uint256"
        }
      ],
      "name": "getRateOfTranche",
      "outputs": [
        {
          "internalType": "Ray",
          "name": "rate",
          "type": "uint256"
        }
      ],
      "stateMutability": "view",
      "type": "function"
    }
  ],
  "bytecode": {
    "object": "0x608060405234801561001057600080fd5b50610574806100206000396000f3fe608060405234801561001057600080fd5b506004361061004c5760003560e01c806314aab74f14610051578063504006ca146100a35780638d116c7a146100c3578063a5ea11da1461014c575b600080fd5b61009061005f3660046103fa565b60009081527f84e508d57dadc535817af594804944c3bc341cdb6befa5a0747e20285912a7ef602052604090205490565b6040519081526020015b60405180910390f35b6100b66100b13660046103fa565b6101f4565b60405161009a9190610413565b6101376100d136600461050e565b6001600160a01b031660009081527f84e508d57dadc535817af594804944c3bc341cdb6befa5a0747e20285912a7f160209081526040808320547f84e508d57dadc535817af594804944c3bc341cdb6befa5a0747e20285912a7f2909252909120549091565b6040805192835260208301919091520161009a565b7f84e508d57dadc535817af594804944c3bc341cdb6befa5a0747e20285912a7ee547f84e508d57dadc535817af594804944c3bc341cdb6befa5a0747e20285912a7ed547f84e508d57dadc535817af594804944c3bc341cdb6befa5a0747e20285912a7eb547f84e508d57dadc535817af594804944c3bc341cdb6befa5a0747e20285912a7ec5460408051948552602085019390935291830152606082015260800161009a565b6101fc610328565b5060009081527f84e508d57dadc535817af594804944c3bc341cdb6befa5a0747e20285912a7f0602090815260409182902082516101808101845281546001600160a01b03908116825260018301548285015260028301548286015260038301546060808401919091526004840154608080850191909152865180880188526005860154815260068601548188015260a0850152600785015460c08501526008850154831660e08501528651808801885260098601549093168352600a850154838701526101008085019390935286519081018752600b8501548152600c85015495810195909552600d84015460ff80821615159787019790975291909104909416151593830193909352610120830191909152600e810154610140830152600f015461016082015290565b60405180610180016040528060006001600160a01b031681526020016000815260200160008152602001600081526020016000815260200161037d604051806040016040528060008152602001600081525090565b81526020016000815260200160006001600160a01b031681526020016103bf604051806040016040528060006001600160a01b03168152602001600081525090565b815260408051608081018252600080825260208281018290529282018190526060820152910190815260200160008152602001600081525090565b60006020828403121561040c57600080fd5b5035919050565b81516001600160a01b0316815261022081016020830151602083015260408301516040830152606083015160608301526080830151608083015260a083015161046960a084018280518252602090810151910152565b5060c083015160e083015260e0830151610100610490818501836001600160a01b03169052565b84015190506101206104b78482018380516001600160a01b03168252602090810151910152565b84015190506101606104f08482018380518252602081015160208301526040810151151560408301526060810151151560608301525050565b6101408501516101e085015280850151610200850152505092915050565b60006020828403121561052057600080fd5b81356001600160a01b038116811461053757600080fd5b939250505056fea26469706673582212201fcab2c011893d99902b5a94f51fcab19ed8978a8030e050d3f1efde8fbd14e564736f6c63430008120033",
    "linkReferences": {}
  },
  "methodIdentifiers": {
    "getLoan(uint256)": "504006ca",
    "getMinOfferCostAndBorrowableAmount(address)": "8d116c7a",
    "getParameters()": "a5ea11da",
    "getRateOfTranche(uint256)": "14aab74f"
  },
  "id": 58
}