{
  "abi": [
    {
      "inputs": [
        {
          "internalType": "uint256",
          "name": "loanId",
          "type": "uint256"
        }
      ],
      "name": "BorrowerAlreadyClaimed",
      "type": "error"
    },
    {
      "inputs": [
        {
          "internalType": "contract IERC20",
          "name": "token",
          "type": "address"
        },
        {
          "internalType": "address",
          "name": "from",
          "type": "address"
        },
        {
          "internalType": "address",
          "name": "to",
          "type": "address"
        }
      ],
      "name": "ERC20TransferFailed",
      "type": "error"
    },
    {
      "inputs": [],
      "name": "ERC721CallerIsNotOwnerNorApproved",
      "type": "error"
    },
    {
      "inputs": [],
      "name": "ERC721InvalidTokenId",
      "type": "error"
    },
    {
      "inputs": [
        {
          "internalType": "uint256",
          "name": "loanId",
          "type": "uint256"
        }
      ],
      "name": "LoanNotRepaidOrLiquidatedYet",
      "type": "error"
    },
    {
      "inputs": [
        {
          "internalType": "uint256",
          "name": "loanId",
          "type": "uint256"
        }
      ],
      "name": "NotBorrowerOfTheLoan",
      "type": "error"
    },
    {
      "anonymous": false,
      "inputs": [
        {
          "indexed": true,
          "internalType": "address",
          "name": "claimant",
          "type": "address"
        },
        {
          "indexed": true,
          "internalType": "uint256",
          "name": "claimed",
          "type": "uint256"
        },
        {
          "indexed": true,
          "internalType": "uint256",
          "name": "loanId",
          "type": "uint256"
        }
      ],
      "name": "Claim",
      "type": "event"
    },
    {
      "inputs": [
        {
          "internalType": "uint256[]",
          "name": "positionIds",
          "type": "uint256[]"
        }
      ],
      "name": "claim",
      "outputs": [
        {
          "internalType": "uint256",
          "name": "sent",
          "type": "uint256"
        }
      ],
      "stateMutability": "nonpayable",
      "type": "function"
    },
    {
      "inputs": [
        {
          "internalType": "uint256[]",
          "name": "loanIds",
          "type": "uint256[]"
        }
      ],
      "name": "claimAsBorrower",
      "outputs": [
        {
          "internalType": "uint256",
          "name": "sent",
          "type": "uint256"
        }
      ],
      "stateMutability": "nonpayable",
      "type": "function"
    }
  ],
  "bytecode": {
    "object": "0x608060405234801561001057600080fd5b50610977806100206000396000f3fe608060405234801561001057600080fd5b50600436106100365760003560e01c80633d6fd5be1461003b5780636ba4c13814610060575b600080fd5b61004e6100493660046107e6565b610073565b60405190815260200160405180910390f35b61004e61006e3660046107e6565b61021c565b60007f84e508d57dadc535817af594804944c3bc341cdb6befa5a0747e20285912a7eb818080805b86811015610211578787828181106100b5576100b561085b565b6020908102929092013560008181526005890190935260409092206008810154909650919350506001600160a01b0316331461010c5760405163c250ea5d60e01b8152600481018390526024015b60405180910390fd5b600d840154610100900460ff161561013a5760405163059803b760e21b815260048101839052602401610103565b600d84015460ff161561018a57600d8401805461ff001916610100179055600284015461018390610178906b033b2e3c9fd0803ce8000000906103c3565b600b860154906103d8565b92506101a6565b6040516311653e5f60e21b815260048101839052602401610103565b82156101ff5783546101c2906001600160a01b031633856103fb565b6101cc8387610887565b6040519096508290849033907f34fcbac0073d7c3d388e51312faf357774904998eeb8fca628b9e6f65ee1cbf790600090a45b806102098161089a565b91505061009b565b505050505092915050565b60007f84e508d57dadc535817af594804944c3bc341cdb6befa5a0747e20285912a7eb60008051602061092283398151915282808080805b888110156103b65761027e338b8b848181106102725761027261085b565b905060200201356104a9565b61029b57604051636eb172ad60e11b815260040160405180910390fd5b6102bc8a8a838181106102b0576102b061085b565b90506020020135610547565b8560070160008b8b848181106102d4576102d461085b565b905060200201358152602001908152602001600020935083600201549250866005016000848152602001908152602001600020945084600b0160020160009054906101000a900460ff16156103345761032d85856105c6565b9150610369565b600b85015460000361035c576040516311653e5f60e21b815260048101849052602401610103565b61036685856105f6565b91505b6040518390839033907f34fcbac0073d7c3d388e51312faf357774904998eeb8fca628b9e6f65ee1cbf790600090a46103a28289610887565b9750806103ae8161089a565b915050610254565b5050505050505092915050565b60006103cf82846108b3565b90505b92915050565b60006b033b2e3c9fd0803ce80000006103f183856108c6565b6103cf91906108dd565b60405163a9059cbb60e01b81526001600160a01b0383811660048301526024820183905284169063a9059cbb906044016020604051808303816000875af115801561044a573d6000803e3d6000fd5b505050506040513d601f19601f8201168201806040525081019061046e91906108ff565b6104a4576040516362fe41f360e01b81526001600160a01b03808516600483015230602483015283166044820152606401610103565b505050565b6000806104b583610687565b9050806001600160a01b0316846001600160a01b0316148061051b57506001600160a01b0380821660009081527f9dcac861a288165fa5a7e007597a30abcd2d73e174280cf7c6967f5a922a443f602090815260408083209388168352929052205460ff165b8061053f5750836001600160a01b0316610534846106f3565b6001600160a01b0316145b949350505050565b600080516020610922833981519152600061056183610687565b905061056e600084610782565b6001600160a01b038116600090815260048301602052604081208054600192906105999084906108b3565b90915550506000838152600383016020526040812080546001600160a01b03191690556104a49082908583565b6001810154600b8301546000916105dd91906103d8565b83549091506103d2906001600160a01b031633836103fb565b600080836001015484600b016000015461061091906108b3565b600c850154909150810361064057600f84015461062d90826108dd565b83546106399190610887565b915061066a565b6001840154835461065190836108c6565b61065b91906108dd565b83546106679190610887565b91505b8354610680906001600160a01b031633846103fb565b5092915050565b60008181527f9dcac861a288165fa5a7e007597a30abcd2d73e174280cf7c6967f5a922a443c6020526040812054600080516020610922833981519152906001600160a01b0316806106ec5760405163089ba7e160e41b815260040160405180910390fd5b9392505050565b60008181527f9dcac861a288165fa5a7e007597a30abcd2d73e174280cf7c6967f5a922a443c60205260408120546001600160a01b03166107475760405163089ba7e160e41b815260040160405180910390fd5b5060009081527f9dcac861a288165fa5a7e007597a30abcd2d73e174280cf7c6967f5a922a443e60205260409020546001600160a01b031690565b60008181527f9dcac861a288165fa5a7e007597a30abcd2d73e174280cf7c6967f5a922a443e6020526040902080546001600160a01b0319166001600160a01b0384161790556000805160206109228339815191526104a46107e383610687565b50565b600080602083850312156107f957600080fd5b823567ffffffffffffffff8082111561081157600080fd5b818501915085601f83011261082557600080fd5b81358181111561083457600080fd5b8660208260051b850101111561084957600080fd5b60209290920196919550909350505050565b634e487b7160e01b600052603260045260246000fd5b634e487b7160e01b600052601160045260246000fd5b808201808211156103d2576103d2610871565b6000600182016108ac576108ac610871565b5060010190565b818103818111156103d2576103d2610871565b80820281158282048414176103d2576103d2610871565b6000826108fa57634e487b7160e01b600052601260045260246000fd5b500490565b60006020828403121561091157600080fd5b815180151581146106ec57600080fdfe9dcac861a288165fa5a7e007597a30abcd2d73e174280cf7c6967f5a922a4439a26469706673582212200573f56db4a5c117c959d39e0231c6425d1a8040e21b3b775693719826e44c4c64736f6c63430008120033",
    "linkReferences": {}
  },
  "methodIdentifiers": {
    "claim(uint256[])": "6ba4c138",
    "claimAsBorrower(uint256[])": "3d6fd5be"
  },
  "id": 50
}