{
  "abi": [
    {
      "inputs": [
        {
          "internalType": "contract IERC20",
          "name": "token",
          "type": "address"
        },
        {
          "internalType": "address",
          "name": "from",
          "type": "address"
        },
        {
          "internalType": "address",
          "name": "to",
          "type": "address"
        }
      ],
      "name": "ERC20TransferFailed",
      "type": "error"
    },
    {
      "inputs": [
        {
          "internalType": "uint256",
          "name": "loanId",
          "type": "uint256"
        }
      ],
      "name": "LoanAlreadyRepaid",
      "type": "error"
    },
    {
      "anonymous": false,
      "inputs": [
        {
          "indexed": true,
          "internalType": "uint256",
          "name": "loanId",
          "type": "uint256"
        }
      ],
      "name": "Repay",
      "type": "event"
    },
    {
      "inputs": [
        {
          "internalType": "uint256[]",
          "name": "loanIds",
          "type": "uint256[]"
        }
      ],
      "name": "repay",
      "outputs": [],
      "stateMutability": "nonpayable",
      "type": "function"
    }
  ],
  "bytecode": {
    "object": "0x608060405234801561001057600080fd5b50610549806100206000396000f3fe608060405234801561001057600080fd5b506004361061002b5760003560e01c80630c72ad2014610030575b600080fd5b61004361003e366004610388565b610045565b005b7f84e508d57dadc535817af594804944c3bc341cdb6befa5a0747e20285912a7eb6000808080805b86518110156102625785600501600088838151811061008e5761008e610446565b602002602001015181526020019081526020016000209450600085600b016000015411806100c55750600d850154610100900460ff165b806100d45750600d85015460ff165b15610118578681815181106100eb576100eb610446565b602002602001015160405163dae2c27360e01b815260040161010f91815260200190565b60405180910390fd5b8460010154935061015461014a6101438760030154426101389190610472565b60078901549061026b565b8690610280565b600c8701546102a3565b92506101608385610485565b600b8601819055600d8601805461ff0019166101001790558554909250610192906001600160a01b03163330856102b9565b60098501546008860154600a870154604051632142170760e11b81523060048201526001600160a01b03928316602482015260448101919091529116906342842e0e90606401600060405180830381600087803b1580156101f257600080fd5b505af1158015610206573d6000803e3d6000fd5b5050505086818151811061021c5761021c610446565b60200260200101517fa6ffc78a660e4971a47a0f916a0abae483804e6f42c9292ed06aa64f8fe4623060405160405180910390a28061025a81610498565b91505061006d565b50505050505050565b600061027782846104b1565b90505b92915050565b60006b033b2e3c9fd0803ce800000061029983856104b1565b61027791906104c8565b60008183116102b25781610277565b5090919050565b6040516323b872dd60e01b81526001600160a01b0384811660048301528381166024830152604482018390528516906323b872dd906064016020604051808303816000875af1158015610310573d6000803e3d6000fd5b505050506040513d601f19601f8201168201806040525081019061033491906104ea565b61036c576040516362fe41f360e01b81526001600160a01b03808616600483015280851660248301528316604482015260640161010f565b50505050565b634e487b7160e01b600052604160045260246000fd5b6000602080838503121561039b57600080fd5b823567ffffffffffffffff808211156103b357600080fd5b818501915085601f8301126103c757600080fd5b8135818111156103d9576103d9610372565b8060051b604051601f19603f830116810181811085821117156103fe576103fe610372565b60405291825284820192508381018501918883111561041c57600080fd5b938501935b8285101561043a57843584529385019392850192610421565b98975050505050505050565b634e487b7160e01b600052603260045260246000fd5b634e487b7160e01b600052601160045260246000fd5b8181038181111561027a5761027a61045c565b8082018082111561027a5761027a61045c565b6000600182016104aa576104aa61045c565b5060010190565b808202811582820484141761027a5761027a61045c565b6000826104e557634e487b7160e01b600052601260045260246000fd5b500490565b6000602082840312156104fc57600080fd5b8151801515811461050c57600080fd5b939250505056fea2646970667358221220825077c65197ea89223642bb0dd38c13d02ba9d3eb13fc24b6c0081a226dee7464736f6c63430008120033",
    "linkReferences": {}
  },
  "methodIdentifiers": {
    "repay(uint256[])": "0c72ad20"
  },
  "id": 59
}