{
  "abi": [
    {
      "inputs": [
        {
          "components": [
            {
              "internalType": "contract IERC20",
              "name": "assetToLend",
              "type": "address"
            },
            {
              "internalType": "uint256",
              "name": "loanToValue",
              "type": "uint256"
            },
            {
              "internalType": "uint256",
              "name": "duration",
              "type": "uint256"
            },
            {
              "internalType": "uint256",
              "name": "expirationDate",
              "type": "uint256"
            },
            {
              "internalType": "uint256",
              "name": "tranche",
              "type": "uint256"
            },
            {
              "components": [
                {
                  "internalType": "contract IERC721",
                  "name": "implem",
                  "type": "address"
                },
                {
                  "internalType": "uint256",
                  "name": "id",
                  "type": "uint256"
                }
              ],
              "internalType": "struct NFToken",
              "name": "collateral",
              "type": "tuple"
            }
          ],
          "internalType": "struct Offer",
          "name": "offer",
          "type": "tuple"
        },
        {
          "components": [
            {
              "internalType": "contract IERC721",
              "name": "implem",
              "type": "address"
            },
            {
              "internalType": "uint256",
              "name": "id",
              "type": "uint256"
            }
          ],
          "internalType": "struct NFToken",
          "name": "providedNft",
          "type": "tuple"
        }
      ],
      "name": "BadCollateral",
      "type": "error"
    },
    {
      "inputs": [
        {
          "internalType": "uint256",
          "name": "loanId",
          "type": "uint256"
        }
      ],
      "name": "BorrowerAlreadyClaimed",
      "type": "error"
    },
    {
      "inputs": [
        {
          "internalType": "address",
          "name": "admin",
          "type": "address"
        }
      ],
      "name": "CallerIsNotOwner",
      "type": "error"
    },
    {
      "inputs": [
        {
          "internalType": "uint256",
          "name": "endDate",
          "type": "uint256"
        },
        {
          "internalType": "uint256",
          "name": "loanId",
          "type": "uint256"
        }
      ],
      "name": "CollateralIsNotLiquidableYet",
      "type": "error"
    },
    {
      "inputs": [
        {
          "internalType": "contract IERC20",
          "name": "token",
          "type": "address"
        },
        {
          "internalType": "address",
          "name": "from",
          "type": "address"
        },
        {
          "internalType": "address",
          "name": "to",
          "type": "address"
        }
      ],
      "name": "ERC20TransferFailed",
      "type": "error"
    },
    {
      "inputs": [],
      "name": "ERC721AddressZeroIsNotAValidOwner",
      "type": "error"
    },
    {
      "inputs": [],
      "name": "ERC721ApprovalToCurrentOwner",
      "type": "error"
    },
    {
      "inputs": [],
      "name": "ERC721ApproveToCaller",
      "type": "error"
    },
    {
      "inputs": [],
      "name": "ERC721CallerIsNotOwnerNorApproved",
      "type": "error"
    },
    {
      "inputs": [],
      "name": "ERC721CallerIsNotOwnerNorApprovedForAll",
      "type": "error"
    },
    {
      "inputs": [],
      "name": "ERC721InvalidTokenId",
      "type": "error"
    },
    {
      "inputs": [],
      "name": "ERC721MintToTheZeroAddress",
      "type": "error"
    },
    {
      "inputs": [],
      "name": "ERC721TokenAlreadyMinted",
      "type": "error"
    },
    {
      "inputs": [],
      "name": "ERC721TransferFromIncorrectOwner",
      "type": "error"
    },
    {
      "inputs": [],
      "name": "ERC721TransferToNonERC721ReceiverImplementer",
      "type": "error"
    },
    {
      "inputs": [],
      "name": "ERC721TransferToTheZeroAddress",
      "type": "error"
    },
    {
      "inputs": [
        {
          "internalType": "contract IERC20",
          "name": "firstRequested",
          "type": "address"
        },
        {
          "internalType": "contract IERC20",
          "name": "requested",
          "type": "address"
        }
      ],
      "name": "InconsistentAssetRequests",
      "type": "error"
    },
    {
      "inputs": [
        {
          "internalType": "uint256",
          "name": "firstTrancheIdUsed",
          "type": "uint256"
        },
        {
          "internalType": "uint256",
          "name": "trancheIdFound",
          "type": "uint256"
        }
      ],
      "name": "InconsistentTranches",
      "type": "error"
    },
    {
      "inputs": [
        {
          "internalType": "uint256",
          "name": "nbOfTranches",
          "type": "uint256"
        }
      ],
      "name": "InvalidTranche",
      "type": "error"
    },
    {
      "inputs": [
        {
          "internalType": "uint256",
          "name": "loanId",
          "type": "uint256"
        }
      ],
      "name": "LoanAlreadyRepaid",
      "type": "error"
    },
    {
      "inputs": [
        {
          "internalType": "uint256",
          "name": "loanId",
          "type": "uint256"
        }
      ],
      "name": "LoanNotRepaidOrLiquidatedYet",
      "type": "error"
    },
    {
      "inputs": [
        {
          "internalType": "uint256",
          "name": "loanId",
          "type": "uint256"
        }
      ],
      "name": "NotBorrowerOfTheLoan",
      "type": "error"
    },
    {
      "inputs": [
        {
          "components": [
            {
              "internalType": "contract IERC20",
              "name": "assetToLend",
              "type": "address"
            },
            {
              "internalType": "uint256",
              "name": "loanToValue",
              "type": "uint256"
            },
            {
              "internalType": "uint256",
              "name": "duration",
              "type": "uint256"
            },
            {
              "internalType": "uint256",
              "name": "expirationDate",
              "type": "uint256"
            },
            {
              "internalType": "uint256",
              "name": "tranche",
              "type": "uint256"
            },
            {
              "components": [
                {
                  "internalType": "contract IERC721",
                  "name": "implem",
                  "type": "address"
                },
                {
                  "internalType": "uint256",
                  "name": "id",
                  "type": "uint256"
                }
              ],
              "internalType": "struct NFToken",
              "name": "collateral",
              "type": "tuple"
            }
          ],
          "internalType": "struct Offer",
          "name": "offer",
          "type": "tuple"
        },
        {
          "internalType": "uint256",
          "name": "expirationDate",
          "type": "uint256"
        }
      ],
      "name": "OfferHasExpired",
      "type": "error"
    },
    {
      "inputs": [
        {
          "components": [
            {
              "internalType": "contract IERC20",
              "name": "assetToLend",
              "type": "address"
            },
            {
              "internalType": "uint256",
              "name": "loanToValue",
              "type": "uint256"
            },
            {
              "internalType": "uint256",
              "name": "duration",
              "type": "uint256"
            },
            {
              "internalType": "uint256",
              "name": "expirationDate",
              "type": "uint256"
            },
            {
              "internalType": "uint256",
              "name": "tranche",
              "type": "uint256"
            },
            {
              "components": [
                {
                  "internalType": "contract IERC721",
                  "name": "implem",
                  "type": "address"
                },
                {
                  "internalType": "uint256",
                  "name": "id",
                  "type": "uint256"
                }
              ],
              "internalType": "struct NFToken",
              "name": "collateral",
              "type": "tuple"
            }
          ],
          "internalType": "struct Offer",
          "name": "offer",
          "type": "tuple"
        },
        {
          "internalType": "uint256",
          "name": "requested",
          "type": "uint256"
        },
        {
          "internalType": "uint256",
          "name": "lowerBound",
          "type": "uint256"
        }
      ],
      "name": "RequestedAmountIsUnderMinimum",
      "type": "error"
    },
    {
      "inputs": [
        {
          "internalType": "uint256",
          "name": "requested",
          "type": "uint256"
        },
        {
          "internalType": "uint256",
          "name": "offered",
          "type": "uint256"
        },
        {
          "components": [
            {
              "internalType": "contract IERC20",
              "name": "assetToLend",
              "type": "address"
            },
            {
              "internalType": "uint256",
              "name": "loanToValue",
              "type": "uint256"
            },
            {
              "internalType": "uint256",
              "name": "duration",
              "type": "uint256"
            },
            {
              "internalType": "uint256",
              "name": "expirationDate",
              "type": "uint256"
            },
            {
              "internalType": "uint256",
              "name": "tranche",
              "type": "uint256"
            },
            {
              "components": [
                {
                  "internalType": "contract IERC721",
                  "name": "implem",
                  "type": "address"
                },
                {
                  "internalType": "uint256",
                  "name": "id",
                  "type": "uint256"
                }
              ],
              "internalType": "struct NFToken",
              "name": "collateral",
              "type": "tuple"
            }
          ],
          "internalType": "struct Offer",
          "name": "offer",
          "type": "tuple"
        }
      ],
      "name": "RequestedAmountTooHigh",
      "type": "error"
    },
    {
      "inputs": [],
      "name": "Unauthorized",
      "type": "error"
    },
    {
      "inputs": [
        {
          "internalType": "uint256",
          "name": "lent",
          "type": "uint256"
        }
      ],
      "name": "UnsafeAmountLent",
      "type": "error"
    },
    {
      "inputs": [
        {
          "internalType": "uint256",
          "name": "minLoanToValue",
          "type": "uint256"
        },
        {
          "internalType": "uint256",
          "name": "maxLoanToValue",
          "type": "uint256"
        }
      ],
      "name": "UnsafeOfferLoanToValuesGap",
      "type": "error"
    },
    {
      "anonymous": false,
      "inputs": [
        {
          "indexed": true,
          "internalType": "address",
          "name": "owner",
          "type": "address"
        },
        {
          "indexed": true,
          "internalType": "address",
          "name": "approved",
          "type": "address"
        },
        {
          "indexed": true,
          "internalType": "uint256",
          "name": "tokenId",
          "type": "uint256"
        }
      ],
      "name": "Approval",
      "type": "event"
    },
    {
      "anonymous": false,
      "inputs": [
        {
          "indexed": true,
          "internalType": "address",
          "name": "owner",
          "type": "address"
        },
        {
          "indexed": true,
          "internalType": "address",
          "name": "operator",
          "type": "address"
        },
        {
          "indexed": false,
          "internalType": "bool",
          "name": "approved",
          "type": "bool"
        }
      ],
      "name": "ApprovalForAll",
      "type": "event"
    },
    {
      "anonymous": false,
      "inputs": [
        {
          "indexed": true,
          "internalType": "uint256",
          "name": "loanId",
          "type": "uint256"
        },
        {
          "indexed": false,
          "internalType": "bytes",
          "name": "loan",
          "type": "bytes"
        }
      ],
      "name": "Borrow",
      "type": "event"
    },
    {
      "anonymous": false,
      "inputs": [
        {
          "indexed": true,
          "internalType": "uint256",
          "name": "loanId",
          "type": "uint256"
        },
        {
          "indexed": false,
          "internalType": "bytes",
          "name": "args",
          "type": "bytes"
        }
      ],
      "name": "Buy",
      "type": "event"
    },
    {
      "anonymous": false,
      "inputs": [
        {
          "indexed": true,
          "internalType": "address",
          "name": "claimant",
          "type": "address"
        },
        {
          "indexed": true,
          "internalType": "uint256",
          "name": "claimed",
          "type": "uint256"
        },
        {
          "indexed": true,
          "internalType": "uint256",
          "name": "loanId",
          "type": "uint256"
        }
      ],
      "name": "Claim",
      "type": "event"
    },
    {
      "anonymous": false,
      "inputs": [
        {
          "indexed": true,
          "internalType": "uint256",
          "name": "newAuctionDuration",
          "type": "uint256"
        }
      ],
      "name": "NewAuctionDuration",
      "type": "event"
    },
    {
      "anonymous": false,
      "inputs": [
        {
          "indexed": true,
          "internalType": "Ray",
          "name": "newAuctionPriceFactor",
          "type": "uint256"
        }
      ],
      "name": "NewAuctionPriceFactor",
      "type": "event"
    },
    {
      "anonymous": false,
      "inputs": [
        {
          "indexed": true,
          "internalType": "contract IERC20",
          "name": "currency",
          "type": "address"
        },
        {
          "indexed": true,
          "internalType": "uint256",
          "name": "newLowerBound",
          "type": "uint256"
        }
      ],
      "name": "NewBorrowAmountPerOfferLowerBound",
      "type": "event"
    },
    {
      "anonymous": false,
      "inputs": [
        {
          "indexed": true,
          "internalType": "contract IERC20",
          "name": "currency",
          "type": "address"
        },
        {
          "indexed": true,
          "internalType": "uint256",
          "name": "newMinOfferCost",
          "type": "uint256"
        }
      ],
      "name": "NewMininimumOfferCost",
      "type": "event"
    },
    {
      "anonymous": false,
      "inputs": [
        {
          "indexed": true,
          "internalType": "Ray",
          "name": "tranche",
          "type": "uint256"
        },
        {
          "indexed": true,
          "internalType": "uint256",
          "name": "newTrancheId",
          "type": "uint256"
        }
      ],
      "name": "NewTranche",
      "type": "event"
    },
    {
      "anonymous": false,
      "inputs": [
        {
          "indexed": true,
          "internalType": "uint256",
          "name": "loanId",
          "type": "uint256"
        }
      ],
      "name": "Repay",
      "type": "event"
    },
    {
      "anonymous": false,
      "inputs": [
        {
          "indexed": true,
          "internalType": "address",
          "name": "from",
          "type": "address"
        },
        {
          "indexed": true,
          "internalType": "address",
          "name": "to",
          "type": "address"
        },
        {
          "indexed": true,
          "internalType": "uint256",
          "name": "tokenId",
          "type": "uint256"
        }
      ],
      "name": "Transfer",
      "type": "event"
    },
    {
      "inputs": [
        {
          "internalType": "address",
          "name": "to",
          "type": "address"
        },
        {
          "internalType": "uint256",
          "name": "tokenId",
          "type": "uint256"
        }
      ],
      "name": "approve",
      "outputs": [],
      "stateMutability": "nonpayable",
      "type": "function"
    },
    {
      "inputs": [
        {
          "internalType": "address",
          "name": "owner",
          "type": "address"
        }
      ],
      "name": "balanceOf",
      "outputs": [
        {
          "internalType": "uint256",
          "name": "",
          "type": "uint256"
        }
      ],
      "stateMutability": "view",
      "type": "function"
    },
    {
      "inputs": [
        {
          "components": [
            {
              "components": [
                {
                  "internalType": "contract IERC721",
                  "name": "implem",
                  "type": "address"
                },
                {
                  "internalType": "uint256",
                  "name": "id",
                  "type": "uint256"
                }
              ],
              "internalType": "struct NFToken",
              "name": "nft",
              "type": "tuple"
            },
            {
              "components": [
                {
                  "internalType": "bytes",
                  "name": "signature",
                  "type": "bytes"
                },
                {
                  "internalType": "uint256",
                  "name": "amount",
                  "type": "uint256"
                },
                {
                  "components": [
                    {
                      "internalType": "contract IERC20",
                      "name": "assetToLend",
                      "type": "address"
                    },
                    {
                      "internalType": "uint256",
                      "name": "loanToValue",
                      "type": "uint256"
                    },
                    {
                      "internalType": "uint256",
                      "name": "duration",
                      "type": "uint256"
                    },
                    {
                      "internalType": "uint256",
                      "name": "expirationDate",
                      "type": "uint256"
                    },
                    {
                      "internalType": "uint256",
                      "name": "tranche",
                      "type": "uint256"
                    },
                    {
                      "components": [
                        {
                          "internalType": "contract IERC721",
                          "name": "implem",
                          "type": "address"
                        },
                        {
                          "internalType": "uint256",
                          "name": "id",
                          "type": "uint256"
                        }
                      ],
                      "internalType": "struct NFToken",
                      "name": "collateral",
                      "type": "tuple"
                    }
                  ],
                  "internalType": "struct Offer",
                  "name": "offer",
                  "type": "tuple"
                }
              ],
              "internalType": "struct OfferArg[]",
              "name": "args",
              "type": "tuple[]"
            }
          ],
          "internalType": "struct BorrowArg[]",
          "name": "args",
          "type": "tuple[]"
        }
      ],
      "name": "borrow",
      "outputs": [],
      "stateMutability": "nonpayable",
      "type": "function"
    },
    {
      "inputs": [
        {
          "components": [
            {
              "internalType": "uint256",
              "name": "loanId",
              "type": "uint256"
            },
            {
              "internalType": "address",
              "name": "to",
              "type": "address"
            }
          ],
          "internalType": "struct BuyArg[]",
          "name": "args",
          "type": "tuple[]"
        }
      ],
      "name": "buy",
      "outputs": [],
      "stateMutability": "nonpayable",
      "type": "function"
    },
    {
      "inputs": [
        {
          "internalType": "uint256[]",
          "name": "positionIds",
          "type": "uint256[]"
        }
      ],
      "name": "claim",
      "outputs": [
        {
          "internalType": "uint256",
          "name": "sent",
          "type": "uint256"
        }
      ],
      "stateMutability": "nonpayable",
      "type": "function"
    },
    {
      "inputs": [
        {
          "internalType": "uint256[]",
          "name": "loanIds",
          "type": "uint256[]"
        }
      ],
      "name": "claimAsBorrower",
      "outputs": [
        {
          "internalType": "uint256",
          "name": "sent",
          "type": "uint256"
        }
      ],
      "stateMutability": "nonpayable",
      "type": "function"
    },
    {
      "inputs": [
        {
          "internalType": "Ray",
          "name": "newTranche",
          "type": "uint256"
        }
      ],
      "name": "createTranche",
      "outputs": [
        {
          "internalType": "uint256",
          "name": "newTrancheId",
          "type": "uint256"
        }
      ],
      "stateMutability": "nonpayable",
      "type": "function"
    },
    {
      "inputs": [
        {
          "internalType": "uint256",
          "name": "tokenId",
          "type": "uint256"
        }
      ],
      "name": "getApproved",
      "outputs": [
        {
          "internalType": "address",
          "name": "",
          "type": "address"
        }
      ],
      "stateMutability": "view",
      "type": "function"
    },
    {
      "inputs": [
        {
          "internalType": "uint256",
          "name": "id",
          "type": "uint256"
        }
      ],
      "name": "getLoan",
      "outputs": [
        {
          "components": [
            {
              "internalType": "contract IERC20",
              "name": "assetLent",
              "type": "address"
            },
            {
              "internalType": "uint256",
              "name": "lent",
              "type": "uint256"
            },
            {
              "internalType": "Ray",
              "name": "shareLent",
              "type": "uint256"
            },
            {
              "internalType": "uint256",
              "name": "startDate",
              "type": "uint256"
            },
            {
              "internalType": "uint256",
              "name": "endDate",
              "type": "uint256"
            },
            {
              "components": [
                {
                  "internalType": "uint256",
                  "name": "duration",
                  "type": "uint256"
                },
                {
                  "internalType": "Ray",
                  "name": "priceFactor",
                  "type": "uint256"
                }
              ],
              "internalType": "struct Auction",
              "name": "auction",
              "type": "tuple"
            },
            {
              "internalType": "Ray",
              "name": "interestPerSecond",
              "type": "uint256"
            },
            {
              "internalType": "address",
              "name": "borrower",
              "type": "address"
            },
            {
              "components": [
                {
                  "internalType": "contract IERC721",
                  "name": "implem",
                  "type": "address"
                },
                {
                  "internalType": "uint256",
                  "name": "id",
                  "type": "uint256"
                }
              ],
              "internalType": "struct NFToken",
              "name": "collateral",
              "type": "tuple"
            },
            {
              "components": [
                {
                  "internalType": "uint256",
                  "name": "paid",
                  "type": "uint256"
                },
                {
                  "internalType": "uint256",
                  "name": "minInterestsToRepay",
                  "type": "uint256"
                },
                {
                  "internalType": "bool",
                  "name": "liquidated",
                  "type": "bool"
                },
                {
                  "internalType": "bool",
                  "name": "borrowerClaimed",
                  "type": "bool"
                }
              ],
              "internalType": "struct Payment",
              "name": "payment",
              "type": "tuple"
            },
            {
              "internalType": "uint256",
              "name": "supplyPositionIndex",
              "type": "uint256"
            },
            {
              "internalType": "uint256",
              "name": "nbOfPositions",
              "type": "uint256"
            }
          ],
          "internalType": "struct Loan",
          "name": "",
          "type": "tuple"
        }
      ],
      "stateMutability": "view",
      "type": "function"
    },
    {
      "inputs": [
        {
          "internalType": "contract IERC20",
          "name": "currency",
          "type": "address"
        }
      ],
      "name": "getMinOfferCostAndBorrowableAmount",
      "outputs": [
        {
          "internalType": "uint256",
          "name": "minOfferCost",
          "type": "uint256"
        },
        {
          "internalType": "uint256",
          "name": "offerBorrowAmountLowerBound",
          "type": "uint256"
        }
      ],
      "stateMutability": "view",
      "type": "function"
    },
    {
      "inputs": [],
      "name": "getParameters",
      "outputs": [
        {
          "internalType": "Ray",
          "name": "auctionPriceFactor",
          "type": "uint256"
        },
        {
          "internalType": "uint256",
          "name": "auctionDuration",
          "type": "uint256"
        },
        {
          "internalType": "uint256",
          "name": "nbOfLoans",
          "type": "uint256"
        },
        {
          "internalType": "uint256",
          "name": "nbOfTranches",
          "type": "uint256"
        }
      ],
      "stateMutability": "view",
      "type": "function"
    },
    {
      "inputs": [
        {
          "internalType": "uint256",
          "name": "id",
          "type": "uint256"
        }
      ],
      "name": "getRateOfTranche",
      "outputs": [
        {
          "internalType": "Ray",
          "name": "rate",
          "type": "uint256"
        }
      ],
      "stateMutability": "view",
      "type": "function"
    },
    {
      "inputs": [
        {
          "internalType": "address",
          "name": "owner",
          "type": "address"
        },
        {
          "internalType": "address",
          "name": "operator",
          "type": "address"
        }
      ],
      "name": "isApprovedForAll",
      "outputs": [
        {
          "internalType": "bool",
          "name": "",
          "type": "bool"
        }
      ],
      "stateMutability": "view",
      "type": "function"
    },
    {
      "inputs": [
        {
          "components": [
            {
              "internalType": "contract IERC20",
              "name": "assetLent",
              "type": "address"
            },
            {
              "internalType": "uint256",
              "name": "lent",
              "type": "uint256"
            },
            {
              "internalType": "Ray",
              "name": "shareLent",
              "type": "uint256"
            },
            {
              "internalType": "uint256",
              "name": "startDate",
              "type": "uint256"
            },
            {
              "internalType": "uint256",
              "name": "endDate",
              "type": "uint256"
            },
            {
              "components": [
                {
                  "internalType": "uint256",
                  "name": "duration",
                  "type": "uint256"
                },
                {
                  "internalType": "Ray",
                  "name": "priceFactor",
                  "type": "uint256"
                }
              ],
              "internalType": "struct Auction",
              "name": "auction",
              "type": "tuple"
            },
            {
              "internalType": "Ray",
              "name": "interestPerSecond",
              "type": "uint256"
            },
            {
              "internalType": "address",
              "name": "borrower",
              "type": "address"
            },
            {
              "components": [
                {
                  "internalType": "contract IERC721",
                  "name": "implem",
                  "type": "address"
                },
                {
                  "internalType": "uint256",
                  "name": "id",
                  "type": "uint256"
                }
              ],
              "internalType": "struct NFToken",
              "name": "collateral",
              "type": "tuple"
            },
            {
              "components": [
                {
                  "internalType": "uint256",
                  "name": "paid",
                  "type": "uint256"
                },
                {
                  "internalType": "uint256",
                  "name": "minInterestsToRepay",
                  "type": "uint256"
                },
                {
                  "internalType": "bool",
                  "name": "liquidated",
                  "type": "bool"
                },
                {
                  "internalType": "bool",
                  "name": "borrowerClaimed",
                  "type": "bool"
                }
              ],
              "internalType": "struct Payment",
              "name": "payment",
              "type": "tuple"
            },
            {
              "internalType": "uint256",
              "name": "supplyPositionIndex",
              "type": "uint256"
            },
            {
              "internalType": "uint256",
              "name": "nbOfPositions",
              "type": "uint256"
            }
          ],
          "internalType": "struct Loan",
          "name": "loan",
          "type": "tuple"
        }
      ],
      "name": "mintLoan",
      "outputs": [
        {
          "internalType": "uint256",
          "name": "loanId",
          "type": "uint256"
        }
      ],
      "stateMutability": "nonpayable",
      "type": "function"
    },
    {
      "inputs": [
        {
          "internalType": "address",
          "name": "to",
          "type": "address"
        },
        {
          "components": [
            {
              "internalType": "uint256",
              "name": "amount",
              "type": "uint256"
            },
            {
              "internalType": "Ray",
              "name": "share",
              "type": "uint256"
            },
            {
              "internalType": "uint256",
              "name": "loanId",
              "type": "uint256"
            }
          ],
          "internalType": "struct Provision",
          "name": "provision",
          "type": "tuple"
        }
      ],
      "name": "mintPosition",
      "outputs": [
        {
          "internalType": "uint256",
          "name": "tokenId",
          "type": "uint256"
        }
      ],
      "stateMutability": "nonpayable",
      "type": "function"
    },
    {
      "inputs": [],
      "name": "name",
      "outputs": [
        {
          "internalType": "string",
          "name": "",
          "type": "string"
        }
      ],
      "stateMutability": "view",
      "type": "function"
    },
    {
      "inputs": [
        {
          "components": [
            {
              "internalType": "contract IERC20",
              "name": "assetToLend",
              "type": "address"
            },
            {
              "internalType": "uint256",
              "name": "loanToValue",
              "type": "uint256"
            },
            {
              "internalType": "uint256",
              "name": "duration",
              "type": "uint256"
            },
            {
              "internalType": "uint256",
              "name": "expirationDate",
              "type": "uint256"
            },
            {
              "internalType": "uint256",
              "name": "tranche",
              "type": "uint256"
            },
            {
              "components": [
                {
                  "internalType": "contract IERC721",
                  "name": "implem",
                  "type": "address"
                },
                {
                  "internalType": "uint256",
                  "name": "id",
                  "type": "uint256"
                }
              ],
              "internalType": "struct NFToken",
              "name": "collateral",
              "type": "tuple"
            }
          ],
          "internalType": "struct Offer",
          "name": "offer",
          "type": "tuple"
        }
      ],
      "name": "offerDigest",
      "outputs": [
        {
          "internalType": "bytes32",
          "name": "",
          "type": "bytes32"
        }
      ],
      "stateMutability": "view",
      "type": "function"
    },
    {
      "inputs": [
        {
          "internalType": "address",
          "name": "operator",
          "type": "address"
        },
        {
          "internalType": "address",
          "name": "",
          "type": "address"
        },
        {
          "internalType": "uint256",
          "name": "tokenId",
          "type": "uint256"
        },
        {
          "internalType": "bytes",
          "name": "data",
          "type": "bytes"
        }
      ],
      "name": "onERC721Received",
      "outputs": [
        {
          "internalType": "bytes4",
          "name": "",
          "type": "bytes4"
        }
      ],
      "stateMutability": "nonpayable",
      "type": "function"
    },
    {
      "inputs": [
        {
          "internalType": "uint256",
          "name": "tokenId",
          "type": "uint256"
        }
      ],
      "name": "ownerOf",
      "outputs": [
        {
          "internalType": "address",
          "name": "",
          "type": "address"
        }
      ],
      "stateMutability": "view",
      "type": "function"
    },
    {
      "inputs": [
        {
          "internalType": "uint256",
          "name": "tokenId",
          "type": "uint256"
        }
      ],
      "name": "position",
      "outputs": [
        {
          "components": [
            {
              "internalType": "uint256",
              "name": "amount",
              "type": "uint256"
            },
            {
              "internalType": "Ray",
              "name": "share",
              "type": "uint256"
            },
            {
              "internalType": "uint256",
              "name": "loanId",
              "type": "uint256"
            }
          ],
          "internalType": "struct Provision",
          "name": "",
          "type": "tuple"
        }
      ],
      "stateMutability": "view",
      "type": "function"
    },
    {
      "inputs": [
        {
          "internalType": "uint256",
          "name": "loanId",
          "type": "uint256"
        }
      ],
      "name": "price",
      "outputs": [
        {
          "internalType": "uint256",
          "name": "",
          "type": "uint256"
        }
      ],
      "stateMutability": "view",
      "type": "function"
    },
    {
      "inputs": [
        {
          "internalType": "uint256[]",
          "name": "loanIds",
          "type": "uint256[]"
        }
      ],
      "name": "repay",
      "outputs": [],
      "stateMutability": "nonpayable",
      "type": "function"
    },
    {
      "inputs": [
        {
          "internalType": "address",
          "name": "from",
          "type": "address"
        },
        {
          "internalType": "address",
          "name": "to",
          "type": "address"
        },
        {
          "internalType": "uint256",
          "name": "tokenId",
          "type": "uint256"
        }
      ],
      "name": "safeTransferFrom",
      "outputs": [],
      "stateMutability": "nonpayable",
      "type": "function"
    },
    {
      "inputs": [
        {
          "internalType": "address",
          "name": "from",
          "type": "address"
        },
        {
          "internalType": "address",
          "name": "to",
          "type": "address"
        },
        {
          "internalType": "uint256",
          "name": "tokenId",
          "type": "uint256"
        },
        {
          "internalType": "bytes",
          "name": "data",
          "type": "bytes"
        }
      ],
      "name": "safeTransferFrom",
      "outputs": [],
      "stateMutability": "nonpayable",
      "type": "function"
    },
    {
      "inputs": [
        {
          "internalType": "address",
          "name": "operator",
          "type": "address"
        },
        {
          "internalType": "bool",
          "name": "approved",
          "type": "bool"
        }
      ],
      "name": "setApprovalForAll",
      "outputs": [],
      "stateMutability": "nonpayable",
      "type": "function"
    },
    {
      "inputs": [
        {
          "internalType": "uint256",
          "name": "newAuctionDuration",
          "type": "uint256"
        }
      ],
      "name": "setAuctionDuration",
      "outputs": [],
      "stateMutability": "nonpayable",
      "type": "function"
    },
    {
      "inputs": [
        {
          "internalType": "Ray",
          "name": "newAuctionPriceFactor",
          "type": "uint256"
        }
      ],
      "name": "setAuctionPriceFactor",
      "outputs": [],
      "stateMutability": "nonpayable",
      "type": "function"
    },
    {
      "inputs": [
        {
          "internalType": "contract IERC20",
          "name": "currency",
          "type": "address"
        },
        {
          "internalType": "uint256",
          "name": "newLowerBound",
          "type": "uint256"
        }
      ],
      "name": "setBorrowAmountPerOfferLowerBound",
      "outputs": [],
      "stateMutability": "nonpayable",
      "type": "function"
    },
    {
      "inputs": [
        {
          "internalType": "contract IERC20",
          "name": "currency",
          "type": "address"
        },
        {
          "internalType": "uint256",
          "name": "newMinOfferCost",
          "type": "uint256"
        }
      ],
      "name": "setMinOfferCost",
      "outputs": [],
      "stateMutability": "nonpayable",
      "type": "function"
    },
    {
      "inputs": [
        {
          "components": [
            {
              "internalType": "contract IERC20",
              "name": "assetLent",
              "type": "address"
            },
            {
              "internalType": "uint256",
              "name": "lent",
              "type": "uint256"
            },
            {
              "internalType": "Ray",
              "name": "shareLent",
              "type": "uint256"
            },
            {
              "internalType": "uint256",
              "name": "startDate",
              "type": "uint256"
            },
            {
              "internalType": "uint256",
              "name": "endDate",
              "type": "uint256"
            },
            {
              "components": [
                {
                  "internalType": "uint256",
                  "name": "duration",
                  "type": "uint256"
                },
                {
                  "internalType": "Ray",
                  "name": "priceFactor",
                  "type": "uint256"
                }
              ],
              "internalType": "struct Auction",
              "name": "auction",
              "type": "tuple"
            },
            {
              "internalType": "Ray",
              "name": "interestPerSecond",
              "type": "uint256"
            },
            {
              "internalType": "address",
              "name": "borrower",
              "type": "address"
            },
            {
              "components": [
                {
                  "internalType": "contract IERC721",
                  "name": "implem",
                  "type": "address"
                },
                {
                  "internalType": "uint256",
                  "name": "id",
                  "type": "uint256"
                }
              ],
              "internalType": "struct NFToken",
              "name": "collateral",
              "type": "tuple"
            },
            {
              "components": [
                {
                  "internalType": "uint256",
                  "name": "paid",
                  "type": "uint256"
                },
                {
                  "internalType": "uint256",
                  "name": "minInterestsToRepay",
                  "type": "uint256"
                },
                {
                  "internalType": "bool",
                  "name": "liquidated",
                  "type": "bool"
                },
                {
                  "internalType": "bool",
                  "name": "borrowerClaimed",
                  "type": "bool"
                }
              ],
              "internalType": "struct Payment",
              "name": "payment",
              "type": "tuple"
            },
            {
              "internalType": "uint256",
              "name": "supplyPositionIndex",
              "type": "uint256"
            },
            {
              "internalType": "uint256",
              "name": "nbOfPositions",
              "type": "uint256"
            }
          ],
          "internalType": "struct Loan",
          "name": "loan",
          "type": "tuple"
        },
        {
          "internalType": "uint256",
          "name": "loanId",
          "type": "uint256"
        }
      ],
      "name": "storeLoan",
      "outputs": [],
      "stateMutability": "nonpayable",
      "type": "function"
    },
    {
      "inputs": [
        {
          "components": [
            {
              "internalType": "uint256",
              "name": "amount",
              "type": "uint256"
            },
            {
              "internalType": "Ray",
              "name": "share",
              "type": "uint256"
            },
            {
              "internalType": "uint256",
              "name": "loanId",
              "type": "uint256"
            }
          ],
          "internalType": "struct Provision",
          "name": "provision",
          "type": "tuple"
        },
        {
          "internalType": "uint256",
          "name": "positionId",
          "type": "uint256"
        }
      ],
      "name": "storeProvision",
      "outputs": [],
      "stateMutability": "nonpayable",
      "type": "function"
    },
    {
      "inputs": [
        {
          "internalType": "bytes4",
          "name": "interfaceId",
          "type": "bytes4"
        }
      ],
      "name": "supportsInterface",
      "outputs": [
        {
          "internalType": "bool",
          "name": "",
          "type": "bool"
        }
      ],
      "stateMutability": "view",
      "type": "function"
    },
    {
      "inputs": [],
      "name": "symbol",
      "outputs": [
        {
          "internalType": "string",
          "name": "",
          "type": "string"
        }
      ],
      "stateMutability": "view",
      "type": "function"
    },
    {
      "inputs": [],
      "name": "totalSupply",
      "outputs": [
        {
          "internalType": "uint256",
          "name": "",
          "type": "uint256"
        }
      ],
      "stateMutability": "view",
      "type": "function"
    },
    {
      "inputs": [
        {
          "internalType": "address",
          "name": "from",
          "type": "address"
        },
        {
          "internalType": "address",
          "name": "to",
          "type": "address"
        },
        {
          "internalType": "uint256",
          "name": "tokenId",
          "type": "uint256"
        }
      ],
      "name": "transferFrom",
      "outputs": [],
      "stateMutability": "nonpayable",
      "type": "function"
    }
  ],
  "bytecode": {
    "object": "0x6101406040523480156200001257600080fd5b50604080518082018252601481527f4b6169726f73204c6f616e2070726f746f636f6c000000000000000000000000602080830191825283518085019094526003845262302e3160e81b908401528151902060e08190527f8cd160c72d102a6747abd189ac21d4a1f802e3fcc1bb8fc78cc4d558df0c7c216101008190524660a0529192917f8b73c3c69bb8fe3d512ecc4cf759cc79239f7b179b0ffacaa9a75d522b39400f620001088184846040805160208101859052908101839052606081018290524660808201523060a082015260009060c0016040516020818303038152906040528051906020012090509392505050565b6080523060c05261012052506200011e92505050565b60805160a05160c05160e05161010051610120516140296200016e60003960006129dd01526000612a2c01526000612a07015260006129600152600061298a015260006129b401526140296000f3fe608060405234801561001057600080fd5b50600436106102115760003560e01c80636352211e11610125578063a497e674116100ad578063b88d4fde1161007c578063b88d4fde146104ca578063cd3acce9146104dd578063e7af8fed146104f0578063e985e9c514610503578063f7a95a9e1461051657600080fd5b8063a497e67414610469578063a5ea11da1461047c578063ab5dce8e146104a4578063b1ce7a6a146104b757600080fd5b80638d116c7a116100f45780638d116c7a1461040057806392eab80e1461042857806395d89b411461043b578063980b13c514610443578063a22cb4651461045657600080fd5b80636352211e146103b45780636ba4c138146103c757806370a08231146103da5780637660e109146103ed57600080fd5b806316cfcfc3116101a857806323b872dd1161017757806323b872dd1461034857806326a49e371461035b5780633d6fd5be1461036e57806342842e0e14610381578063504006ca1461039457600080fd5b806316cfcfc31461030757806318160ddd1461031a5780631a34c700146103225780631fbc8a741461033557600080fd5b8063095ea7b3116101e4578063095ea7b3146102945780630c72ad20146102a757806314aab74f146102ba578063150b7a02146102db57600080fd5b806301d3368f1461021657806301ffc9a71461022b57806306fdde0314610254578063081812fc14610269575b600080fd5b61022961022436600461328b565b61054b565b005b61023f6102393660046132cc565b50600090565b60405190151581526020015b60405180910390f35b61025c610580565b60405161024b919061332f565b61027c610277366004613342565b610621565b6040516001600160a01b03909116815260200161024b565b6102296102a236600461337b565b610632565b6102296102b53660046133ca565b6106be565b6102cd6102c8366004613342565b6108cc565b60405190815260200161024b565b6102ee6102e9366004613454565b6108ea565b6040516001600160e01b0319909116815260200161024b565b6102cd6103153660046136a8565b610937565b6102cd6109bb565b61022961033036600461337b565b6109ce565b6102cd61034336600461374f565b610abf565b61022961035636600461376b565b610ad2565b6102cd610369366004613342565b610b04565b6102cd61037c3660046137f0565b610be1565b61022961038f36600461376b565b610d6f565b6103a76103a2366004613342565b610d8a565b60405161024b9190613831565b61027c6103c2366004613342565b610ea9565b6102cd6103d53660046137f0565b610eb4565b6102cd6103e836600461392c565b611045565b6102296103fb36600461337b565b61109a565b61041361040e36600461392c565b61118b565b6040805192835260208301919091520161024b565b6102cd610436366004613342565b6111ca565b61025c6112cd565b610229610451366004613949565b6112ea565b6102296104643660046139fd565b61132e565b610229610477366004613342565b611339565b61048461140f565b60408051948552602085019390935291830152606082015260800161024b565b6102296104b2366004613a36565b611440565b6102296104c53660046137f0565b611555565b6102296104d8366004613ad2565b6116aa565b6102cd6104eb366004613b3d565b6116e3565b6102296104fe366004613342565b6116f6565b61023f610511366004613b73565b61181c565b610529610524366004613342565b611828565b604080518251815260208084015190820152918101519082015260600161024b565b816105546118b7565b600092835260070160209081526040928390208251815590820151600182015591015160029091015550565b6060600061058c6118b7565b905080600001805461059d90613ba1565b80601f01602080910402602001604051908101604052809291908181526020018280546105c990613ba1565b80156106165780601f106105eb57610100808354040283529160200191610616565b820191906000526020600020905b8154815290600101906020018083116105f957829003601f168201915b505050505091505090565b600061062c826118db565b92915050565b600061063d82610ea9565b9050806001600160a01b0316836001600160a01b03160361067157604051630591db6d60e01b815260040160405180910390fd5b336001600160a01b03821614801590610691575061068f813361181c565b155b156106af5760405163e495e68760e01b815260040160405180910390fd5b6106b98383611928565b505050565b60006106c861196c565b905060008060008060005b86518110156108c3578560050160008883815181106106f4576106f4613bdb565b602002602001015181526020019081526020016000209450600085600b0160000154118061072b5750600d850154610100900460ff165b8061073a5750600d85015460ff165b1561077e5786818151811061075157610751613bdb565b602002602001015160405163dae2c27360e01b815260040161077591815260200190565b60405180910390fd5b846001015493506107ba6107b06107a987600301544261079e9190613c07565b600789015490611990565b869061199c565b600c8701546119be565b92506107c68385613c1a565b600b8601819055600d8601805461ff00191661010017905585549092506107f8906001600160a01b03163330856119d4565b60098501546008860154600a870154604051632142170760e11b81526001600160a01b03938416936342842e0e936108399330939290911691600401613c2d565b600060405180830381600087803b15801561085357600080fd5b505af1158015610867573d6000803e3d6000fd5b5050505086818151811061087d5761087d613bdb565b60200260200101517fa6ffc78a660e4971a47a0f916a0abae483804e6f42c9292ed06aa64f8fe4623060405160405180910390a2806108bb81613c51565b9150506106d3565b50505050505050565b60006108d661196c565b600092835260040160205250604090205490565b6000806108f983850185613d2e565b905061092381886040518060400160405280336001600160a01b0316815260200189815250611a7f565b50630a85bd0160e11b979650505050505050565b600061094161196c565b805460009061094f90613c51565b9190508190559050807fdca520d648f7d72e985ce218de7119aeca8bdd20abdb296f69ee74630fe79c7b8360405160200161098a9190613831565b60408051601f19818403018152908290526109a49161332f565b60405180910390a26109b68282611440565b919050565b60006109c56118b7565b60020154905090565b6000306001600160a01b0316638da5cb5b6040518163ffffffff1660e01b8152600401602060405180830381865afa158015610a0e573d6000803e3d6000fd5b505050506040513d601f19601f82011682018060405250810190610a329190613d76565b9050336001600160a01b03821614610a685760405163d4ed9a1760e01b81526001600160a01b0382166004820152602401610775565b81610a7161196c565b6001600160a01b038516600081815260069290920160205260408083209390935591518492917f67c648fad0621d49c4ec46cd8bd0f732a5999eb456200b96b1ad475163d8672f91a3505050565b600061062c610acd83611cfe565b611da6565b610adc3382611df4565b610af957604051636eb172ad60e11b815260040160405180910390fd5b6106b9838383611e53565b600080610b0f61196c565b600084815260059190910160205260408120600481015490925090610b348242613c07565b9050610b3f85611f59565b6005830154600090821015610b79576005840154610b7490610b62908490611fe2565b676765c793fa10079d601b1b90611ffa565b610b7c565b60005b90506000610bb0610ba58660020154676765c793fa10079d601b1b611fe290919063ffffffff16565b60018701549061199c565b9050610bd682610bd087600501600101548461199c90919063ffffffff16565b9061199c565b979650505050505050565b600080610bec61196c565b905060008080805b86811015610d6457878782818110610c0e57610c0e613bdb565b6020908102929092013560008181526005890190935260409092206008810154909650919350506001600160a01b03163314610c605760405163c250ea5d60e01b815260048101839052602401610775565b600d840154610100900460ff1615610c8e5760405163059803b760e21b815260048101839052602401610775565b600d84015460ff1615610cdd57600d8401805461ff0019166101001790556002840154610cd690610ccb90676765c793fa10079d601b1b90611ffa565b600b8601549061199c565b9250610cf9565b6040516311653e5f60e21b815260048101839052602401610775565b8215610d52578354610d15906001600160a01b03163385612006565b610d1f8387613c1a565b6040519096508290849033907f34fcbac0073d7c3d388e51312faf357774904998eeb8fca628b9e6f65ee1cbf790600090a45b80610d5c81613c51565b915050610bf4565b505050505092915050565b6106b9838383604051806020016040528060008152506116aa565b610d9261304a565b610d9a61196c565b60009283526005908101602090815260409384902084516101808101865281546001600160a01b039081168252600183015482850152600283015482880152600383015460608084019190915260048401546080808501919091528851808a018a5296850154875260068501548787015260a0840196909652600784015460c08401526008840154821660e08401528751808901895260098501549092168252600a840154828601526101008084019290925287519586018852600b8401548652600c84015494860194909452600d83015460ff80821615159887019890985204909516151591830191909152610120840191909152600e810154610140840152600f01546101608301525090565b600061062c826120af565b600080610ebf61196c565b90506000610ecb6118b7565b905060008060008060005b8881101561103857610f00338b8b84818110610ef457610ef4613bdb565b90506020020135611df4565b610f1d57604051636eb172ad60e11b815260040160405180910390fd5b610f3e8a8a83818110610f3257610f32613bdb565b905060200201356120f5565b8560070160008b8b84818110610f5657610f56613bdb565b905060200201358152602001908152602001600020935083600201549250866005016000848152602001908152602001600020945084600b0160020160009054906101000a900460ff1615610fb657610faf8585612171565b9150610feb565b600b850154600003610fde576040516311653e5f60e21b815260048101849052602401610775565b610fe885856121a1565b91505b6040518390839033907f34fcbac0073d7c3d388e51312faf357774904998eeb8fca628b9e6f65ee1cbf790600090a46110248289613c1a565b97508061103081613c51565b915050610ed6565b5050505050505092915050565b6000806110506118b7565b90506001600160a01b03831661107957604051630b505c1d60e11b815260040160405180910390fd5b6001600160a01b039092166000908152600490920160205250604090205490565b6000306001600160a01b0316638da5cb5b6040518163ffffffff1660e01b8152600401602060405180830381865afa1580156110da573d6000803e3d6000fd5b505050506040513d601f19601f820116820180604052508101906110fe9190613d76565b9050336001600160a01b038216146111345760405163d4ed9a1760e01b81526001600160a01b0382166004820152602401610775565b8161113d61196c565b6001600160a01b038516600081815260079290920160205260408083209390935591518492917f146e1a257ecd0267c391070e1bc23a703eee64ed866c1ceb73cc8b2508f4a37191a3505050565b600080600061119861196c565b6001600160a01b0390941660009081526006850160209081526040808320546007909701909152902054939492505050565b600080306001600160a01b0316638da5cb5b6040518163ffffffff1660e01b8152600401602060405180830381865afa15801561120b573d6000803e3d6000fd5b505050506040513d601f19601f8201168201806040525081019061122f9190613d76565b9050336001600160a01b038216146112655760405163d4ed9a1760e01b81526001600160a01b0382166004820152602401610775565b600061126f61196c565b600181018054919250600061128383613c51565b90915550600081815260048301602052604080822087905551919450849186917f6da37ad08550ba024c1448b799ac757c4f29bc9fb729b3f370a4fa2ab798fbd591a35050919050565b606060006112d96118b7565b905080600101805461059d90613ba1565b60005b815181101561132a5761131882828151811061130b5761130b613bdb565b6020026020010151612232565b8061132281613c51565b9150506112ed565b5050565b61132a338383612376565b6000306001600160a01b0316638da5cb5b6040518163ffffffff1660e01b8152600401602060405180830381865afa158015611379573d6000803e3d6000fd5b505050506040513d601f19601f8201168201806040525081019061139d9190613d76565b9050336001600160a01b038216146113d35760405163d4ed9a1760e01b81526001600160a01b0382166004820152602401610775565b816113dc61196c565b6002015560405182907f99c234461abfab1095b48d0d9527ff204caa62038112f57c795cecb99503676290600090a25050565b600080600080600061141f61196c565b60038101546002820154825460019093015491989097509195509350915050565b8161144961196c565b600092835260059081016020908152604093849020835181546001600160a01b03199081166001600160a01b0392831617835585840151600184015585870151600284015560608087015160038501556080870151600485015560a087015180519685019690965594840151600684015560c0860151600784015560e0860151600884018054831691841691909117905561010080870151805160098601805490941694169390931790915590830151600a8301556101208501518051600b84015592830151600c83015594820151600d82018054939094015161ffff1990931690151561ff00191617911515909402179055610140810151600e8301556101600151600f9091015550565b60005b818110156106b95782828281811061157257611572613bdb565b90506020028101906115849190613d93565b61159290602081019061392c565b6001600160a01b03166323b872dd33308686868181106115b4576115b4613bdb565b90506020028101906115c69190613d93565b6040516001600160e01b031960e086901b1681526115ed9392916020013590600401613c2d565b600060405180830381600087803b15801561160757600080fd5b505af115801561161b573d6000803e3d6000fd5b5050505061169783838381811061163457611634613bdb565b90506020028101906116469190613d93565b611654906040810190613db3565b61165d91613dfc565b3385858581811061167057611670613bdb565b90506020028101906116829190613d93565b6116929036819003810190613e09565b611a7f565b50806116a281613c51565b915050611558565b6116b43383611df4565b6116d157604051636eb172ad60e11b815260040160405180910390fd5b6116dd848484846123ec565b50505050565b60006116ef838361241f565b9392505050565b6000306001600160a01b0316638da5cb5b6040518163ffffffff1660e01b8152600401602060405180830381865afa158015611736573d6000803e3d6000fd5b505050506040513d601f19601f8201168201806040525081019061175a9190613d76565b9050336001600160a01b038216146117905760405163d4ed9a1760e01b81526001600160a01b0382166004820152602401610775565b6117ba6117b460026117ae676765c793fa10079d601b1b6005611990565b90612479565b83101590565b6117e05760405162461bcd60e51b81526020600482015260006024820152604401610775565b816117e961196c565b6003015560405182907f1ce4b7127cce448c8a88c8a281145cece8c80a8e53693505547c31fabc92c44590600090a25050565b60006116ef8383612485565b61184c60405180606001604052806000815260200160008152602001600081525090565b60006118566118b7565b9050806002015483111561187d5760405163089ba7e160e41b815260040160405180910390fd5b6000928352600701602090815260409283902083516060810185528154815260018201549281019290925260020154928101929092525090565b7f9dcac861a288165fa5a7e007597a30abcd2d73e174280cf7c6967f5a922a443990565b60006118e6826124c2565b6119035760405163089ba7e160e41b815260040160405180910390fd5b61190b6118b7565b60009283526005016020525060409020546001600160a01b031690565b60006119326118b7565b6000838152600582016020526040902080546001600160a01b0319166001600160a01b03861617905590506106b9611969836120af565b50565b7f84e508d57dadc535817af594804944c3bc341cdb6befa5a0747e20285912a7eb90565b60006116ef8284613e25565b6000676765c793fa10079d601b1b6119b48385613e25565b6116ef9190613e3c565b60008183116119cd57816116ef565b5090919050565b6040516323b872dd60e01b81526001600160a01b038516906323b872dd90611a0490869086908690600401613c2d565b6020604051808303816000875af1158015611a23573d6000803e3d6000fd5b505050506040513d601f19601f82011682018060405250810190611a479190613e5e565b6116dd576040516362fe41f360e01b81526001600160a01b038086166004830152808516602483015283166044820152606401610775565b611a8761304a565b6000611aae85600081518110611a9f57611a9f613bdb565b602002602001015185856124ed565b90506000611aba6118b7565b60020154611ac9906001613c1a565b86519091506000805b82811015611b3c57611afd898281518110611aef57611aef613bdb565b602002602001015186612591565b9450888181518110611b1157611b11613bdb565b60200260200101516020015182611b289190613c1a565b915080611b3481613c51565b915050611ad2565b50701d6329f1c35ca4bfabb9f5610000000000811115611b725760405163a1b0082360e01b815260048101829052602401610775565b611b808488888585886127f9565b945084611b8b61196c565b6101008681018051600090815260059384016020908152604091829020865181546001600160a01b03199081166001600160a01b039283161783558884015160018401558885015160028401556060808a0151600385015560808a0151600485015560a08a015180519985019990995597840151600684015560c0890151600784015560e089015160088401805483169184169190911790558887015180516009850180549093169316929092179055820151600a8201556101208701518051600b83015580830151600c83015580840151600d83018054929098015161ffff1990921690151561ff0019161790151590950294909417909455610140850151600e84015561016090940151600f909201919091555191517fdca520d648f7d72e985ce218de7119aeca8bdd20abdb296f69ee74630fe79c7b91611cd191899101613831565b60408051601f1981840301815290829052611ceb9161332f565b60405180910390a2505050509392505050565b60007f2ac049b6467232d12ceb145e80f9890371b3f6a4ccb53cdc241cf1a1c6e9dd9782600001518360200151846040015185606001518660800151611d478860a0015161291e565b6040805160208101989098526001600160a01b03909616958701959095526060860193909352608085019190915260a084015260c083015260e0820152610100015b604051602081830303815290604052805190602001209050919050565b600061062c611db3612953565b8360405161190160f01b6020820152602281018390526042810182905260009060620160405160208183030381529060405280519060200120905092915050565b600080611e00836120af565b9050806001600160a01b0316846001600160a01b03161480611e275750611e278185612485565b80611e4b5750836001600160a01b0316611e40846118db565b6001600160a01b0316145b949350505050565b6000611e5d6118b7565b9050836001600160a01b0316611e72836120af565b6001600160a01b031614611e995760405163e146af6f60e01b815260040160405180910390fd5b6001600160a01b038316611ec0576040516338f646ff60e21b815260040160405180910390fd5b611ecb600083611928565b6001600160a01b03841660009081526004820160205260408120805460019290611ef6908490613c07565b90915550506001600160a01b03831660009081526004820160205260408120805460019290611f26908490613c1a565b90915550506000828152600382016020526040902080546001600160a01b0319166001600160a01b0385161790556116dd565b6000611f6361196c565b600501600083815260200190815260200160002090508060040154421015611fab5760048181015460405163ee9e72dd60e01b81529182015260248101839052604401610775565b600b810154151580611fc15750600d81015460ff165b1561132a5760405163dae2c27360e01b815260048101839052602401610775565b6000816119b4676765c793fa10079d601b1b85613e25565b60006116ef8284613c07565b60405163a9059cbb60e01b81526001600160a01b0383811660048301526024820183905284169063a9059cbb906044016020604051808303816000875af1158015612055573d6000803e3d6000fd5b505050506040513d601f19601f820116820180604052508101906120799190613e5e565b6106b9576040516362fe41f360e01b81526001600160a01b03808516600483015230602483015283166044820152606401610775565b6000806120ba6118b7565b60008481526003820160205260409020549091506001600160a01b0316806116ef5760405163089ba7e160e41b815260040160405180910390fd5b60006120ff6118b7565b9050600061210c836120af565b9050612119600084611928565b6001600160a01b03811660009081526004830160205260408120805460019290612144908490613c07565b90915550506000838152600383016020526040812080546001600160a01b03191690556106b99082908583565b6001810154600b830154600091612188919061199c565b835490915061062c906001600160a01b03163383612006565b600080836001015484600b01600001546121bb9190613c07565b600c85015490915081036121eb57600f8401546121d89082613e3c565b83546121e49190613c1a565b9150612215565b600184015483546121fc9083613e25565b6122069190613e3c565b83546122129190613c1a565b91505b835461222b906001600160a01b03163384612006565b5092915050565b600061223c61196c565b8251600090815260059190910160205260409020825190915061225e90611f59565b600061226d8360000151610b04565b600d8301805460ff19166001179055600b8301819055825490915061229d906001600160a01b03163330846119d4565b60098201546020840151600a840154604051632142170760e11b81526001600160a01b03909316926342842e0e926122d9923092600401613c2d565b600060405180830381600087803b1580156122f357600080fd5b505af1158015612307573d6000803e3d6000fd5b505084516040805160208082018490528801516001600160a01b0316818301528151808203830181526060909101918290529193507f56fa56fac71c8ba176bf5af94ddd918100d0d8b56a12bbe5e94bac85eca114da9250612369919061332f565b60405180910390a2505050565b60006123806118b7565b9050826001600160a01b0316846001600160a01b0316036123b457604051630b7b99b960e21b815260040160405180910390fd5b6001600160a01b0384811660009081526006830160209081526040808320938716835292905220805460ff19168315151790556116dd565b6123f7848484611e53565b61240384848484612a7a565b6116dd57604051626b5e2960e61b815260040160405180910390fd5b60008061242a6118b7565b9050806002016000815461243d90613c51565b918290555060008181526007830160209081526040918290208651815590860151600182015590850151600290910155915061222b8483612b7b565b60006116ef8284613e3c565b600061248f6118b7565b6001600160a01b039384166000908152600691909101602090815260408083209490951682529290925250205460ff1690565b6000806124cd6118b7565b6000938452600301602052505060409020546001600160a01b0316151590565b6124f561311c565b604051806101200160405280600081526020018560400151600001516001600160a01b031681526020018560400151608001518152602001856040015160400151815260200185604001516020015181526020018560400151602001518152602001846001600160a01b0316815260200183815260200161257461196c565b805460009061258290613c51565b91829055509052949350505050565b61259961311c565b60006125a484612b95565b9050600083602001516001600160a01b03168560400151600001516001600160a01b0316146126045760208401516040868101515190516346aac2a960e01b81526001600160a01b03928316600482015291166024820152604401610775565b836040015185604001516080015114612649578360400151856040015160800151604051632ff7abc160e11b8152600401610775929190918252602082015260400190565b61265b85604001518560e00151612c7f565b61267a8560400151602001518660200151611fe290919063ffffffff16565b84519091506126899082612caf565b808552676765c793fa10079d601b1b10156126e757602085015184516126c6906126b790610b629085611ffa565b6040880151602001519061199c565b86604001516040516352e84b3360e11b815260040161077593929190613ed4565b8360600151856040015160400151101561270957604080860151015160608501525b8360800151856040015160200151101561272c5760408501516020015160808501525b8360a00151856040015160200151111561274f5760408501516020015160a08501525b608084015161275f906002613e25565b8460a00151111561279657608084015160a0850151604051633065b5b760e11b815260048101929092526024820152604401610775565b6127c2828560c00151876020015187602001516001600160a01b03166119d4909392919063ffffffff16565b6127ef8260405180606001604052808860200151815260200184815260200187610100015181525061241f565b5092949350505050565b61280161304a565b600061280b61196c565b9050600088606001514261281f9190613c1a565b9050612850604051806080016040528060008152602001600081526020016000151581526020016000151581525090565b6020808b01516001600160a01b0316600090815260068501909152604090205461287a9088613e25565b60208281019190915260408051610180810182528c8301516001600160a01b039081168252818401999099528c51818301524260608201526080810194909452805180820182526002860154815260038601548184015260a08501529a8b0151600090815260049094019052989091205460c08201529590921660e08601526101008501939093525061012083019390935261014082015261016081019190915290565b60007f8ee82799d3068521f828767217e880bf7d6bb6ec7d5dbcc3de1e3e4bbb39c9e982604051602001611d89929190613ef0565b6000306001600160a01b037f0000000000000000000000000000000000000000000000000000000000000000161480156129ac57507f000000000000000000000000000000000000000000000000000000000000000046145b156129d657507f000000000000000000000000000000000000000000000000000000000000000090565b50604080517f00000000000000000000000000000000000000000000000000000000000000006020808301919091527f0000000000000000000000000000000000000000000000000000000000000000828401527f000000000000000000000000000000000000000000000000000000000000000060608301524660808301523060a0808401919091528351808403909101815260c0909201909252805191012090565b60006001600160a01b0384163b15612b7057604051630a85bd0160e11b81526001600160a01b0385169063150b7a0290612abe903390899088908890600401613f17565b6020604051808303816000875af1925050508015612af9575060408051601f3d908101601f19168201909252612af691810190613f54565b60015b612b56573d808015612b27576040519150601f19603f3d011682016040523d82523d6000602084013e612b2c565b606091505b508051600003612b4e57604051626b5e2960e61b815260040160405180910390fd5b805181602001fd5b6001600160e01b031916630a85bd0160e11b149050611e4b565b506001949350505050565b61132a828260405180602001604052806000815250612cbb565b600080612ba061196c565b9050612bb9612bb28460400151610abf565b8451612cee565b604080850151516001600160a01b031660009081526007840160209081529190205490850151919350908110612c1057836040015184602001518260405163889976c760e01b815260040161077593929190613f71565b836040015160600151421115612c44576040808501516060810151915163065a5c3b60e01b81526107759290600401613f92565b816001015484604001516080015110612c78578160010154604051632fac17ed60e11b815260040161077591815260200190565b5050919050565b60a0820151612c8e9082612d12565b61132a57818160405163d8ef221b60e01b8152600401610775929190613fae565b60006116ef8284613c1a565b612cc58383612d3b565b612cd26000848484612a7a565b6106b957604051626b5e2960e61b815260040160405180910390fd5b6000806000612cfd8585612df7565b91509150612d0a81612e3c565b509392505050565b6000816020015183602001511480156116ef5750505190516001600160a01b0391821691161490565b6000612d456118b7565b90506001600160a01b038316612d6e576040516325bd6bd360e01b815260040160405180910390fd5b612d77826124c2565b15612d955760405163c5a8d37160e01b815260040160405180910390fd5b6001600160a01b03831660009081526004820160205260408120805460019290612dc0908490613c1a565b90915550506000828152600382016020526040812080546001600160a01b0319166001600160a01b0386161790556106b990848483565b6000808251604103612e2d5760208301516040840151606085015160001a612e2187828585612f86565b94509450505050612e35565b506000905060025b9250929050565b6000816004811115612e5057612e50613fdd565b03612e585750565b6001816004811115612e6c57612e6c613fdd565b03612eb95760405162461bcd60e51b815260206004820152601860248201527f45434453413a20696e76616c6964207369676e617475726500000000000000006044820152606401610775565b6002816004811115612ecd57612ecd613fdd565b03612f1a5760405162461bcd60e51b815260206004820152601f60248201527f45434453413a20696e76616c6964207369676e6174757265206c656e677468006044820152606401610775565b6003816004811115612f2e57612f2e613fdd565b036119695760405162461bcd60e51b815260206004820152602260248201527f45434453413a20696e76616c6964207369676e6174757265202773272076616c604482015261756560f01b6064820152608401610775565b6000807f7fffffffffffffffffffffffffffffff5d576e7357a4501ddfe92f46681b20a0831115612fbd5750600090506003613041565b6040805160008082526020820180845289905260ff881692820192909252606081018690526080810185905260019060a0016020604051602081039080840390855afa158015613011573d6000803e3d6000fd5b5050604051601f1901519150506001600160a01b03811661303a57600060019250925050613041565b9150600090505b94509492505050565b60405180610180016040528060006001600160a01b031681526020016000815260200160008152602001600081526020016000815260200161309f604051806040016040528060008152602001600081525090565b81526020016000815260200160006001600160a01b031681526020016130e1604051806040016040528060006001600160a01b03168152602001600081525090565b815260408051608081018252600080825260208281018290529282018190526060820152910190815260200160008152602001600081525090565b6040518061012001604052806000815260200160006001600160a01b031681526020016000815260200160008152602001600081526020016000815260200160006001600160a01b03168152602001613191604051806040016040528060006001600160a01b03168152602001600081525090565b8152602001600081525090565b634e487b7160e01b600052604160045260246000fd5b604051606081016001600160401b03811182821017156131d6576131d661319e565b60405290565b604080519081016001600160401b03811182821017156131d6576131d661319e565b60405161018081016001600160401b03811182821017156131d6576131d661319e565b604051601f8201601f191681016001600160401b03811182821017156132495761324961319e565b604052919050565b60006060828403121561326357600080fd5b61326b6131b4565b905081358152602082013560208201526040820135604082015292915050565b6000806080838503121561329e57600080fd5b6132a88484613251565b946060939093013593505050565b6001600160e01b03198116811461196957600080fd5b6000602082840312156132de57600080fd5b81356116ef816132b6565b6000815180845260005b8181101561330f576020818501810151868301820152016132f3565b506000602082860101526020601f19601f83011685010191505092915050565b6020815260006116ef60208301846132e9565b60006020828403121561335457600080fd5b5035919050565b6001600160a01b038116811461196957600080fd5b80356109b68161335b565b6000806040838503121561338e57600080fd5b82356133998161335b565b946020939093013593505050565b60006001600160401b038211156133c0576133c061319e565b5060051b60200190565b600060208083850312156133dd57600080fd5b82356001600160401b038111156133f357600080fd5b8301601f8101851361340457600080fd5b8035613417613412826133a7565b613221565b81815260059190911b8201830190838101908783111561343657600080fd5b928401925b82841015610bd65783358252928401929084019061343b565b60008060008060006080868803121561346c57600080fd5b85356134778161335b565b945060208601356134878161335b565b93506040860135925060608601356001600160401b03808211156134aa57600080fd5b818801915088601f8301126134be57600080fd5b8135818111156134cd57600080fd5b8960208285010111156134df57600080fd5b9699959850939650602001949392505050565b60006040828403121561350457600080fd5b61350c6131dc565b9050813581526020820135602082015292915050565b60006040828403121561353457600080fd5b61353c6131dc565b905081356135498161335b565b808252506020820135602082015292915050565b801515811461196957600080fd5b60006080828403121561357d57600080fd5b604051608081018181106001600160401b038211171561359f5761359f61319e565b8060405250809150823581526020830135602082015260408301356135c38161355d565b604082015260608301356135d68161355d565b6060919091015292915050565b600061022082840312156135f657600080fd5b6135fe6131fe565b905061360982613370565b8152602082013560208201526040820135604082015260608201356060820152608082013560808201526136408360a084016134f2565b60a082015260e082013560c082015261010061365d818401613370565b60e083015261012061367185828601613522565b8284015261016091506136868583860161356b565b81840152506101e0830135610140830152610200830135818301525092915050565b600061022082840312156136bb57600080fd5b6116ef83836135e3565b600060e082840312156136d757600080fd5b60405160c081018181106001600160401b03821117156136f9576136f961319e565b604052905080823561370a8161335b565b80825250602083013560208201526040830135604082015260608301356060820152608083013560808201526137438460a08501613522565b60a08201525092915050565b600060e0828403121561376157600080fd5b6116ef83836136c5565b60008060006060848603121561378057600080fd5b833561378b8161335b565b9250602084013561379b8161335b565b929592945050506040919091013590565b60008083601f8401126137be57600080fd5b5081356001600160401b038111156137d557600080fd5b6020830191508360208260051b8501011115612e3557600080fd5b6000806020838503121561380357600080fd5b82356001600160401b0381111561381957600080fd5b613825858286016137ac565b90969095509350505050565b81516001600160a01b0316815261022081016020830151602083015260408301516040830152606083015160608301526080830151608083015260a083015161388760a084018280518252602090810151910152565b5060c083015160e083015260e08301516101006138ae818501836001600160a01b03169052565b84015190506101206138d58482018380516001600160a01b03168252602090810151910152565b840151905061016061390e8482018380518252602081015160208301526040810151151560408301526060810151151560608301525050565b6101408501516101e085015280850151610200850152505092915050565b60006020828403121561393e57600080fd5b81356116ef8161335b565b6000602080838503121561395c57600080fd5b82356001600160401b0381111561397257600080fd5b8301601f8101851361398357600080fd5b8035613991613412826133a7565b81815260069190911b820183019083810190878311156139b057600080fd5b928401925b82841015610bd657604084890312156139ce5760008081fd5b6139d66131dc565b84358152858501356139e78161335b565b81870152825260409390930192908401906139b5565b60008060408385031215613a1057600080fd5b8235613a1b8161335b565b91506020830135613a2b8161355d565b809150509250929050565b6000806102408385031215613a4a57600080fd5b613a5484846135e3565b94610220939093013593505050565b600082601f830112613a7457600080fd5b81356001600160401b03811115613a8d57613a8d61319e565b613aa0601f8201601f1916602001613221565b818152846020838601011115613ab557600080fd5b816020850160208301376000918101602001919091529392505050565b60008060008060808587031215613ae857600080fd5b8435613af38161335b565b93506020850135613b038161335b565b92506040850135915060608501356001600160401b03811115613b2557600080fd5b613b3187828801613a63565b91505092959194509250565b60008060808385031215613b5057600080fd5b8235613b5b8161335b565b9150613b6a8460208501613251565b90509250929050565b60008060408385031215613b8657600080fd5b8235613b918161335b565b91506020830135613a2b8161335b565b600181811c90821680613bb557607f821691505b602082108103613bd557634e487b7160e01b600052602260045260246000fd5b50919050565b634e487b7160e01b600052603260045260246000fd5b634e487b7160e01b600052601160045260246000fd5b8181038181111561062c5761062c613bf1565b8082018082111561062c5761062c613bf1565b6001600160a01b039384168152919092166020820152604081019190915260600190565b600060018201613c6357613c63613bf1565b5060010190565b6000613c78613412846133a7565b8381529050602080820190600585901b840186811115613c9757600080fd5b845b81811015613d235780356001600160401b0380821115613cb95760008081fd5b90870190610120828b031215613ccf5760008081fd5b613cd76131b4565b823582811115613ce75760008081fd5b613cf38c828601613a63565b825250858301358682015260409150613d0e8b8385016136c5565b91810191909152855250928201928201613c99565b505050509392505050565b600060208284031215613d4057600080fd5b81356001600160401b03811115613d5657600080fd5b8201601f81018413613d6757600080fd5b611e4b84823560208401613c6a565b600060208284031215613d8857600080fd5b81516116ef8161335b565b60008235605e19833603018112613da957600080fd5b9190910192915050565b6000808335601e19843603018112613dca57600080fd5b8301803591506001600160401b03821115613de457600080fd5b6020019150600581901b3603821315612e3557600080fd5b60006116ef368484613c6a565b600060408284031215613e1b57600080fd5b6116ef8383613522565b808202811582820484141761062c5761062c613bf1565b600082613e5957634e487b7160e01b600052601260045260246000fd5b500490565b600060208284031215613e7057600080fd5b81516116ef8161355d565b60018060a01b0381511682526020810151602083015260408101516040830152606081015160608301526080810151608083015260a08101516106b960a084018280516001600160a01b03168252602090810151910152565b838152602081018390526101208101611e4b6040830184613e7b565b828152606081016116ef602083018480516001600160a01b03168252602090810151910152565b6001600160a01b0385811682528416602082015260408101839052608060608201819052600090613f4a908301846132e9565b9695505050505050565b600060208284031215613f6657600080fd5b81516116ef816132b6565b6101208101613f808286613e7b565b60e08201939093526101000152919050565b6101008101613fa18285613e7b565b8260e08301529392505050565b6101208101613fbd8285613e7b565b82516001600160a01b031660e083015260208301516101008301526116ef565b634e487b7160e01b600052602160045260246000fdfea2646970667358221220d49be74dced1a57ca10ed9c882a875e8923fde9f82194d6f37362cea765d18ae64736f6c63430008120033",
    "linkReferences": {}
  },
  "methodIdentifiers": {
    "approve(address,uint256)": "095ea7b3",
    "balanceOf(address)": "70a08231",
    "borrow(((address,uint256),(bytes,uint256,(address,uint256,uint256,uint256,uint256,(address,uint256)))[])[])": "b1ce7a6a",
    "buy((uint256,address)[])": "980b13c5",
    "claim(uint256[])": "6ba4c138",
    "claimAsBorrower(uint256[])": "3d6fd5be",
    "createTranche(uint256)": "92eab80e",
    "getApproved(uint256)": "081812fc",
    "getLoan(uint256)": "504006ca",
    "getMinOfferCostAndBorrowableAmount(address)": "8d116c7a",
    "getParameters()": "a5ea11da",
    "getRateOfTranche(uint256)": "14aab74f",
    "isApprovedForAll(address,address)": "e985e9c5",
    "mintLoan((address,uint256,uint256,uint256,uint256,(uint256,uint256),uint256,address,(address,uint256),(uint256,uint256,bool,bool),uint256,uint256))": "16cfcfc3",
    "mintPosition(address,(uint256,uint256,uint256))": "cd3acce9",
    "name()": "06fdde03",
    "offerDigest((address,uint256,uint256,uint256,uint256,(address,uint256)))": "1fbc8a74",
    "onERC721Received(address,address,uint256,bytes)": "150b7a02",
    "ownerOf(uint256)": "6352211e",
    "position(uint256)": "f7a95a9e",
    "price(uint256)": "26a49e37",
    "repay(uint256[])": "0c72ad20",
    "safeTransferFrom(address,address,uint256)": "42842e0e",
    "safeTransferFrom(address,address,uint256,bytes)": "b88d4fde",
    "setApprovalForAll(address,bool)": "a22cb465",
    "setAuctionDuration(uint256)": "a497e674",
    "setAuctionPriceFactor(uint256)": "e7af8fed",
    "setBorrowAmountPerOfferLowerBound(address,uint256)": "7660e109",
    "setMinOfferCost(address,uint256)": "1a34c700",
    "storeLoan((address,uint256,uint256,uint256,uint256,(uint256,uint256),uint256,address,(address,uint256),(uint256,uint256,bool,bool),uint256,uint256),uint256)": "ab5dce8e",
    "storeProvision((uint256,uint256,uint256),uint256)": "01d3368f",
    "supportsInterface(bytes4)": "01ffc9a7",
    "symbol()": "95d89b41",
    "totalSupply()": "18160ddd",
    "transferFrom(address,address,uint256)": "23b872dd"
  },
  "id": 99
}