{
  "abi": [
    {
      "inputs": [
        {
          "internalType": "string",
          "name": "name",
          "type": "string"
        },
        {
          "internalType": "string",
          "name": "symbol",
          "type": "string"
        }
      ],
      "stateMutability": "nonpayable",
      "type": "constructor"
    },
    {
      "inputs": [],
      "name": "MaxSupplyReached",
      "type": "error"
    },
    {
      "anonymous": false,
      "inputs": [
        {
          "indexed": true,
          "internalType": "address",
          "name": "owner",
          "type": "address"
        },
        {
          "indexed": true,
          "internalType": "address",
          "name": "approved",
          "type": "address"
        },
        {
          "indexed": true,
          "internalType": "uint256",
          "name": "tokenId",
          "type": "uint256"
        }
      ],
      "name": "Approval",
      "type": "event"
    },
    {
      "anonymous": false,
      "inputs": [
        {
          "indexed": true,
          "internalType": "address",
          "name": "owner",
          "type": "address"
        },
        {
          "indexed": true,
          "internalType": "address",
          "name": "operator",
          "type": "address"
        },
        {
          "indexed": false,
          "internalType": "bool",
          "name": "approved",
          "type": "bool"
        }
      ],
      "name": "ApprovalForAll",
      "type": "event"
    },
    {
      "anonymous": false,
      "inputs": [
        {
          "indexed": true,
          "internalType": "address",
          "name": "from",
          "type": "address"
        },
        {
          "indexed": true,
          "internalType": "address",
          "name": "to",
          "type": "address"
        },
        {
          "indexed": true,
          "internalType": "uint256",
          "name": "tokenId",
          "type": "uint256"
        }
      ],
      "name": "Transfer",
      "type": "event"
    },
    {
      "inputs": [
        {
          "internalType": "address",
          "name": "to",
          "type": "address"
        },
        {
          "internalType": "uint256",
          "name": "tokenId",
          "type": "uint256"
        }
      ],
      "name": "approve",
      "outputs": [],
      "stateMutability": "nonpayable",
      "type": "function"
    },
    {
      "inputs": [
        {
          "internalType": "address",
          "name": "owner",
          "type": "address"
        }
      ],
      "name": "balanceOf",
      "outputs": [
        {
          "internalType": "uint256",
          "name": "",
          "type": "uint256"
        }
      ],
      "stateMutability": "view",
      "type": "function"
    },
    {
      "inputs": [
        {
          "internalType": "uint256",
          "name": "tokenId",
          "type": "uint256"
        }
      ],
      "name": "getApproved",
      "outputs": [
        {
          "internalType": "address",
          "name": "",
          "type": "address"
        }
      ],
      "stateMutability": "view",
      "type": "function"
    },
    {
      "inputs": [
        {
          "internalType": "address",
          "name": "owner",
          "type": "address"
        },
        {
          "internalType": "address",
          "name": "operator",
          "type": "address"
        }
      ],
      "name": "isApprovedForAll",
      "outputs": [
        {
          "internalType": "bool",
          "name": "",
          "type": "bool"
        }
      ],
      "stateMutability": "view",
      "type": "function"
    },
    {
      "inputs": [
        {
          "internalType": "uint256",
          "name": "amount",
          "type": "uint256"
        }
      ],
      "name": "mintMultiple",
      "outputs": [],
      "stateMutability": "nonpayable",
      "type": "function"
    },
    {
      "inputs": [],
      "name": "mintOne",
      "outputs": [
        {
          "internalType": "uint256",
          "name": "createdId",
          "type": "uint256"
        }
      ],
      "stateMutability": "nonpayable",
      "type": "function"
    },
    {
      "inputs": [
        {
          "internalType": "address",
          "name": "to",
          "type": "address"
        }
      ],
      "name": "mintOneTo",
      "outputs": [
        {
          "internalType": "uint256",
          "name": "createdId",
          "type": "uint256"
        }
      ],
      "stateMutability": "nonpayable",
      "type": "function"
    },
    {
      "inputs": [],
      "name": "name",
      "outputs": [
        {
          "internalType": "string",
          "name": "",
          "type": "string"
        }
      ],
      "stateMutability": "view",
      "type": "function"
    },
    {
      "inputs": [
        {
          "internalType": "uint256",
          "name": "tokenId",
          "type": "uint256"
        }
      ],
      "name": "ownerOf",
      "outputs": [
        {
          "internalType": "address",
          "name": "",
          "type": "address"
        }
      ],
      "stateMutability": "view",
      "type": "function"
    },
    {
      "inputs": [
        {
          "internalType": "address",
          "name": "from",
          "type": "address"
        },
        {
          "internalType": "address",
          "name": "to",
          "type": "address"
        },
        {
          "internalType": "uint256",
          "name": "tokenId",
          "type": "uint256"
        }
      ],
      "name": "safeTransferFrom",
      "outputs": [],
      "stateMutability": "nonpayable",
      "type": "function"
    },
    {
      "inputs": [
        {
          "internalType": "address",
          "name": "from",
          "type": "address"
        },
        {
          "internalType": "address",
          "name": "to",
          "type": "address"
        },
        {
          "internalType": "uint256",
          "name": "tokenId",
          "type": "uint256"
        },
        {
          "internalType": "bytes",
          "name": "data",
          "type": "bytes"
        }
      ],
      "name": "safeTransferFrom",
      "outputs": [],
      "stateMutability": "nonpayable",
      "type": "function"
    },
    {
      "inputs": [
        {
          "internalType": "address",
          "name": "operator",
          "type": "address"
        },
        {
          "internalType": "bool",
          "name": "approved",
          "type": "bool"
        }
      ],
      "name": "setApprovalForAll",
      "outputs": [],
      "stateMutability": "nonpayable",
      "type": "function"
    },
    {
      "inputs": [
        {
          "internalType": "string",
          "name": "newBaseURI",
          "type": "string"
        }
      ],
      "name": "setBaseURI",
      "outputs": [],
      "stateMutability": "nonpayable",
      "type": "function"
    },
    {
      "inputs": [
        {
          "internalType": "bytes4",
          "name": "interfaceId",
          "type": "bytes4"
        }
      ],
      "name": "supportsInterface",
      "outputs": [
        {
          "internalType": "bool",
          "name": "",
          "type": "bool"
        }
      ],
      "stateMutability": "view",
      "type": "function"
    },
    {
      "inputs": [],
      "name": "symbol",
      "outputs": [
        {
          "internalType": "string",
          "name": "",
          "type": "string"
        }
      ],
      "stateMutability": "view",
      "type": "function"
    },
    {
      "inputs": [
        {
          "internalType": "uint256",
          "name": "index",
          "type": "uint256"
        }
      ],
      "name": "tokenByIndex",
      "outputs": [
        {
          "internalType": "uint256",
          "name": "",
          "type": "uint256"
        }
      ],
      "stateMutability": "view",
      "type": "function"
    },
    {
      "inputs": [
        {
          "internalType": "address",
          "name": "owner",
          "type": "address"
        },
        {
          "internalType": "uint256",
          "name": "index",
          "type": "uint256"
        }
      ],
      "name": "tokenOfOwnerByIndex",
      "outputs": [
        {
          "internalType": "uint256",
          "name": "",
          "type": "uint256"
        }
      ],
      "stateMutability": "view",
      "type": "function"
    },
    {
      "inputs": [
        {
          "internalType": "uint256",
          "name": "tokenId",
          "type": "uint256"
        }
      ],
      "name": "tokenURI",
      "outputs": [
        {
          "internalType": "string",
          "name": "",
          "type": "string"
        }
      ],
      "stateMutability": "view",
      "type": "function"
    },
    {
      "inputs": [],
      "name": "totalSupply",
      "outputs": [
        {
          "internalType": "uint256",
          "name": "",
          "type": "uint256"
        }
      ],
      "stateMutability": "view",
      "type": "function"
    },
    {
      "inputs": [
        {
          "internalType": "address",
          "name": "from",
          "type": "address"
        },
        {
          "internalType": "address",
          "name": "to",
          "type": "address"
        },
        {
          "internalType": "uint256",
          "name": "tokenId",
          "type": "uint256"
        }
      ],
      "name": "transferFrom",
      "outputs": [],
      "stateMutability": "nonpayable",
      "type": "function"
    }
  ],
  "bytecode": {
    "object": "0x60806040523480156200001157600080fd5b5060405162001db938038062001db983398101604081905262000034916200014d565b8181600062000044838262000246565b50600162000053828262000246565b50505060405180606001604052806036815260200162001d8360369139600a906200007f908262000246565b50505062000312565b634e487b7160e01b600052604160045260246000fd5b600082601f830112620000b057600080fd5b81516001600160401b0380821115620000cd57620000cd62000088565b604051601f8301601f19908116603f01168101908282118183101715620000f857620000f862000088565b816040528381526020925086838588010111156200011557600080fd5b600091505b838210156200013957858201830151818301840152908201906200011a565b600093810190920192909252949350505050565b600080604083850312156200016157600080fd5b82516001600160401b03808211156200017957600080fd5b62000187868387016200009e565b935060208501519150808211156200019e57600080fd5b50620001ad858286016200009e565b9150509250929050565b600181811c90821680620001cc57607f821691505b602082108103620001ed57634e487b7160e01b600052602260045260246000fd5b50919050565b601f8211156200024157600081815260208120601f850160051c810160208610156200021c5750805b601f850160051c820191505b818110156200023d5782815560010162000228565b5050505b505050565b81516001600160401b0381111562000262576200026262000088565b6200027a81620002738454620001b7565b84620001f3565b602080601f831160018114620002b25760008415620002995750858301515b600019600386901b1c1916600185901b1785556200023d565b600085815260208120601f198616915b82811015620002e357888601518255948401946001909101908401620002c2565b5085821015620003025787850151600019600388901b60f8161c191681555b5050505050600190811b01905550565b611a6180620003226000396000f3fe608060405234801561001057600080fd5b506004361061012c5760003560e01c80634f6ccce7116100ad578063a22cb46511610071578063a22cb4651461026c578063abbb5a551461027f578063b88d4fde14610292578063c87b56dd146102a5578063e985e9c5146102b857600080fd5b80634f6ccce71461021857806355f804b31461022b5780636352211e1461023e57806370a082311461025157806395d89b411461026457600080fd5b80630ced8637116100f45780630ced8637146101cf57806318160ddd146101d757806323b872dd146101df5780632f745c59146101f257806342842e0e1461020557600080fd5b806301ffc9a71461013157806306fdde0314610159578063081812fc1461016e578063095ea7b31461019957806309e8ab12146101ae575b600080fd5b61014461013f366004611404565b6102f4565b60405190151581526020015b60405180910390f35b61016161031f565b6040516101509190611471565b61018161017c366004611484565b6103b1565b6040516001600160a01b039091168152602001610150565b6101ac6101a73660046114b4565b6103d8565b005b6101c16101bc3660046114de565b6104f2565b604051908152602001610150565b6101c161051b565b6008546101c1565b6101ac6101ed3660046114f9565b610542565b6101c16102003660046114b4565b610573565b6101ac6102133660046114f9565b610609565b6101c1610226366004611484565b610624565b6101ac6102393660046115c1565b6106b7565b61018161024c366004611484565b6106c7565b6101c161025f3660046114de565b610727565b6101616107ad565b6101ac61027a36600461160a565b6107bc565b6101ac61028d366004611484565b6107c7565b6101ac6102a0366004611646565b6107ed565b6101616102b3366004611484565b610825565b6101446102c63660046116c2565b6001600160a01b03918216600090815260056020908152604080832093909416825291909152205460ff1690565b60006001600160e01b0319821663780e9d6360e01b148061031957506103198261088c565b92915050565b60606000805461032e906116f5565b80601f016020809104026020016040519081016040528092919081815260200182805461035a906116f5565b80156103a75780601f1061037c576101008083540402835291602001916103a7565b820191906000526020600020905b81548152906001019060200180831161038a57829003601f168201915b5050505050905090565b60006103bc826108dc565b506000908152600460205260409020546001600160a01b031690565b60006103e3826106c7565b9050806001600160a01b0316836001600160a01b0316036104555760405162461bcd60e51b815260206004820152602160248201527f4552433732313a20617070726f76616c20746f2063757272656e74206f776e656044820152603960f91b60648201526084015b60405180910390fd5b336001600160a01b0382161480610471575061047181336102c6565b6104e35760405162461bcd60e51b815260206004820152603d60248201527f4552433732313a20617070726f76652063616c6c6572206973206e6f7420746f60448201527f6b656e206f776e6572206f7220617070726f76656420666f7220616c6c000000606482015260840161044c565b6104ed838361093e565b505050565b60006104fc6109ac565b60085461050a906001611745565b905061051682826109d8565b919050565b60006105256109ac565b600854610533906001611745565b905061053f3382610b71565b90565b61054c3382610b8b565b6105685760405162461bcd60e51b815260040161044c90611758565b6104ed838383610c0a565b600061057e83610727565b82106105e05760405162461bcd60e51b815260206004820152602b60248201527f455243373231456e756d657261626c653a206f776e657220696e646578206f7560448201526a74206f6620626f756e647360a81b606482015260840161044c565b506001600160a01b03919091166000908152600660209081526040808320938352929052205490565b6104ed838383604051806020016040528060008152506107ed565b600061062f60085490565b82106106925760405162461bcd60e51b815260206004820152602c60248201527f455243373231456e756d657261626c653a20676c6f62616c20696e646578206f60448201526b7574206f6620626f756e647360a01b606482015260840161044c565b600882815481106106a5576106a56117a5565b90600052602060002001549050919050565b600a6106c38282611809565b5050565b6000818152600260205260408120546001600160a01b0316806103195760405162461bcd60e51b8152602060048201526018602482015277115490cdcc8c4e881a5b9d985b1a59081d1bdad95b88125160421b604482015260640161044c565b60006001600160a01b0382166107915760405162461bcd60e51b815260206004820152602960248201527f4552433732313a2061646472657373207a65726f206973206e6f7420612076616044820152683634b21037bbb732b960b91b606482015260840161044c565b506001600160a01b031660009081526003602052604090205490565b60606001805461032e906116f5565b6106c3338383610d7b565b60005b818110156106c3576107da61051b565b50806107e5816118c9565b9150506107ca565b6107f73383610b8b565b6108135760405162461bcd60e51b815260040161044c90611758565b61081f84848484610e49565b50505050565b6060610830826108dc565b600061083a610e7c565b9050600081511161085a5760405180602001604052806000815250610885565b8061086484610e8b565b6040516020016108759291906118e2565b6040516020818303038152906040525b9392505050565b60006001600160e01b031982166380ac58cd60e01b14806108bd57506001600160e01b03198216635b5e139f60e01b145b8061031957506301ffc9a760e01b6001600160e01b0319831614610319565b6000818152600260205260409020546001600160a01b031661093b5760405162461bcd60e51b8152602060048201526018602482015277115490cdcc8c4e881a5b9d985b1a59081d1bdad95b88125160421b604482015260640161044c565b50565b600081815260046020526040902080546001600160a01b0319166001600160a01b0384169081179091558190610973826106c7565b6001600160a01b03167f8c5be1e5ebec7d5bd14f71427d1e84f3dd0314c0f7b2291e5b200ac8c7c3b92560405160405180910390a45050565b6127106109b860085490565b106109d65760405163d05cb60960e01b815260040160405180910390fd5b565b6001600160a01b038216610a2e5760405162461bcd60e51b815260206004820181905260248201527f4552433732313a206d696e7420746f20746865207a65726f2061646472657373604482015260640161044c565b6000818152600260205260409020546001600160a01b031615610a935760405162461bcd60e51b815260206004820152601c60248201527f4552433732313a20746f6b656e20616c7265616479206d696e74656400000000604482015260640161044c565b610aa1600083836001610f1e565b6000818152600260205260409020546001600160a01b031615610b065760405162461bcd60e51b815260206004820152601c60248201527f4552433732313a20746f6b656e20616c7265616479206d696e74656400000000604482015260640161044c565b6001600160a01b038216600081815260036020908152604080832080546001019055848352600290915280822080546001600160a01b0319168417905551839291907fddf252ad1be2c89b69c2b068fc378daa952ba7f163c4a11628f55a4df523b3ef908290a45050565b6106c3828260405180602001604052806000815250611052565b600080610b97836106c7565b9050806001600160a01b0316846001600160a01b03161480610bde57506001600160a01b0380821660009081526005602090815260408083209388168352929052205460ff165b80610c025750836001600160a01b0316610bf7846103b1565b6001600160a01b0316145b949350505050565b826001600160a01b0316610c1d826106c7565b6001600160a01b031614610c435760405162461bcd60e51b815260040161044c90611911565b6001600160a01b038216610ca55760405162461bcd60e51b8152602060048201526024808201527f4552433732313a207472616e7366657220746f20746865207a65726f206164646044820152637265737360e01b606482015260840161044c565b610cb28383836001610f1e565b826001600160a01b0316610cc5826106c7565b6001600160a01b031614610ceb5760405162461bcd60e51b815260040161044c90611911565b600081815260046020908152604080832080546001600160a01b03199081169091556001600160a01b0387811680865260038552838620805460001901905590871680865283862080546001019055868652600290945282852080549092168417909155905184937fddf252ad1be2c89b69c2b068fc378daa952ba7f163c4a11628f55a4df523b3ef91a4505050565b816001600160a01b0316836001600160a01b031603610ddc5760405162461bcd60e51b815260206004820152601960248201527f4552433732313a20617070726f766520746f2063616c6c657200000000000000604482015260640161044c565b6001600160a01b03838116600081815260056020908152604080832094871680845294825291829020805460ff191686151590811790915591519182527f17307eab39ab6107e8899845ad3d59bd9653f200f220920489ca2b5937696c31910160405180910390a3505050565b610e54848484610c0a565b610e6084848484611085565b61081f5760405162461bcd60e51b815260040161044c90611956565b6060600a805461032e906116f5565b60606000610e9883611186565b600101905060008167ffffffffffffffff811115610eb857610eb8611535565b6040519080825280601f01601f191660200182016040528015610ee2576020820181803683370190505b5090508181016020015b600019016f181899199a1a9b1b9c1cb0b131b232b360811b600a86061a8153600a8504945084610eec57509392505050565b6001811115610f8d5760405162461bcd60e51b815260206004820152603560248201527f455243373231456e756d657261626c653a20636f6e7365637574697665207472604482015274185b9cd9995c9cc81b9bdd081cdd5c1c1bdc9d1959605a1b606482015260840161044c565b816001600160a01b038516610fe957610fe481600880546000838152600960205260408120829055600182018355919091527ff3f7a9fe364faab93b216da50a3214154f22a0a2b415b23a84c8169e8b636ee30155565b61100c565b836001600160a01b0316856001600160a01b03161461100c5761100c858261125e565b6001600160a01b03841661102857611023816112fb565b61104b565b846001600160a01b0316846001600160a01b03161461104b5761104b84826113aa565b5050505050565b61105c83836109d8565b6110696000848484611085565b6104ed5760405162461bcd60e51b815260040161044c90611956565b60006001600160a01b0384163b1561117b57604051630a85bd0160e11b81526001600160a01b0385169063150b7a02906110c99033908990889088906004016119a8565b6020604051808303816000875af1925050508015611104575060408051601f3d908101601f19168201909252611101918101906119e5565b60015b611161573d808015611132576040519150601f19603f3d011682016040523d82523d6000602084013e611137565b606091505b5080516000036111595760405162461bcd60e51b815260040161044c90611956565b805181602001fd5b6001600160e01b031916630a85bd0160e11b149050610c02565b506001949350505050565b60008072184f03e93ff9f4daa797ed6e38ed64bf6a1f0160401b83106111c55772184f03e93ff9f4daa797ed6e38ed64bf6a1f0160401b830492506040015b6d04ee2d6d415b85acef810000000083106111f1576d04ee2d6d415b85acef8100000000830492506020015b662386f26fc10000831061120f57662386f26fc10000830492506010015b6305f5e1008310611227576305f5e100830492506008015b612710831061123b57612710830492506004015b6064831061124d576064830492506002015b600a83106103195760010192915050565b6000600161126b84610727565b6112759190611a02565b6000838152600760205260409020549091508082146112c8576001600160a01b03841660009081526006602090815260408083208584528252808320548484528184208190558352600790915290208190555b5060009182526007602090815260408084208490556001600160a01b039094168352600681528383209183525290812055565b60085460009061130d90600190611a02565b60008381526009602052604081205460088054939450909284908110611335576113356117a5565b906000526020600020015490508060088381548110611356576113566117a5565b600091825260208083209091019290925582815260099091526040808220849055858252812055600880548061138e5761138e611a15565b6001900381819060005260206000200160009055905550505050565b60006113b583610727565b6001600160a01b039093166000908152600660209081526040808320868452825280832085905593825260079052919091209190915550565b6001600160e01b03198116811461093b57600080fd5b60006020828403121561141657600080fd5b8135610885816113ee565b60005b8381101561143c578181015183820152602001611424565b50506000910152565b6000815180845261145d816020860160208601611421565b601f01601f19169290920160200192915050565b6020815260006108856020830184611445565b60006020828403121561149657600080fd5b5035919050565b80356001600160a01b038116811461051657600080fd5b600080604083850312156114c757600080fd5b6114d08361149d565b946020939093013593505050565b6000602082840312156114f057600080fd5b6108858261149d565b60008060006060848603121561150e57600080fd5b6115178461149d565b92506115256020850161149d565b9150604084013590509250925092565b634e487b7160e01b600052604160045260246000fd5b600067ffffffffffffffff8084111561156657611566611535565b604051601f8501601f19908116603f0116810190828211818310171561158e5761158e611535565b816040528093508581528686860111156115a757600080fd5b858560208301376000602087830101525050509392505050565b6000602082840312156115d357600080fd5b813567ffffffffffffffff8111156115ea57600080fd5b8201601f810184136115fb57600080fd5b610c028482356020840161154b565b6000806040838503121561161d57600080fd5b6116268361149d565b91506020830135801515811461163b57600080fd5b809150509250929050565b6000806000806080858703121561165c57600080fd5b6116658561149d565b93506116736020860161149d565b925060408501359150606085013567ffffffffffffffff81111561169657600080fd5b8501601f810187136116a757600080fd5b6116b68782356020840161154b565b91505092959194509250565b600080604083850312156116d557600080fd5b6116de8361149d565b91506116ec6020840161149d565b90509250929050565b600181811c9082168061170957607f821691505b60208210810361172957634e487b7160e01b600052602260045260246000fd5b50919050565b634e487b7160e01b600052601160045260246000fd5b808201808211156103195761031961172f565b6020808252602d908201527f4552433732313a2063616c6c6572206973206e6f7420746f6b656e206f776e6560408201526c1c881bdc88185c1c1c9bdd9959609a1b606082015260800190565b634e487b7160e01b600052603260045260246000fd5b601f8211156104ed57600081815260208120601f850160051c810160208610156117e25750805b601f850160051c820191505b81811015611801578281556001016117ee565b505050505050565b815167ffffffffffffffff81111561182357611823611535565b6118378161183184546116f5565b846117bb565b602080601f83116001811461186c57600084156118545750858301515b600019600386901b1c1916600185901b178555611801565b600085815260208120601f198616915b8281101561189b5788860151825594840194600190910190840161187c565b50858210156118b95787850151600019600388901b60f8161c191681555b5050505050600190811b01905550565b6000600182016118db576118db61172f565b5060010190565b600083516118f4818460208801611421565b835190830190611908818360208801611421565b01949350505050565b60208082526025908201527f4552433732313a207472616e736665722066726f6d20696e636f72726563742060408201526437bbb732b960d91b606082015260800190565b60208082526032908201527f4552433732313a207472616e7366657220746f206e6f6e20455243373231526560408201527131b2b4bb32b91034b6b83632b6b2b73a32b960711b606082015260800190565b6001600160a01b03858116825284166020820152604081018390526080606082018190526000906119db90830184611445565b9695505050505050565b6000602082840312156119f757600080fd5b8151610885816113ee565b818103818111156103195761031961172f565b634e487b7160e01b600052603160045260246000fdfea2646970667358221220e79495c773cbc594e9b681681f3106dc284a145d301bfa88f68f9d29c318fa8d64736f6c63430008120033697066733a2f2f516d504d6334746342734d714c5275435174506d506538346270536a7243334b793774334a5775485859423461532f",
    "linkReferences": {}
  },
  "methodIdentifiers": {
    "approve(address,uint256)": "095ea7b3",
    "balanceOf(address)": "70a08231",
    "getApproved(uint256)": "081812fc",
    "isApprovedForAll(address,address)": "e985e9c5",
    "mintMultiple(uint256)": "abbb5a55",
    "mintOne()": "0ced8637",
    "mintOneTo(address)": "09e8ab12",
    "name()": "06fdde03",
    "ownerOf(uint256)": "6352211e",
    "safeTransferFrom(address,address,uint256)": "42842e0e",
    "safeTransferFrom(address,address,uint256,bytes)": "b88d4fde",
    "setApprovalForAll(address,bool)": "a22cb465",
    "setBaseURI(string)": "55f804b3",
    "supportsInterface(bytes4)": "01ffc9a7",
    "symbol()": "95d89b41",
    "tokenByIndex(uint256)": "4f6ccce7",
    "tokenOfOwnerByIndex(address,uint256)": "2f745c59",
    "tokenURI(uint256)": "c87b56dd",
    "totalSupply()": "18160ddd",
    "transferFrom(address,address,uint256)": "23b872dd"
  },
  "id": 79
}