{
  "abi": [
    {
      "inputs": [
        {
          "internalType": "uint256",
          "name": "endDate",
          "type": "uint256"
        },
        {
          "internalType": "uint256",
          "name": "loanId",
          "type": "uint256"
        }
      ],
      "name": "CollateralIsNotLiquidableYet",
      "type": "error"
    },
    {
      "inputs": [
        {
          "internalType": "contract IERC20",
          "name": "token",
          "type": "address"
        },
        {
          "internalType": "address",
          "name": "from",
          "type": "address"
        },
        {
          "internalType": "address",
          "name": "to",
          "type": "address"
        }
      ],
      "name": "ERC20TransferFailed",
      "type": "error"
    },
    {
      "inputs": [
        {
          "internalType": "uint256",
          "name": "loanId",
          "type": "uint256"
        }
      ],
      "name": "LoanAlreadyRepaid",
      "type": "error"
    },
    {
      "anonymous": false,
      "inputs": [
        {
          "indexed": true,
          "internalType": "uint256",
          "name": "loanId",
          "type": "uint256"
        },
        {
          "indexed": false,
          "internalType": "bytes",
          "name": "args",
          "type": "bytes"
        }
      ],
      "name": "Buy",
      "type": "event"
    },
    {
      "inputs": [
        {
          "components": [
            {
              "internalType": "uint256",
              "name": "loanId",
              "type": "uint256"
            },
            {
              "internalType": "address",
              "name": "to",
              "type": "address"
            }
          ],
          "internalType": "struct BuyArg[]",
          "name": "args",
          "type": "tuple[]"
        }
      ],
      "name": "buy",
      "outputs": [],
      "stateMutability": "nonpayable",
      "type": "function"
    },
    {
      "inputs": [
        {
          "internalType": "uint256",
          "name": "loanId",
          "type": "uint256"
        }
      ],
      "name": "price",
      "outputs": [
        {
          "internalType": "uint256",
          "name": "",
          "type": "uint256"
        }
      ],
      "stateMutability": "view",
      "type": "function"
    }
  ],
  "bytecode": {
    "object": "0x608060405234801561001057600080fd5b50610746806100206000396000f3fe608060405234801561001057600080fd5b50600436106100365760003560e01c806326a49e371461003b578063980b13c514610060575b600080fd5b61004e6100493660046104a6565b610075565b60405190815260200160405180910390f35b61007361006e36600461052f565b610161565b005b60008181527f84e508d57dadc535817af594804944c3bc341cdb6befa5a0747e20285912a7f0602052604081206004810154826100b2824261061e565b90506100bd856101a5565b60058301546000908210156100f85760058401546100f3906100e0908490610240565b6b033b2e3c9fd0803ce80000009061026c565b6100fb565b60005b9050600061013061012586600201546b033b2e3c9fd0803ce800000061024090919063ffffffff16565b600187015490610278565b90506101568261015087600501600101548461027890919063ffffffff16565b90610278565b979650505050505050565b60005b81518110156101a15761018f82828151811061018257610182610631565b6020026020010151610291565b8061019981610647565b915050610164565b5050565b60008181527f84e508d57dadc535817af594804944c3bc341cdb6befa5a0747e20285912a7f06020526040902060048101544210156102095760048181015460405163ee9e72dd60e01b815291820152602481018390526044015b60405180910390fd5b600b81015415158061021f5750600d81015460ff165b156101a15760405163dae2c27360e01b815260048101839052602401610200565b6000816102596b033b2e3c9fd0803ce800000085610660565b6102639190610677565b90505b92915050565b6000610263828461061e565b60006b033b2e3c9fd0803ce80000006102598385610660565b805160009081527f84e508d57dadc535817af594804944c3bc341cdb6befa5a0747e20285912a7f06020526040902081516102cb906101a5565b60006102da8360000151610075565b600d8301805460ff19166001179055600b8301819055825490915061030a906001600160a01b03163330846103ed565b60098201546020840151600a840154604051632142170760e11b81523060048201526001600160a01b03928316602482015260448101919091529116906342842e0e90606401600060405180830381600087803b15801561036a57600080fd5b505af115801561037e573d6000803e3d6000fd5b505084516040805160208082018490528801516001600160a01b0316818301528151808203830181526060909101918290529193507f56fa56fac71c8ba176bf5af94ddd918100d0d8b56a12bbe5e94bac85eca114da92506103e09190610699565b60405180910390a2505050565b6040516323b872dd60e01b81526001600160a01b0384811660048301528381166024830152604482018390528516906323b872dd906064016020604051808303816000875af1158015610444573d6000803e3d6000fd5b505050506040513d601f19601f8201168201806040525081019061046891906106e7565b6104a0576040516362fe41f360e01b81526001600160a01b038086166004830152808516602483015283166044820152606401610200565b50505050565b6000602082840312156104b857600080fd5b5035919050565b634e487b7160e01b600052604160045260246000fd5b6040805190810167ffffffffffffffff811182821017156104f8576104f86104bf565b60405290565b604051601f8201601f1916810167ffffffffffffffff81118282101715610527576105276104bf565b604052919050565b6000602080838503121561054257600080fd5b823567ffffffffffffffff8082111561055a57600080fd5b818501915085601f83011261056e57600080fd5b813581811115610580576105806104bf565b61058e848260051b016104fe565b818152848101925060069190911b8301840190878211156105ae57600080fd5b928401925b8184101561015657604084890312156105cc5760008081fd5b6105d46104d5565b84358152858501356001600160a01b03811681146105f25760008081fd5b81870152835260409390930192918401916105b3565b634e487b7160e01b600052601160045260246000fd5b8181038181111561026657610266610608565b634e487b7160e01b600052603260045260246000fd5b60006001820161065957610659610608565b5060010190565b808202811582820484141761026657610266610608565b60008261069457634e487b7160e01b600052601260045260246000fd5b500490565b600060208083528351808285015260005b818110156106c6578581018301518582016040015282016106aa565b506000604082860101526040601f19601f8301168501019250505092915050565b6000602082840312156106f957600080fd5b8151801515811461070957600080fd5b939250505056fea2646970667358221220d369991315aeef67e5a773ff97e93997488624ce0e0cd709977a6cb3677d39f064736f6c63430008120033",
    "linkReferences": {}
  },
  "methodIdentifiers": {
    "buy((uint256,address)[])": "980b13c5",
    "price(uint256)": "26a49e37"
  },
  "id": 46
}