{
  "abi": [
    {
      "inputs": [],
      "name": "DelegateCallFailed",
      "type": "error"
    },
    {
      "inputs": [
        {
          "internalType": "address",
          "name": "toCall",
          "type": "address"
        },
        {
          "internalType": "bytes",
          "name": "data",
          "type": "bytes"
        }
      ],
      "name": "delegateCall",
      "outputs": [
        {
          "internalType": "bytes",
          "name": "",
          "type": "bytes"
        }
      ],
      "stateMutability": "nonpayable",
      "type": "function"
    }
  ],
  "bytecode": {
    "object": "0x608060405234801561001057600080fd5b50610270806100206000396000f3fe608060405234801561001057600080fd5b506004361061002b5760003560e01c806356e7b7aa14610030575b600080fd5b61004361003e3660046100f7565b610059565b60405161005091906101eb565b60405180910390f35b6060600080846001600160a01b031684604051610076919061021e565b600060405180830381855af49150503d80600081146100b1576040519150601f19603f3d011682016040523d82523d6000602084013e6100b6565b606091505b5091509150816100d9576040516318cecad560e01b815260040160405180910390fd5b949350505050565b634e487b7160e01b600052604160045260246000fd5b6000806040838503121561010a57600080fd5b82356001600160a01b038116811461012157600080fd5b9150602083013567ffffffffffffffff8082111561013e57600080fd5b818501915085601f83011261015257600080fd5b813581811115610164576101646100e1565b604051601f8201601f19908116603f0116810190838211818310171561018c5761018c6100e1565b816040528281528860208487010111156101a557600080fd5b8260208601602083013760006020848301015280955050505050509250929050565b60005b838110156101e25781810151838201526020016101ca565b50506000910152565b602081526000825180602084015261020a8160408501602087016101c7565b601f01601f19169190910160400192915050565b600082516102308184602087016101c7565b919091019291505056fea26469706673582212202b7e919966434099ee6c6d6c438b3ec331ab0f4cb0751672b3eabd364ff17a9f64736f6c63430008120033",
    "linkReferences": {}
  },
  "methodIdentifiers": {
    "delegateCall(address,bytes)": "56e7b7aa"
  },
  "id": 98
}