{
  "abi": [
    {
      "inputs": [],
      "name": "ERC721AddressZeroIsNotAValidOwner",
      "type": "error"
    },
    {
      "inputs": [],
      "name": "ERC721ApprovalToCurrentOwner",
      "type": "error"
    },
    {
      "inputs": [],
      "name": "ERC721ApproveToCaller",
      "type": "error"
    },
    {
      "inputs": [],
      "name": "ERC721CallerIsNotOwnerNorApproved",
      "type": "error"
    },
    {
      "inputs": [],
      "name": "ERC721CallerIsNotOwnerNorApprovedForAll",
      "type": "error"
    },
    {
      "inputs": [],
      "name": "ERC721InvalidTokenId",
      "type": "error"
    },
    {
      "inputs": [],
      "name": "ERC721TransferFromIncorrectOwner",
      "type": "error"
    },
    {
      "inputs": [],
      "name": "ERC721TransferToNonERC721ReceiverImplementer",
      "type": "error"
    },
    {
      "inputs": [],
      "name": "ERC721TransferToTheZeroAddress",
      "type": "error"
    },
    {
      "inputs": [],
      "name": "Unauthorized",
      "type": "error"
    },
    {
      "anonymous": false,
      "inputs": [
        {
          "indexed": true,
          "internalType": "address",
          "name": "owner",
          "type": "address"
        },
        {
          "indexed": true,
          "internalType": "address",
          "name": "approved",
          "type": "address"
        },
        {
          "indexed": true,
          "internalType": "uint256",
          "name": "tokenId",
          "type": "uint256"
        }
      ],
      "name": "Approval",
      "type": "event"
    },
    {
      "anonymous": false,
      "inputs": [
        {
          "indexed": true,
          "internalType": "address",
          "name": "owner",
          "type": "address"
        },
        {
          "indexed": true,
          "internalType": "address",
          "name": "operator",
          "type": "address"
        },
        {
          "indexed": false,
          "internalType": "bool",
          "name": "approved",
          "type": "bool"
        }
      ],
      "name": "ApprovalForAll",
      "type": "event"
    },
    {
      "anonymous": false,
      "inputs": [
        {
          "indexed": true,
          "internalType": "address",
          "name": "from",
          "type": "address"
        },
        {
          "indexed": true,
          "internalType": "address",
          "name": "to",
          "type": "address"
        },
        {
          "indexed": true,
          "internalType": "uint256",
          "name": "tokenId",
          "type": "uint256"
        }
      ],
      "name": "Transfer",
      "type": "event"
    },
    {
      "inputs": [
        {
          "internalType": "address",
          "name": "to",
          "type": "address"
        },
        {
          "internalType": "uint256",
          "name": "tokenId",
          "type": "uint256"
        }
      ],
      "name": "approve",
      "outputs": [],
      "stateMutability": "nonpayable",
      "type": "function"
    },
    {
      "inputs": [
        {
          "internalType": "address",
          "name": "owner",
          "type": "address"
        }
      ],
      "name": "balanceOf",
      "outputs": [
        {
          "internalType": "uint256",
          "name": "",
          "type": "uint256"
        }
      ],
      "stateMutability": "view",
      "type": "function"
    },
    {
      "inputs": [
        {
          "internalType": "uint256",
          "name": "tokenId",
          "type": "uint256"
        }
      ],
      "name": "getApproved",
      "outputs": [
        {
          "internalType": "address",
          "name": "",
          "type": "address"
        }
      ],
      "stateMutability": "view",
      "type": "function"
    },
    {
      "inputs": [
        {
          "internalType": "address",
          "name": "owner",
          "type": "address"
        },
        {
          "internalType": "address",
          "name": "operator",
          "type": "address"
        }
      ],
      "name": "isApprovedForAll",
      "outputs": [
        {
          "internalType": "bool",
          "name": "",
          "type": "bool"
        }
      ],
      "stateMutability": "view",
      "type": "function"
    },
    {
      "inputs": [],
      "name": "name",
      "outputs": [
        {
          "internalType": "string",
          "name": "",
          "type": "string"
        }
      ],
      "stateMutability": "view",
      "type": "function"
    },
    {
      "inputs": [
        {
          "internalType": "uint256",
          "name": "tokenId",
          "type": "uint256"
        }
      ],
      "name": "ownerOf",
      "outputs": [
        {
          "internalType": "address",
          "name": "",
          "type": "address"
        }
      ],
      "stateMutability": "view",
      "type": "function"
    },
    {
      "inputs": [
        {
          "internalType": "uint256",
          "name": "tokenId",
          "type": "uint256"
        }
      ],
      "name": "position",
      "outputs": [
        {
          "components": [
            {
              "internalType": "uint256",
              "name": "amount",
              "type": "uint256"
            },
            {
              "internalType": "Ray",
              "name": "share",
              "type": "uint256"
            },
            {
              "internalType": "uint256",
              "name": "loanId",
              "type": "uint256"
            }
          ],
          "internalType": "struct Provision",
          "name": "",
          "type": "tuple"
        }
      ],
      "stateMutability": "view",
      "type": "function"
    },
    {
      "inputs": [
        {
          "internalType": "address",
          "name": "from",
          "type": "address"
        },
        {
          "internalType": "address",
          "name": "to",
          "type": "address"
        },
        {
          "internalType": "uint256",
          "name": "tokenId",
          "type": "uint256"
        }
      ],
      "name": "safeTransferFrom",
      "outputs": [],
      "stateMutability": "nonpayable",
      "type": "function"
    },
    {
      "inputs": [
        {
          "internalType": "address",
          "name": "from",
          "type": "address"
        },
        {
          "internalType": "address",
          "name": "to",
          "type": "address"
        },
        {
          "internalType": "uint256",
          "name": "tokenId",
          "type": "uint256"
        },
        {
          "internalType": "bytes",
          "name": "data",
          "type": "bytes"
        }
      ],
      "name": "safeTransferFrom",
      "outputs": [],
      "stateMutability": "nonpayable",
      "type": "function"
    },
    {
      "inputs": [
        {
          "internalType": "address",
          "name": "operator",
          "type": "address"
        },
        {
          "internalType": "bool",
          "name": "approved",
          "type": "bool"
        }
      ],
      "name": "setApprovalForAll",
      "outputs": [],
      "stateMutability": "nonpayable",
      "type": "function"
    },
    {
      "inputs": [
        {
          "internalType": "bytes4",
          "name": "interfaceId",
          "type": "bytes4"
        }
      ],
      "name": "supportsInterface",
      "outputs": [
        {
          "internalType": "bool",
          "name": "",
          "type": "bool"
        }
      ],
      "stateMutability": "view",
      "type": "function"
    },
    {
      "inputs": [],
      "name": "symbol",
      "outputs": [
        {
          "internalType": "string",
          "name": "",
          "type": "string"
        }
      ],
      "stateMutability": "view",
      "type": "function"
    },
    {
      "inputs": [],
      "name": "totalSupply",
      "outputs": [
        {
          "internalType": "uint256",
          "name": "",
          "type": "uint256"
        }
      ],
      "stateMutability": "view",
      "type": "function"
    },
    {
      "inputs": [
        {
          "internalType": "address",
          "name": "from",
          "type": "address"
        },
        {
          "internalType": "address",
          "name": "to",
          "type": "address"
        },
        {
          "internalType": "uint256",
          "name": "tokenId",
          "type": "uint256"
        }
      ],
      "name": "transferFrom",
      "outputs": [],
      "stateMutability": "nonpayable",
      "type": "function"
    }
  ],
  "bytecode": {
    "object": "0x608060405234801561001057600080fd5b50610f0c806100206000396000f3fe608060405234801561001057600080fd5b50600436106100ea5760003560e01c80636352211e1161008c578063a22cb46511610066578063a22cb465146101f2578063b88d4fde14610205578063e985e9c514610218578063f7a95a9e1461022b57600080fd5b80636352211e146101c457806370a08231146101d757806395d89b41146101ea57600080fd5b8063095ea7b3116100c8578063095ea7b31461015857806318160ddd1461016d57806323b872dd1461019e57806342842e0e146101b157600080fd5b806301ffc9a7146100ef57806306fdde0314610118578063081812fc1461012d575b600080fd5b6101036100fd366004610b59565b50600090565b60405190151581526020015b60405180910390f35b610120610260565b60405161010f9190610bbc565b61014061013b366004610bcf565b610304565b6040516001600160a01b03909116815260200161010f565b61016b610166366004610c04565b610315565b005b7f9dcac861a288165fa5a7e007597a30abcd2d73e174280cf7c6967f5a922a443b545b60405190815260200161010f565b61016b6101ac366004610c2e565b6103a1565b61016b6101bf366004610c2e565b6103d3565b6101406101d2366004610bcf565b6103ee565b6101906101e5366004610c6a565b6103f9565b610120610452565b61016b610200366004610c85565b610491565b61016b610213366004610cd7565b6104a0565b610103610226366004610db3565b6104d9565b61023e610239366004610bcf565b6104ec565b604080518251815260208084015190820152918101519082015260600161010f565b600080516020610eb7833981519152805460609190819061028090610de6565b80601f01602080910402602001604051908101604052809291908181526020018280546102ac90610de6565b80156102f95780601f106102ce576101008083540402835291602001916102f9565b820191906000526020600020905b8154815290600101906020018083116102dc57829003601f168201915b505050505091505090565b600061030f8261059c565b92915050565b6000610320826103ee565b9050806001600160a01b0316836001600160a01b03160361035457604051630591db6d60e01b815260040160405180910390fd5b336001600160a01b03821614801590610374575061037281336104d9565b155b156103925760405163e495e68760e01b815260040160405180910390fd5b61039c838361062b565b505050565b6103ab3382610693565b6103c857604051636eb172ad60e11b815260040160405180910390fd5b61039c8383836106f2565b61039c838383604051806020016040528060008152506104a0565b600061030f82610801565b6000600080516020610eb78339815191526001600160a01b03831661043157604051630b505c1d60e11b815260040160405180910390fd5b6001600160a01b039092166000908152600490920160205250604090205490565b7f9dcac861a288165fa5a7e007597a30abcd2d73e174280cf7c6967f5a922a443a8054606091600080516020610eb78339815191529161028090610de6565b61049c338383610866565b5050565b6104aa3383610693565b6104c757604051636eb172ad60e11b815260040160405180910390fd5b6104d3848484846108df565b50505050565b60006104e58383610912565b9392505050565b61051060405180606001604052806000815260200160008152602001600081525090565b7f9dcac861a288165fa5a7e007597a30abcd2d73e174280cf7c6967f5a922a443b54600080516020610eb7833981519152908311156105625760405163089ba7e160e41b815260040160405180910390fd5b6000928352600701602090815260409283902083516060810185528154815260018201549281019290925260020154928101929092525090565b60008181527f9dcac861a288165fa5a7e007597a30abcd2d73e174280cf7c6967f5a922a443c60205260408120546001600160a01b03166105f05760405163089ba7e160e41b815260040160405180910390fd5b5060009081527f9dcac861a288165fa5a7e007597a30abcd2d73e174280cf7c6967f5a922a443e60205260409020546001600160a01b031690565b60008181527f9dcac861a288165fa5a7e007597a30abcd2d73e174280cf7c6967f5a922a443e6020526040902080546001600160a01b0319166001600160a01b038416179055600080516020610eb783398151915261039c61068c83610801565b848461095f565b60008061069f83610801565b9050806001600160a01b0316846001600160a01b031614806106c657506106c68185610912565b806106ea5750836001600160a01b03166106df8461059c565b6001600160a01b0316145b949350505050565b600080516020610eb78339815191526001600160a01b03841661071483610801565b6001600160a01b03161461073b5760405163e146af6f60e01b815260040160405180910390fd5b6001600160a01b038316610762576040516338f646ff60e21b815260040160405180910390fd5b61076d60008361062b565b6001600160a01b03841660009081526004820160205260408120805460019290610798908490610e36565b90915550506001600160a01b038316600090815260048201602052604081208054600192906107c8908490610e49565b90915550506000828152600382016020526040902080546001600160a01b0319166001600160a01b0385161790556104d38484846109a5565b60008181527f9dcac861a288165fa5a7e007597a30abcd2d73e174280cf7c6967f5a922a443c6020526040812054600080516020610eb7833981519152906001600160a01b0316806104e55760405163089ba7e160e41b815260040160405180910390fd5b600080516020610eb78339815191526001600160a01b03808416908516036108a157604051630b7b99b960e21b815260040160405180910390fd5b6001600160a01b0384811660009081526006830160209081526040808320938716835292905220805460ff19168315151790556104d38484846109eb565b6108ea8484846106f2565b6108f684848484610a3f565b6104d357604051626b5e2960e61b815260040160405180910390fd5b6001600160a01b0391821660009081527f9dcac861a288165fa5a7e007597a30abcd2d73e174280cf7c6967f5a922a443f6020908152604080832093909416825291909152205460ff1690565b80826001600160a01b0316846001600160a01b03167f8c5be1e5ebec7d5bd14f71427d1e84f3dd0314c0f7b2291e5b200ac8c7c3b92560405160405180910390a4505050565b80826001600160a01b0316846001600160a01b03167fddf252ad1be2c89b69c2b068fc378daa952ba7f163c4a11628f55a4df523b3ef60405160405180910390a4505050565b816001600160a01b0316836001600160a01b03167f17307eab39ab6107e8899845ad3d59bd9653f200f220920489ca2b5937696c3183604051610a32911515815260200190565b60405180910390a3505050565b60006001600160a01b0384163b15610b3557604051630a85bd0160e11b81526001600160a01b0385169063150b7a0290610a83903390899088908890600401610e5c565b6020604051808303816000875af1925050508015610abe575060408051601f3d908101601f19168201909252610abb91810190610e99565b60015b610b1b573d808015610aec576040519150601f19603f3d011682016040523d82523d6000602084013e610af1565b606091505b508051600003610b1357604051626b5e2960e61b815260040160405180910390fd5b805181602001fd5b6001600160e01b031916630a85bd0160e11b1490506106ea565b506001949350505050565b6001600160e01b031981168114610b5657600080fd5b50565b600060208284031215610b6b57600080fd5b81356104e581610b40565b6000815180845260005b81811015610b9c57602081850181015186830182015201610b80565b506000602082860101526020601f19601f83011685010191505092915050565b6020815260006104e56020830184610b76565b600060208284031215610be157600080fd5b5035919050565b80356001600160a01b0381168114610bff57600080fd5b919050565b60008060408385031215610c1757600080fd5b610c2083610be8565b946020939093013593505050565b600080600060608486031215610c4357600080fd5b610c4c84610be8565b9250610c5a60208501610be8565b9150604084013590509250925092565b600060208284031215610c7c57600080fd5b6104e582610be8565b60008060408385031215610c9857600080fd5b610ca183610be8565b915060208301358015158114610cb657600080fd5b809150509250929050565b634e487b7160e01b600052604160045260246000fd5b60008060008060808587031215610ced57600080fd5b610cf685610be8565b9350610d0460208601610be8565b925060408501359150606085013567ffffffffffffffff80821115610d2857600080fd5b818701915087601f830112610d3c57600080fd5b813581811115610d4e57610d4e610cc1565b604051601f8201601f19908116603f01168101908382118183101715610d7657610d76610cc1565b816040528281528a6020848701011115610d8f57600080fd5b82602086016020830137600060208483010152809550505050505092959194509250565b60008060408385031215610dc657600080fd5b610dcf83610be8565b9150610ddd60208401610be8565b90509250929050565b600181811c90821680610dfa57607f821691505b602082108103610e1a57634e487b7160e01b600052602260045260246000fd5b50919050565b634e487b7160e01b600052601160045260246000fd5b8181038181111561030f5761030f610e20565b8082018082111561030f5761030f610e20565b6001600160a01b0385811682528416602082015260408101839052608060608201819052600090610e8f90830184610b76565b9695505050505050565b600060208284031215610eab57600080fd5b81516104e581610b4056fe9dcac861a288165fa5a7e007597a30abcd2d73e174280cf7c6967f5a922a4439a264697066735822122073ad8d20c2214e8f1f6757d9321748ce1e3387eae9df662ecf7ff2a6d5960b1c64736f6c63430008120033",
    "linkReferences": {}
  },
  "methodIdentifiers": {
    "approve(address,uint256)": "095ea7b3",
    "balanceOf(address)": "70a08231",
    "getApproved(uint256)": "081812fc",
    "isApprovedForAll(address,address)": "e985e9c5",
    "name()": "06fdde03",
    "ownerOf(uint256)": "6352211e",
    "position(uint256)": "f7a95a9e",
    "safeTransferFrom(address,address,uint256)": "42842e0e",
    "safeTransferFrom(address,address,uint256,bytes)": "b88d4fde",
    "setApprovalForAll(address,bool)": "a22cb465",
    "supportsInterface(bytes4)": "01ffc9a7",
    "symbol()": "95d89b41",
    "totalSupply()": "18160ddd",
    "transferFrom(address,address,uint256)": "23b872dd"
  },
  "id": 61
}