{
  "abi": [
    {
      "inputs": [
        {
          "components": [
            {
              "internalType": "contract IERC20",
              "name": "assetToLend",
              "type": "address"
            },
            {
              "internalType": "uint256",
              "name": "loanToValue",
              "type": "uint256"
            },
            {
              "internalType": "uint256",
              "name": "duration",
              "type": "uint256"
            },
            {
              "internalType": "uint256",
              "name": "expirationDate",
              "type": "uint256"
            },
            {
              "internalType": "uint256",
              "name": "tranche",
              "type": "uint256"
            },
            {
              "components": [
                {
                  "internalType": "contract IERC721",
                  "name": "implem",
                  "type": "address"
                },
                {
                  "internalType": "uint256",
                  "name": "id",
                  "type": "uint256"
                }
              ],
              "internalType": "struct NFToken",
              "name": "collateral",
              "type": "tuple"
            }
          ],
          "internalType": "struct Offer",
          "name": "offer",
          "type": "tuple"
        },
        {
          "components": [
            {
              "internalType": "contract IERC721",
              "name": "implem",
              "type": "address"
            },
            {
              "internalType": "uint256",
              "name": "id",
              "type": "uint256"
            }
          ],
          "internalType": "struct NFToken",
          "name": "providedNft",
          "type": "tuple"
        }
      ],
      "name": "BadCollateral",
      "type": "error"
    },
    {
      "inputs": [
        {
          "internalType": "contract IERC20",
          "name": "token",
          "type": "address"
        },
        {
          "internalType": "address",
          "name": "from",
          "type": "address"
        },
        {
          "internalType": "address",
          "name": "to",
          "type": "address"
        }
      ],
      "name": "ERC20TransferFailed",
      "type": "error"
    },
    {
      "inputs": [],
      "name": "ERC721MintToTheZeroAddress",
      "type": "error"
    },
    {
      "inputs": [],
      "name": "ERC721TokenAlreadyMinted",
      "type": "error"
    },
    {
      "inputs": [],
      "name": "ERC721TransferToNonERC721ReceiverImplementer",
      "type": "error"
    },
    {
      "inputs": [
        {
          "internalType": "contract IERC20",
          "name": "firstRequested",
          "type": "address"
        },
        {
          "internalType": "contract IERC20",
          "name": "requested",
          "type": "address"
        }
      ],
      "name": "InconsistentAssetRequests",
      "type": "error"
    },
    {
      "inputs": [
        {
          "internalType": "uint256",
          "name": "firstTrancheIdUsed",
          "type": "uint256"
        },
        {
          "internalType": "uint256",
          "name": "trancheIdFound",
          "type": "uint256"
        }
      ],
      "name": "InconsistentTranches",
      "type": "error"
    },
    {
      "inputs": [
        {
          "internalType": "uint256",
          "name": "nbOfTranches",
          "type": "uint256"
        }
      ],
      "name": "InvalidTranche",
      "type": "error"
    },
    {
      "inputs": [
        {
          "components": [
            {
              "internalType": "contract IERC20",
              "name": "assetToLend",
              "type": "address"
            },
            {
              "internalType": "uint256",
              "name": "loanToValue",
              "type": "uint256"
            },
            {
              "internalType": "uint256",
              "name": "duration",
              "type": "uint256"
            },
            {
              "internalType": "uint256",
              "name": "expirationDate",
              "type": "uint256"
            },
            {
              "internalType": "uint256",
              "name": "tranche",
              "type": "uint256"
            },
            {
              "components": [
                {
                  "internalType": "contract IERC721",
                  "name": "implem",
                  "type": "address"
                },
                {
                  "internalType": "uint256",
                  "name": "id",
                  "type": "uint256"
                }
              ],
              "internalType": "struct NFToken",
              "name": "collateral",
              "type": "tuple"
            }
          ],
          "internalType": "struct Offer",
          "name": "offer",
          "type": "tuple"
        },
        {
          "internalType": "uint256",
          "name": "expirationDate",
          "type": "uint256"
        }
      ],
      "name": "OfferHasExpired",
      "type": "error"
    },
    {
      "inputs": [
        {
          "components": [
            {
              "internalType": "contract IERC20",
              "name": "assetToLend",
              "type": "address"
            },
            {
              "internalType": "uint256",
              "name": "loanToValue",
              "type": "uint256"
            },
            {
              "internalType": "uint256",
              "name": "duration",
              "type": "uint256"
            },
            {
              "internalType": "uint256",
              "name": "expirationDate",
              "type": "uint256"
            },
            {
              "internalType": "uint256",
              "name": "tranche",
              "type": "uint256"
            },
            {
              "components": [
                {
                  "internalType": "contract IERC721",
                  "name": "implem",
                  "type": "address"
                },
                {
                  "internalType": "uint256",
                  "name": "id",
                  "type": "uint256"
                }
              ],
              "internalType": "struct NFToken",
              "name": "collateral",
              "type": "tuple"
            }
          ],
          "internalType": "struct Offer",
          "name": "offer",
          "type": "tuple"
        },
        {
          "internalType": "uint256",
          "name": "requested",
          "type": "uint256"
        },
        {
          "internalType": "uint256",
          "name": "lowerBound",
          "type": "uint256"
        }
      ],
      "name": "RequestedAmountIsUnderMinimum",
      "type": "error"
    },
    {
      "inputs": [
        {
          "internalType": "uint256",
          "name": "requested",
          "type": "uint256"
        },
        {
          "internalType": "uint256",
          "name": "offered",
          "type": "uint256"
        },
        {
          "components": [
            {
              "internalType": "contract IERC20",
              "name": "assetToLend",
              "type": "address"
            },
            {
              "internalType": "uint256",
              "name": "loanToValue",
              "type": "uint256"
            },
            {
              "internalType": "uint256",
              "name": "duration",
              "type": "uint256"
            },
            {
              "internalType": "uint256",
              "name": "expirationDate",
              "type": "uint256"
            },
            {
              "internalType": "uint256",
              "name": "tranche",
              "type": "uint256"
            },
            {
              "components": [
                {
                  "internalType": "contract IERC721",
                  "name": "implem",
                  "type": "address"
                },
                {
                  "internalType": "uint256",
                  "name": "id",
                  "type": "uint256"
                }
              ],
              "internalType": "struct NFToken",
              "name": "collateral",
              "type": "tuple"
            }
          ],
          "internalType": "struct Offer",
          "name": "offer",
          "type": "tuple"
        }
      ],
      "name": "RequestedAmountTooHigh",
      "type": "error"
    },
    {
      "inputs": [
        {
          "internalType": "uint256",
          "name": "lent",
          "type": "uint256"
        }
      ],
      "name": "UnsafeAmountLent",
      "type": "error"
    },
    {
      "inputs": [
        {
          "internalType": "uint256",
          "name": "minLoanToValue",
          "type": "uint256"
        },
        {
          "internalType": "uint256",
          "name": "maxLoanToValue",
          "type": "uint256"
        }
      ],
      "name": "UnsafeOfferLoanToValuesGap",
      "type": "error"
    },
    {
      "anonymous": false,
      "inputs": [
        {
          "indexed": true,
          "internalType": "uint256",
          "name": "loanId",
          "type": "uint256"
        },
        {
          "indexed": false,
          "internalType": "bytes",
          "name": "loan",
          "type": "bytes"
        }
      ],
      "name": "Borrow",
      "type": "event"
    },
    {
      "inputs": [
        {
          "components": [
            {
              "components": [
                {
                  "internalType": "contract IERC721",
                  "name": "implem",
                  "type": "address"
                },
                {
                  "internalType": "uint256",
                  "name": "id",
                  "type": "uint256"
                }
              ],
              "internalType": "struct NFToken",
              "name": "nft",
              "type": "tuple"
            },
            {
              "components": [
                {
                  "internalType": "bytes",
                  "name": "signature",
                  "type": "bytes"
                },
                {
                  "internalType": "uint256",
                  "name": "amount",
                  "type": "uint256"
                },
                {
                  "components": [
                    {
                      "internalType": "contract IERC20",
                      "name": "assetToLend",
                      "type": "address"
                    },
                    {
                      "internalType": "uint256",
                      "name": "loanToValue",
                      "type": "uint256"
                    },
                    {
                      "internalType": "uint256",
                      "name": "duration",
                      "type": "uint256"
                    },
                    {
                      "internalType": "uint256",
                      "name": "expirationDate",
                      "type": "uint256"
                    },
                    {
                      "internalType": "uint256",
                      "name": "tranche",
                      "type": "uint256"
                    },
                    {
                      "components": [
                        {
                          "internalType": "contract IERC721",
                          "name": "implem",
                          "type": "address"
                        },
                        {
                          "internalType": "uint256",
                          "name": "id",
                          "type": "uint256"
                        }
                      ],
                      "internalType": "struct NFToken",
                      "name": "collateral",
                      "type": "tuple"
                    }
                  ],
                  "internalType": "struct Offer",
                  "name": "offer",
                  "type": "tuple"
                }
              ],
              "internalType": "struct OfferArg[]",
              "name": "args",
              "type": "tuple[]"
            }
          ],
          "internalType": "struct BorrowArg[]",
          "name": "args",
          "type": "tuple[]"
        }
      ],
      "name": "borrow",
      "outputs": [],
      "stateMutability": "nonpayable",
      "type": "function"
    },
    {
      "inputs": [
        {
          "components": [
            {
              "internalType": "contract IERC20",
              "name": "assetToLend",
              "type": "address"
            },
            {
              "internalType": "uint256",
              "name": "loanToValue",
              "type": "uint256"
            },
            {
              "internalType": "uint256",
              "name": "duration",
              "type": "uint256"
            },
            {
              "internalType": "uint256",
              "name": "expirationDate",
              "type": "uint256"
            },
            {
              "internalType": "uint256",
              "name": "tranche",
              "type": "uint256"
            },
            {
              "components": [
                {
                  "internalType": "contract IERC721",
                  "name": "implem",
                  "type": "address"
                },
                {
                  "internalType": "uint256",
                  "name": "id",
                  "type": "uint256"
                }
              ],
              "internalType": "struct NFToken",
              "name": "collateral",
              "type": "tuple"
            }
          ],
          "internalType": "struct Offer",
          "name": "offer",
          "type": "tuple"
        }
      ],
      "name": "offerDigest",
      "outputs": [
        {
          "internalType": "bytes32",
          "name": "",
          "type": "bytes32"
        }
      ],
      "stateMutability": "view",
      "type": "function"
    },
    {
      "inputs": [
        {
          "internalType": "address",
          "name": "operator",
          "type": "address"
        },
        {
          "internalType": "address",
          "name": "",
          "type": "address"
        },
        {
          "internalType": "uint256",
          "name": "tokenId",
          "type": "uint256"
        },
        {
          "internalType": "bytes",
          "name": "data",
          "type": "bytes"
        }
      ],
      "name": "onERC721Received",
      "outputs": [
        {
          "internalType": "bytes4",
          "name": "",
          "type": "bytes4"
        }
      ],
      "stateMutability": "nonpayable",
      "type": "function"
    }
  ],
  "bytecode": {
    "object": "0x61014060405234801561001157600080fd5b50604080518082018252601481527f4b6169726f73204c6f616e2070726f746f636f6c000000000000000000000000602080830191825283518085019094526003845262302e3160e81b908401528151902060e08190527f8cd160c72d102a6747abd189ac21d4a1f802e3fcc1bb8fc78cc4d558df0c7c216101008190524660a0529192917f8b73c3c69bb8fe3d512ecc4cf759cc79239f7b179b0ffacaa9a75d522b39400f6101068184846040805160208101859052908101839052606081018290524660808201523060a082015260009060c0016040516020818303038152906040528051906020012090509392505050565b6080523060c052610120525061011b92505050565b60805160a05160c05160e0516101005161012051611da361016a6000396000610b6101526000610bb001526000610b8b01526000610ae401526000610b0e01526000610b380152611da36000f3fe608060405234801561001057600080fd5b50600436106100415760003560e01c8063150b7a02146100465780631fbc8a7414610077578063b1ce7a6a14610098575b600080fd5b610059610054366004611532565b6100ad565b6040516001600160e01b031990911681526020015b60405180910390f35b61008a610085366004611725565b6100fa565b60405190815260200161006e565b6100ab6100a6366004611741565b610113565b005b6000806100bc838501856118d5565b90506100e681886040518060400160405280336001600160a01b031681526020018981525061027f565b50630a85bd0160e11b979650505050505050565b600061010d61010883610530565b6105d8565b92915050565b60005b8181101561027a578282828181106101305761013061191e565b90506020028101906101429190611934565b610150906020810190611954565b6001600160a01b03166323b872dd33308686868181106101725761017261191e565b90506020028101906101849190611934565b60405160e085901b6001600160e01b03191681526001600160a01b039384166004820152929091166024830152602001356044820152606401600060405180830381600087803b1580156101d757600080fd5b505af11580156101eb573d6000803e3d6000fd5b505050506102678383838181106102045761020461191e565b90506020028101906102169190611934565b610224906040810190611971565b61022d916119bb565b338585858181106102405761024061191e565b90506020028101906102529190611934565b61026290368190038101906119c8565b61027f565b5080610272816119fa565b915050610116565b505050565b6102876113c9565b60006102ae8560008151811061029f5761029f61191e565b60200260200101518585610626565b905060007f9dcac861a288165fa5a7e007597a30abcd2d73e174280cf7c6967f5a922a4439600201546102e2906001611a13565b86519091506000805b82811015610355576103168982815181106103085761030861191e565b6020026020010151866106eb565b945088818151811061032a5761032a61191e565b602002602001015160200151826103419190611a13565b91508061034d816119fa565b9150506102eb565b50701d6329f1c35ca4bfabb9f56100000000008111156103905760405163a1b0082360e01b8152600481018290526024015b60405180910390fd5b61039e848888858588610967565b610100858101805160009081527f84e508d57dadc535817af594804944c3bc341cdb6befa5a0747e20285912a7f06020908152604091829020855181546001600160a01b03199081166001600160a01b0392831617835587840151600184015587850151600284015560608089015160038501556080890151600485015560a089015180516005860155850151600685015560c0890151600785015560e0890151600885018054841691851691909117905588880151805160098601805490941694169390931790915590830151600a8301556101208701518051600b84015580840151600c84015580850151600d84018054929093015161ffff1990921690151561ff0019161790151590960295909517909455610140850151600e850155610160850151600f9094019390935590519051929750917fdca520d648f7d72e985ce218de7119aeca8bdd20abdb296f69ee74630fe79c7b9161050391899101611a26565b60408051601f198184030181529082905261051d91611b67565b60405180910390a2505050509392505050565b60007f2ac049b6467232d12ceb145e80f9890371b3f6a4ccb53cdc241cf1a1c6e9dd97826000015183602001518460400151856060015186608001516105798860a00151610aa2565b6040805160208101989098526001600160a01b03909616958701959095526060860193909352608085019190915260a084015260c083015260e0820152610100015b604051602081830303815290604052805190602001209050919050565b600061010d6105e5610ad7565b8360405161190160f01b6020820152602281018390526042810182905260009060620160405160208183030381529060405280519060200120905092915050565b61062e61149b565b604051806101200160405280600081526020018560400151600001516001600160a01b031681526020018560400151608001518152602001856040015160400151815260200185604001516020015181526020018560400151602001518152602001846001600160a01b031681526020018381526020016106cc7f84e508d57dadc535817af594804944c3bc341cdb6befa5a0747e20285912a7eb90565b80546000906106da906119fa565b9182905550905290505b9392505050565b6106f361149b565b60006106fe84610bfe565b9050600083602001516001600160a01b03168560400151600001516001600160a01b03161461075e5760208401516040868101515190516346aac2a960e01b81526001600160a01b03928316600482015291166024820152604401610387565b8360400151856040015160800151146107a3578360400151856040015160800151604051632ff7abc160e11b8152600401610387929190918252602082015260400190565b6107b585604001518560e00151610d01565b6107d48560400151602001518660200151610d3590919063ffffffff16565b84519091506107e39082610d58565b8085526b033b2e3c9fd0803ce80000001015610855576020850151845161083490610825906108129085610d64565b6b033b2e3c9fd0803ce800000090610d64565b60408801516020015190610d70565b86604001516040516352e84b3360e11b815260040161038793929190611bd3565b8360600151856040015160400151101561087757604080860151015160608501525b8360800151856040015160200151101561089a5760408501516020015160808501525b8360a0015185604001516020015111156108bd5760408501516020015160a08501525b60808401516108cd906002611bef565b8460a00151111561090457608084015160a0850151604051633065b5b760e11b815260048101929092526024820152604401610387565b610930828560c00151876020015187602001516001600160a01b0316610d89909392919063ffffffff16565b61095d82604051806060016040528088602001518152602001848152602001876101000151815250610e42565b5092949350505050565b61096f6113c9565b60608701517f84e508d57dadc535817af594804944c3bc341cdb6befa5a0747e20285912a7eb906000906109a39042611a13565b90506109d4604051806080016040528060008152602001600081526020016000151581526020016000151581525090565b6020808b01516001600160a01b031660009081526006850190915260409020546109fe9088611bef565b60208281019190915260408051610180810182528c8301516001600160a01b039081168252818401999099528c51818301524260608201526080810194909452805180820182526002860154815260038601548184015260a08501529a8b0151600090815260049094019052989091205460c08201529590921660e08601526101008501939093525061012083019390935261014082015261016081019190915290565b60007f8ee82799d3068521f828767217e880bf7d6bb6ec7d5dbcc3de1e3e4bbb39c9e9826040516020016105bb929190611c06565b6000306001600160a01b037f000000000000000000000000000000000000000000000000000000000000000016148015610b3057507f000000000000000000000000000000000000000000000000000000000000000046145b15610b5a57507f000000000000000000000000000000000000000000000000000000000000000090565b50604080517f00000000000000000000000000000000000000000000000000000000000000006020808301919091527f0000000000000000000000000000000000000000000000000000000000000000828401527f000000000000000000000000000000000000000000000000000000000000000060608301524660808301523060a0808401919091528351808403909101815260c0909201909252805191012090565b6000807f84e508d57dadc535817af594804944c3bc341cdb6befa5a0747e20285912a7eb9050610c3b610c3484604001516100fa565b8451610ed8565b604080850151516001600160a01b031660009081526007840160209081529190205490850151919350908110610c9257836040015184602001518260405163889976c760e01b815260040161038793929190611c2d565b836040015160600151421115610cc6576040808501516060810151915163065a5c3b60e01b81526103879290600401611c4e565b816001015484604001516080015110610cfa578160010154604051632fac17ed60e11b815260040161038791815260200190565b5050919050565b60a0820151610d109082610efc565b610d3157818160405163d8ef221b60e01b8152600401610387929190611c6a565b5050565b600081610d4e6b033b2e3c9fd0803ce800000085611bef565b6106e49190611c99565b60006106e48284611a13565b60006106e48284611cbb565b60006b033b2e3c9fd0803ce8000000610d4e8385611bef565b6040516323b872dd60e01b81526001600160a01b0384811660048301528381166024830152604482018390528516906323b872dd906064016020604051808303816000875af1158015610de0573d6000803e3d6000fd5b505050506040513d601f19601f82011682018060405250810190610e049190611cce565b610e3c576040516362fe41f360e01b81526001600160a01b038086166004830152808516602483015283166044820152606401610387565b50505050565b7f9dcac861a288165fa5a7e007597a30abcd2d73e174280cf7c6967f5a922a443b80546000917f9dcac861a288165fa5a7e007597a30abcd2d73e174280cf7c6967f5a922a4439918390610e95906119fa565b9182905550600081815260078301602090815260409182902086518155908601516001820155908501516002909101559150610ed18483610f25565b5092915050565b6000806000610ee78585610f3f565b91509150610ef481610f84565b509392505050565b6000816020015183602001511480156106e45750505190516001600160a01b0391821691161490565b610d318282604051806020016040528060008152506110d1565b6000808251604103610f755760208301516040840151606085015160001a610f6987828585611104565b94509450505050610f7d565b506000905060025b9250929050565b6000816004811115610f9857610f98611cf0565b03610fa05750565b6001816004811115610fb457610fb4611cf0565b036110015760405162461bcd60e51b815260206004820152601860248201527f45434453413a20696e76616c6964207369676e617475726500000000000000006044820152606401610387565b600281600481111561101557611015611cf0565b036110625760405162461bcd60e51b815260206004820152601f60248201527f45434453413a20696e76616c6964207369676e6174757265206c656e677468006044820152606401610387565b600381600481111561107657611076611cf0565b036110ce5760405162461bcd60e51b815260206004820152602260248201527f45434453413a20696e76616c6964207369676e6174757265202773272076616c604482015261756560f01b6064820152608401610387565b50565b6110db83836111c8565b6110e860008484846112c7565b61027a57604051626b5e2960e61b815260040160405180910390fd5b6000807f7fffffffffffffffffffffffffffffff5d576e7357a4501ddfe92f46681b20a083111561113b57506000905060036111bf565b6040805160008082526020820180845289905260ff881692820192909252606081018690526080810185905260019060a0016020604051602081039080840390855afa15801561118f573d6000803e3d6000fd5b5050604051601f1901519150506001600160a01b0381166111b8576000600192509250506111bf565b9150600090505b94509492505050565b7f9dcac861a288165fa5a7e007597a30abcd2d73e174280cf7c6967f5a922a44396001600160a01b038316611210576040516325bd6bd360e01b815260040160405180910390fd5b60008281527f9dcac861a288165fa5a7e007597a30abcd2d73e174280cf7c6967f5a922a443c60205260409020546001600160a01b0316156112655760405163c5a8d37160e01b815260040160405180910390fd5b6001600160a01b03831660009081526004820160205260408120805460019290611290908490611a13565b90915550506000828152600382016020526040812080546001600160a01b0319166001600160a01b03861617905561027a90848483565b60006001600160a01b0384163b156113bd57604051630a85bd0160e11b81526001600160a01b0385169063150b7a029061130b903390899088908890600401611d06565b6020604051808303816000875af1925050508015611346575060408051601f3d908101601f1916820190925261134391810190611d43565b60015b6113a3573d808015611374576040519150601f19603f3d011682016040523d82523d6000602084013e611379565b606091505b50805160000361139b57604051626b5e2960e61b815260040160405180910390fd5b805181602001fd5b6001600160e01b031916630a85bd0160e11b1490506113c1565b5060015b949350505050565b60405180610180016040528060006001600160a01b031681526020016000815260200160008152602001600081526020016000815260200161141e604051806040016040528060008152602001600081525090565b81526020016000815260200160006001600160a01b03168152602001611460604051806040016040528060006001600160a01b03168152602001600081525090565b815260408051608081018252600080825260208281018290529282018190526060820152910190815260200160008152602001600081525090565b6040518061012001604052806000815260200160006001600160a01b031681526020016000815260200160008152602001600081526020016000815260200160006001600160a01b03168152602001611510604051806040016040528060006001600160a01b03168152602001600081525090565b8152602001600081525090565b6001600160a01b03811681146110ce57600080fd5b60008060008060006080868803121561154a57600080fd5b85356115558161151d565b945060208601356115658161151d565b935060408601359250606086013567ffffffffffffffff8082111561158957600080fd5b818801915088601f83011261159d57600080fd5b8135818111156115ac57600080fd5b8960208285010111156115be57600080fd5b9699959850939650602001949392505050565b634e487b7160e01b600052604160045260246000fd5b6040516060810167ffffffffffffffff8111828210171561160a5761160a6115d1565b60405290565b604051601f8201601f1916810167ffffffffffffffff81118282101715611639576116396115d1565b604052919050565b60006040828403121561165357600080fd5b6040516040810181811067ffffffffffffffff82111715611676576116766115d1565b60405290508082356116878161151d565b8152602092830135920191909152919050565b600060e082840312156116ac57600080fd5b60405160c0810181811067ffffffffffffffff821117156116cf576116cf6115d1565b60405290508082356116e08161151d565b80825250602083013560208201526040830135604082015260608301356060820152608083013560808201526117198460a08501611641565b60a08201525092915050565b600060e0828403121561173757600080fd5b6106e4838361169a565b6000806020838503121561175457600080fd5b823567ffffffffffffffff8082111561176c57600080fd5b818501915085601f83011261178057600080fd5b81358181111561178f57600080fd5b8660208260051b85010111156117a457600080fd5b60209290920196919550909350505050565b600067ffffffffffffffff808411156117d1576117d16115d1565b8360051b60206117e2818301611610565b868152935090840190808401878311156117fb57600080fd5b855b838110156118c9578035858111156118155760008081fd5b8701610120818b0312156118295760008081fd5b6118316115e7565b8135878111156118415760008081fd5b8201601f8082018d136118545760008081fd5b813589811115611866576118666115d1565b611877818301601f19168901611610565b91508082528d8882850101111561188e5760008081fd5b80888401898401376000908201880152825250818501358186015260406118b78c82850161169a565b908201528352509082019082016117fd565b50505050509392505050565b6000602082840312156118e757600080fd5b813567ffffffffffffffff8111156118fe57600080fd5b8201601f8101841361190f57600080fd5b6113c1848235602084016117b6565b634e487b7160e01b600052603260045260246000fd5b60008235605e1983360301811261194a57600080fd5b9190910192915050565b60006020828403121561196657600080fd5b81356106e48161151d565b6000808335601e1984360301811261198857600080fd5b83018035915067ffffffffffffffff8211156119a357600080fd5b6020019150600581901b3603821315610f7d57600080fd5b60006106e43684846117b6565b6000604082840312156119da57600080fd5b6106e48383611641565b634e487b7160e01b600052601160045260246000fd5b600060018201611a0c57611a0c6119e4565b5060010190565b8082018082111561010d5761010d6119e4565b81516001600160a01b0316815261022081016020830151602083015260408301516040830152606083015160608301526080830151608083015260a0830151611a7c60a084018280518252602090810151910152565b5060c083015160e083015260e0830151610100611aa3818501836001600160a01b03169052565b8401519050610120611aca8482018380516001600160a01b03168252602090810151910152565b8401519050610160611b038482018380518252602081015160208301526040810151151560408301526060810151151560608301525050565b6101408501516101e085015280850151610200850152505092915050565b6000815180845260005b81811015611b4757602081850181015186830182015201611b2b565b506000602082860101526020601f19601f83011685010191505092915050565b6020815260006106e46020830184611b21565b60018060a01b0381511682526020810151602083015260408101516040830152606081015160608301526080810151608083015260a081015161027a60a084018280516001600160a01b03168252602090810151910152565b8381526020810183905261012081016113c16040830184611b7a565b808202811582820484141761010d5761010d6119e4565b828152606081016106e4602083018480516001600160a01b03168252602090810151910152565b6101208101611c3c8286611b7a565b60e08201939093526101000152919050565b6101008101611c5d8285611b7a565b8260e08301529392505050565b6101208101611c798285611b7a565b82516001600160a01b031660e083015260208301516101008301526106e4565b600082611cb657634e487b7160e01b600052601260045260246000fd5b500490565b8181038181111561010d5761010d6119e4565b600060208284031215611ce057600080fd5b815180151581146106e457600080fd5b634e487b7160e01b600052602160045260246000fd5b6001600160a01b0385811682528416602082015260408101839052608060608201819052600090611d3990830184611b21565b9695505050505050565b600060208284031215611d5557600080fd5b81516001600160e01b0319811681146106e457600080fdfea264697066735822122005ad47d284f7023b707f4294f3273008c15d5b775aad6f1137d63e929003f77c64736f6c63430008120033",
    "linkReferences": {}
  },
  "methodIdentifiers": {
    "borrow(((address,uint256),(bytes,uint256,(address,uint256,uint256,uint256,uint256,(address,uint256)))[])[])": "b1ce7a6a",
    "offerDigest((address,uint256,uint256,uint256,uint256,(address,uint256)))": "1fbc8a74",
    "onERC721Received(address,address,uint256,bytes)": "150b7a02"
  },
  "id": 47
}