{
  "abi": [
    {
      "inputs": [
        {
          "components": [
            {
              "internalType": "contract IERC20",
              "name": "assetLent",
              "type": "address"
            },
            {
              "internalType": "uint256",
              "name": "lent",
              "type": "uint256"
            },
            {
              "internalType": "Ray",
              "name": "shareLent",
              "type": "uint256"
            },
            {
              "internalType": "uint256",
              "name": "startDate",
              "type": "uint256"
            },
            {
              "internalType": "uint256",
              "name": "endDate",
              "type": "uint256"
            },
            {
              "components": [
                {
                  "internalType": "uint256",
                  "name": "duration",
                  "type": "uint256"
                },
                {
                  "internalType": "Ray",
                  "name": "priceFactor",
                  "type": "uint256"
                }
              ],
              "internalType": "struct Auction",
              "name": "auction",
              "type": "tuple"
            },
            {
              "internalType": "Ray",
              "name": "interestPerSecond",
              "type": "uint256"
            },
            {
              "internalType": "address",
              "name": "borrower",
              "type": "address"
            },
            {
              "components": [
                {
                  "internalType": "contract IERC721",
                  "name": "implem",
                  "type": "address"
                },
                {
                  "internalType": "uint256",
                  "name": "id",
                  "type": "uint256"
                }
              ],
              "internalType": "struct NFToken",
              "name": "collateral",
              "type": "tuple"
            },
            {
              "components": [
                {
                  "internalType": "uint256",
                  "name": "paid",
                  "type": "uint256"
                },
                {
                  "internalType": "uint256",
                  "name": "minInterestsToRepay",
                  "type": "uint256"
                },
                {
                  "internalType": "bool",
                  "name": "liquidated",
                  "type": "bool"
                },
                {
                  "internalType": "bool",
                  "name": "borrowerClaimed",
                  "type": "bool"
                }
              ],
              "internalType": "struct Payment",
              "name": "payment",
              "type": "tuple"
            },
            {
              "internalType": "uint256",
              "name": "supplyPositionIndex",
              "type": "uint256"
            },
            {
              "internalType": "uint256",
              "name": "nbOfPositions",
              "type": "uint256"
            }
          ],
          "internalType": "struct Loan",
          "name": "loan",
          "type": "tuple"
        }
      ],
      "name": "loanParam",
      "outputs": [],
      "stateMutability": "nonpayable",
      "type": "function"
    },
    {
      "inputs": [
        {
          "components": [
            {
              "internalType": "contract IERC721",
              "name": "implem",
              "type": "address"
            },
            {
              "internalType": "uint256",
              "name": "id",
              "type": "uint256"
            }
          ],
          "internalType": "struct NFToken",
          "name": "nft",
          "type": "tuple"
        }
      ],
      "name": "nftParam",
      "outputs": [],
      "stateMutability": "nonpayable",
      "type": "function"
    },
    {
      "inputs": [
        {
          "components": [
            {
              "internalType": "bytes",
              "name": "signature",
              "type": "bytes"
            },
            {
              "internalType": "uint256",
              "name": "amount",
              "type": "uint256"
            },
            {
              "components": [
                {
                  "internalType": "contract IERC20",
                  "name": "assetToLend",
                  "type": "address"
                },
                {
                  "internalType": "uint256",
                  "name": "loanToValue",
                  "type": "uint256"
                },
                {
                  "internalType": "uint256",
                  "name": "duration",
                  "type": "uint256"
                },
                {
                  "internalType": "uint256",
                  "name": "expirationDate",
                  "type": "uint256"
                },
                {
                  "internalType": "uint256",
                  "name": "tranche",
                  "type": "uint256"
                },
                {
                  "components": [
                    {
                      "internalType": "contract IERC721",
                      "name": "implem",
                      "type": "address"
                    },
                    {
                      "internalType": "uint256",
                      "name": "id",
                      "type": "uint256"
                    }
                  ],
                  "internalType": "struct NFToken",
                  "name": "collateral",
                  "type": "tuple"
                }
              ],
              "internalType": "struct Offer",
              "name": "offer",
              "type": "tuple"
            }
          ],
          "internalType": "struct OfferArg[]",
          "name": "args",
          "type": "tuple[]"
        }
      ],
      "name": "offerArgArrParam",
      "outputs": [],
      "stateMutability": "nonpayable",
      "type": "function"
    },
    {
      "inputs": [
        {
          "components": [
            {
              "internalType": "contract IERC20",
              "name": "assetToLend",
              "type": "address"
            },
            {
              "internalType": "uint256",
              "name": "loanToValue",
              "type": "uint256"
            },
            {
              "internalType": "uint256",
              "name": "duration",
              "type": "uint256"
            },
            {
              "internalType": "uint256",
              "name": "expirationDate",
              "type": "uint256"
            },
            {
              "internalType": "uint256",
              "name": "tranche",
              "type": "uint256"
            },
            {
              "components": [
                {
                  "internalType": "contract IERC721",
                  "name": "implem",
                  "type": "address"
                },
                {
                  "internalType": "uint256",
                  "name": "id",
                  "type": "uint256"
                }
              ],
              "internalType": "struct NFToken",
              "name": "collateral",
              "type": "tuple"
            }
          ],
          "internalType": "struct Offer",
          "name": "offer",
          "type": "tuple"
        }
      ],
      "name": "offerParam",
      "outputs": [],
      "stateMutability": "nonpayable",
      "type": "function"
    }
  ],
  "bytecode": {
    "object": "0x608060405234801561001057600080fd5b50610580806100206000396000f3fe608060405234801561001057600080fd5b506004361061004c5760003560e01c80635ca5c283146100515780636b568a1214610064578063a88006e214610072578063e560fdb914610080575b600080fd5b61006261005f366004610230565b50565b005b61006261005f366004610253565b61006261005f3660046103b5565b61006261005f366004610485565b634e487b7160e01b600052604160045260246000fd5b6040805190810167ffffffffffffffff811182821017156100c7576100c761008e565b60405290565b6040516060810167ffffffffffffffff811182821017156100c7576100c761008e565b604051610180810167ffffffffffffffff811182821017156100c7576100c761008e565b604051601f8201601f1916810167ffffffffffffffff8111828210171561013d5761013d61008e565b604052919050565b6001600160a01b038116811461005f57600080fd5b803561016581610145565b919050565b60006040828403121561017c57600080fd5b6101846100a4565b9050813561019181610145565b808252506020820135602082015292915050565b600060e082840312156101b757600080fd5b60405160c0810181811067ffffffffffffffff821117156101da576101da61008e565b60405290508082356101eb81610145565b80825250602083013560208201526040830135604082015260608301356060820152608083013560808201526102248460a0850161016a565b60a08201525092915050565b600060e0828403121561024257600080fd5b61024c83836101a5565b9392505050565b6000602080838503121561026657600080fd5b823567ffffffffffffffff8082111561027e57600080fd5b818501915085601f83011261029257600080fd5b8135818111156102a4576102a461008e565b8060051b6102b3858201610114565b91825283810185019185810190898411156102cd57600080fd5b86860192505b838310156103a8578235858111156102ea57600080fd5b8601601f19610120828d038201121561030257600080fd5b61030a6100cd565b898301358881111561031b57600080fd5b8301603f81018e1361032c57600080fd5b8a810135898111156103405761034061008e565b6103508c85601f84011601610114565b93508084528e604082840101111561036757600080fd5b80604083018d86013760009084018c0152508181526040830135818b01526103928d606085016101a5565b60408201528452505091860191908601906102d3565b9998505050505050505050565b6000604082840312156103c757600080fd5b61024c838361016a565b6000604082840312156103e357600080fd5b6103eb6100a4565b9050813581526020820135602082015292915050565b8035801515811461016557600080fd5b60006080828403121561042357600080fd5b6040516080810181811067ffffffffffffffff821117156104465761044661008e565b8060405250809150823581526020830135602082015261046860408401610401565b604082015261047960608401610401565b60608201525092915050565b6000610220828403121561049857600080fd5b6104a06100f0565b6104a98361015a565b8152602083013560208201526040830135604082015260608301356060820152608083013560808201526104e08460a085016103d1565b60a082015260e083013560c08201526101006104fd81850161015a565b60e08301526101206105118682870161016a565b82840152610160915061052686838701610411565b908301526101e084013561014083015261020090930135928101929092525091905056fea2646970667358221220860ad463a8f9e3cffe97a84880bbaf06f3ecc0dcb006552eaa276aad5b7bb7dd64736f6c63430008120033",
    "linkReferences": {}
  },
  "methodIdentifiers": {
    "loanParam((address,uint256,uint256,uint256,uint256,(uint256,uint256),uint256,address,(address,uint256),(uint256,uint256,bool,bool),uint256,uint256))": "e560fdb9",
    "nftParam((address,uint256))": "a88006e2",
    "offerArgArrParam((bytes,uint256,(address,uint256,uint256,uint256,uint256,(address,uint256)))[])": "6b568a12",
    "offerParam((address,uint256,uint256,uint256,uint256,(address,uint256)))": "5ca5c283"
  },
  "id": 80
}