{
  "abi": [
    {
      "inputs": [],
      "name": "ERC721AddressZeroIsNotAValidOwner",
      "type": "error"
    },
    {
      "inputs": [],
      "name": "ERC721ApprovalToCurrentOwner",
      "type": "error"
    },
    {
      "inputs": [],
      "name": "ERC721ApproveToCaller",
      "type": "error"
    },
    {
      "inputs": [],
      "name": "ERC721CallerIsNotOwnerNorApproved",
      "type": "error"
    },
    {
      "inputs": [],
      "name": "ERC721CallerIsNotOwnerNorApprovedForAll",
      "type": "error"
    },
    {
      "inputs": [],
      "name": "ERC721InvalidTokenId",
      "type": "error"
    },
    {
      "inputs": [],
      "name": "ERC721MintToTheZeroAddress",
      "type": "error"
    },
    {
      "inputs": [],
      "name": "ERC721TokenAlreadyMinted",
      "type": "error"
    },
    {
      "inputs": [],
      "name": "ERC721TransferFromIncorrectOwner",
      "type": "error"
    },
    {
      "inputs": [],
      "name": "ERC721TransferToNonERC721ReceiverImplementer",
      "type": "error"
    },
    {
      "inputs": [],
      "name": "ERC721TransferToTheZeroAddress",
      "type": "error"
    },
    {
      "inputs": [],
      "name": "Unauthorized",
      "type": "error"
    },
    {
      "anonymous": false,
      "inputs": [
        {
          "indexed": true,
          "internalType": "address",
          "name": "owner",
          "type": "address"
        },
        {
          "indexed": true,
          "internalType": "address",
          "name": "approved",
          "type": "address"
        },
        {
          "indexed": true,
          "internalType": "uint256",
          "name": "tokenId",
          "type": "uint256"
        }
      ],
      "name": "Approval",
      "type": "event"
    },
    {
      "anonymous": false,
      "inputs": [
        {
          "indexed": true,
          "internalType": "address",
          "name": "owner",
          "type": "address"
        },
        {
          "indexed": true,
          "internalType": "address",
          "name": "operator",
          "type": "address"
        },
        {
          "indexed": false,
          "internalType": "bool",
          "name": "approved",
          "type": "bool"
        }
      ],
      "name": "ApprovalForAll",
      "type": "event"
    },
    {
      "anonymous": false,
      "inputs": [
        {
          "indexed": true,
          "internalType": "address",
          "name": "from",
          "type": "address"
        },
        {
          "indexed": true,
          "internalType": "address",
          "name": "to",
          "type": "address"
        },
        {
          "indexed": true,
          "internalType": "uint256",
          "name": "tokenId",
          "type": "uint256"
        }
      ],
      "name": "Transfer",
      "type": "event"
    },
    {
      "inputs": [
        {
          "internalType": "address",
          "name": "to",
          "type": "address"
        },
        {
          "internalType": "uint256",
          "name": "tokenId",
          "type": "uint256"
        }
      ],
      "name": "approve",
      "outputs": [],
      "stateMutability": "nonpayable",
      "type": "function"
    },
    {
      "inputs": [
        {
          "internalType": "address",
          "name": "owner",
          "type": "address"
        }
      ],
      "name": "balanceOf",
      "outputs": [
        {
          "internalType": "uint256",
          "name": "",
          "type": "uint256"
        }
      ],
      "stateMutability": "view",
      "type": "function"
    },
    {
      "inputs": [
        {
          "internalType": "uint256",
          "name": "tokenId",
          "type": "uint256"
        }
      ],
      "name": "burn",
      "outputs": [],
      "stateMutability": "nonpayable",
      "type": "function"
    },
    {
      "inputs": [
        {
          "internalType": "uint256",
          "name": "tokenId",
          "type": "uint256"
        }
      ],
      "name": "getApproved",
      "outputs": [
        {
          "internalType": "address",
          "name": "",
          "type": "address"
        }
      ],
      "stateMutability": "view",
      "type": "function"
    },
    {
      "inputs": [
        {
          "internalType": "address",
          "name": "owner",
          "type": "address"
        },
        {
          "internalType": "address",
          "name": "operator",
          "type": "address"
        }
      ],
      "name": "isApprovedForAll",
      "outputs": [
        {
          "internalType": "bool",
          "name": "",
          "type": "bool"
        }
      ],
      "stateMutability": "view",
      "type": "function"
    },
    {
      "inputs": [
        {
          "internalType": "address",
          "name": "to",
          "type": "address"
        },
        {
          "internalType": "uint256",
          "name": "tokenId",
          "type": "uint256"
        }
      ],
      "name": "mint",
      "outputs": [],
      "stateMutability": "nonpayable",
      "type": "function"
    },
    {
      "inputs": [],
      "name": "name",
      "outputs": [
        {
          "internalType": "string",
          "name": "",
          "type": "string"
        }
      ],
      "stateMutability": "view",
      "type": "function"
    },
    {
      "inputs": [
        {
          "internalType": "uint256",
          "name": "tokenId",
          "type": "uint256"
        }
      ],
      "name": "ownerOf",
      "outputs": [
        {
          "internalType": "address",
          "name": "",
          "type": "address"
        }
      ],
      "stateMutability": "view",
      "type": "function"
    },
    {
      "inputs": [
        {
          "internalType": "address",
          "name": "to",
          "type": "address"
        },
        {
          "internalType": "uint256",
          "name": "tokenId",
          "type": "uint256"
        },
        {
          "internalType": "bytes",
          "name": "data",
          "type": "bytes"
        }
      ],
      "name": "safeMint",
      "outputs": [],
      "stateMutability": "nonpayable",
      "type": "function"
    },
    {
      "inputs": [
        {
          "internalType": "address",
          "name": "to",
          "type": "address"
        },
        {
          "internalType": "uint256",
          "name": "tokenId",
          "type": "uint256"
        }
      ],
      "name": "safeMint",
      "outputs": [],
      "stateMutability": "nonpayable",
      "type": "function"
    },
    {
      "inputs": [
        {
          "internalType": "address",
          "name": "from",
          "type": "address"
        },
        {
          "internalType": "address",
          "name": "to",
          "type": "address"
        },
        {
          "internalType": "uint256",
          "name": "tokenId",
          "type": "uint256"
        }
      ],
      "name": "safeTransferFrom",
      "outputs": [],
      "stateMutability": "nonpayable",
      "type": "function"
    },
    {
      "inputs": [
        {
          "internalType": "address",
          "name": "from",
          "type": "address"
        },
        {
          "internalType": "address",
          "name": "to",
          "type": "address"
        },
        {
          "internalType": "uint256",
          "name": "tokenId",
          "type": "uint256"
        },
        {
          "internalType": "bytes",
          "name": "data",
          "type": "bytes"
        }
      ],
      "name": "safeTransferFrom",
      "outputs": [],
      "stateMutability": "nonpayable",
      "type": "function"
    },
    {
      "inputs": [
        {
          "internalType": "address",
          "name": "operator",
          "type": "address"
        },
        {
          "internalType": "bool",
          "name": "approved",
          "type": "bool"
        }
      ],
      "name": "setApprovalForAll",
      "outputs": [],
      "stateMutability": "nonpayable",
      "type": "function"
    },
    {
      "inputs": [
        {
          "internalType": "bytes4",
          "name": "interfaceId",
          "type": "bytes4"
        }
      ],
      "name": "supportsInterface",
      "outputs": [
        {
          "internalType": "bool",
          "name": "",
          "type": "bool"
        }
      ],
      "stateMutability": "view",
      "type": "function"
    },
    {
      "inputs": [],
      "name": "symbol",
      "outputs": [
        {
          "internalType": "string",
          "name": "",
          "type": "string"
        }
      ],
      "stateMutability": "view",
      "type": "function"
    },
    {
      "inputs": [
        {
          "internalType": "address",
          "name": "from",
          "type": "address"
        },
        {
          "internalType": "address",
          "name": "to",
          "type": "address"
        },
        {
          "internalType": "uint256",
          "name": "tokenId",
          "type": "uint256"
        }
      ],
      "name": "transferFrom",
      "outputs": [],
      "stateMutability": "nonpayable",
      "type": "function"
    }
  ],
  "bytecode": {
    "object": "0x608060405234801561001057600080fd5b5061109d806100206000396000f3fe608060405234801561001057600080fd5b50600436106101005760003560e01c80636352211e11610097578063a144819411610066578063a14481941461021e578063a22cb46514610231578063b88d4fde14610244578063e985e9c51461025757600080fd5b80636352211e146101cf57806370a08231146101e25780638832e6e31461020357806395d89b411461021657600080fd5b806323b872dd116100d357806323b872dd1461018357806340c10f191461019657806342842e0e146101a957806342966c68146101bc57600080fd5b806301ffc9a71461010557806306fdde031461012e578063081812fc14610143578063095ea7b31461016e575b600080fd5b610119610113366004610c7a565b50600090565b60405190151581526020015b60405180910390f35b61013661026a565b6040516101259190610cdd565b610156610151366004610cf0565b61030e565b6040516001600160a01b039091168152602001610125565b61018161017c366004610d25565b61031f565b005b610181610191366004610d4f565b6103ab565b6101816101a4366004610d25565b6103dd565b6101816101b7366004610d4f565b6103eb565b6101816101ca366004610cf0565b610406565b6101566101dd366004610cf0565b610412565b6101f56101f0366004610d8b565b61041d565b604051908152602001610125565b610181610211366004610e49565b610476565b610136610481565b61018161022c366004610d25565b6104c0565b61018161023f366004610ea0565b6104ca565b610181610252366004610edc565b6104d5565b610119610265366004610f44565b61050e565b600080516020611048833981519152805460609190819061028a90610f77565b80601f01602080910402602001604051908101604052809291908181526020018280546102b690610f77565b80156103035780601f106102d857610100808354040283529160200191610303565b820191906000526020600020905b8154815290600101906020018083116102e657829003601f168201915b505050505091505090565b600061031982610521565b92915050565b600061032a82610412565b9050806001600160a01b0316836001600160a01b03160361035e57604051630591db6d60e01b815260040160405180910390fd5b336001600160a01b0382161480159061037e575061037c813361050e565b155b1561039c5760405163e495e68760e01b815260040160405180910390fd5b6103a68383610584565b505050565b6103b533826105ec565b6103d257604051636eb172ad60e11b815260040160405180910390fd5b6103a683838361064b565b6103e7828261075a565b5050565b6103a6838383604051806020016040528060008152506104d5565b61040f8161081b565b50565b60006103198261089c565b60006000805160206110488339815191526001600160a01b03831661045557604051630b505c1d60e11b815260040160405180910390fd5b6001600160a01b039092166000908152600490920160205250604090205490565b6103a6838383610901565b7f9dcac861a288165fa5a7e007597a30abcd2d73e174280cf7c6967f5a922a443a80546060916000805160206110488339815191529161028a90610f77565b6103e78282610934565b6103e733838361094e565b6104df33836105ec565b6104fc57604051636eb172ad60e11b815260040160405180910390fd5b610508848484846109c7565b50505050565b600061051a83836109fa565b9392505050565b600061052c82610a47565b6105495760405163089ba7e160e41b815260040160405180910390fd5b5060009081527f9dcac861a288165fa5a7e007597a30abcd2d73e174280cf7c6967f5a922a443e60205260409020546001600160a01b031690565b60008181527f9dcac861a288165fa5a7e007597a30abcd2d73e174280cf7c6967f5a922a443e6020526040902080546001600160a01b0319166001600160a01b0384161790556000805160206110488339815191526103a66105e58361089c565b8484610a83565b6000806105f88361089c565b9050806001600160a01b0316846001600160a01b0316148061061f575061061f81856109fa565b806106435750836001600160a01b031661063884610521565b6001600160a01b0316145b949350505050565b6000805160206110488339815191526001600160a01b03841661066d8361089c565b6001600160a01b0316146106945760405163e146af6f60e01b815260040160405180910390fd5b6001600160a01b0383166106bb576040516338f646ff60e21b815260040160405180910390fd5b6106c6600083610584565b6001600160a01b038416600090815260048201602052604081208054600192906106f1908490610fc7565b90915550506001600160a01b03831660009081526004820160205260408120805460019290610721908490610fda565b90915550506000828152600382016020526040902080546001600160a01b0319166001600160a01b038516179055610508848484610ac9565b6000805160206110488339815191526001600160a01b038316610790576040516325bd6bd360e01b815260040160405180910390fd5b61079982610a47565b156107b75760405163c5a8d37160e01b815260040160405180910390fd5b6001600160a01b038316600090815260048201602052604081208054600192906107e2908490610fda565b90915550506000828152600382016020526040812080546001600160a01b0319166001600160a01b0386161790556103a6908484610ac9565b60008051602061104883398151915260006108358361089c565b9050610842600084610584565b6001600160a01b0381166000908152600483016020526040812080546001929061086d908490610fc7565b90915550506000838152600383016020526040812080546001600160a01b03191690556103a690829085610ac9565b60008181527f9dcac861a288165fa5a7e007597a30abcd2d73e174280cf7c6967f5a922a443c6020526040812054600080516020611048833981519152906001600160a01b03168061051a5760405163089ba7e160e41b815260040160405180910390fd5b61090b838361075a565b6109186000848484610b0f565b6103a657604051626b5e2960e61b815260040160405180910390fd5b6103e7828260405180602001604052806000815250610901565b6000805160206110488339815191526001600160a01b038084169085160361098957604051630b7b99b960e21b815260040160405180910390fd5b6001600160a01b0384811660009081526006830160209081526040808320938716835292905220805460ff1916831515179055610508848484610c10565b6109d284848461064b565b6109de84848484610b0f565b61050857604051626b5e2960e61b815260040160405180910390fd5b6001600160a01b0391821660009081527f9dcac861a288165fa5a7e007597a30abcd2d73e174280cf7c6967f5a922a443f6020908152604080832093909416825291909152205460ff1690565b60009081527f9dcac861a288165fa5a7e007597a30abcd2d73e174280cf7c6967f5a922a443c60205260409020546001600160a01b0316151590565b80826001600160a01b0316846001600160a01b03167f8c5be1e5ebec7d5bd14f71427d1e84f3dd0314c0f7b2291e5b200ac8c7c3b92560405160405180910390a4505050565b80826001600160a01b0316846001600160a01b03167fddf252ad1be2c89b69c2b068fc378daa952ba7f163c4a11628f55a4df523b3ef60405160405180910390a4505050565b60006001600160a01b0384163b15610c0557604051630a85bd0160e11b81526001600160a01b0385169063150b7a0290610b53903390899088908890600401610fed565b6020604051808303816000875af1925050508015610b8e575060408051601f3d908101601f19168201909252610b8b9181019061102a565b60015b610beb573d808015610bbc576040519150601f19603f3d011682016040523d82523d6000602084013e610bc1565b606091505b508051600003610be357604051626b5e2960e61b815260040160405180910390fd5b805181602001fd5b6001600160e01b031916630a85bd0160e11b149050610643565b506001949350505050565b816001600160a01b0316836001600160a01b03167f17307eab39ab6107e8899845ad3d59bd9653f200f220920489ca2b5937696c3183604051610c57911515815260200190565b60405180910390a3505050565b6001600160e01b03198116811461040f57600080fd5b600060208284031215610c8c57600080fd5b813561051a81610c64565b6000815180845260005b81811015610cbd57602081850181015186830182015201610ca1565b506000602082860101526020601f19601f83011685010191505092915050565b60208152600061051a6020830184610c97565b600060208284031215610d0257600080fd5b5035919050565b80356001600160a01b0381168114610d2057600080fd5b919050565b60008060408385031215610d3857600080fd5b610d4183610d09565b946020939093013593505050565b600080600060608486031215610d6457600080fd5b610d6d84610d09565b9250610d7b60208501610d09565b9150604084013590509250925092565b600060208284031215610d9d57600080fd5b61051a82610d09565b634e487b7160e01b600052604160045260246000fd5b600082601f830112610dcd57600080fd5b813567ffffffffffffffff80821115610de857610de8610da6565b604051601f8301601f19908116603f01168101908282118183101715610e1057610e10610da6565b81604052838152866020858801011115610e2957600080fd5b836020870160208301376000602085830101528094505050505092915050565b600080600060608486031215610e5e57600080fd5b610e6784610d09565b925060208401359150604084013567ffffffffffffffff811115610e8a57600080fd5b610e9686828701610dbc565b9150509250925092565b60008060408385031215610eb357600080fd5b610ebc83610d09565b915060208301358015158114610ed157600080fd5b809150509250929050565b60008060008060808587031215610ef257600080fd5b610efb85610d09565b9350610f0960208601610d09565b925060408501359150606085013567ffffffffffffffff811115610f2c57600080fd5b610f3887828801610dbc565b91505092959194509250565b60008060408385031215610f5757600080fd5b610f6083610d09565b9150610f6e60208401610d09565b90509250929050565b600181811c90821680610f8b57607f821691505b602082108103610fab57634e487b7160e01b600052602260045260246000fd5b50919050565b634e487b7160e01b600052601160045260246000fd5b8181038181111561031957610319610fb1565b8082018082111561031957610319610fb1565b6001600160a01b038581168252841660208201526040810183905260806060820181905260009061102090830184610c97565b9695505050505050565b60006020828403121561103c57600080fd5b815161051a81610c6456fe9dcac861a288165fa5a7e007597a30abcd2d73e174280cf7c6967f5a922a4439a2646970667358221220edfb641edd96a18d8458d1c2982a824214cd1bb9fd5e7b4bdaed0ad87c1a8dce64736f6c63430008120033",
    "linkReferences": {}
  },
  "methodIdentifiers": {
    "approve(address,uint256)": "095ea7b3",
    "balanceOf(address)": "70a08231",
    "burn(uint256)": "42966c68",
    "getApproved(uint256)": "081812fc",
    "isApprovedForAll(address,address)": "e985e9c5",
    "mint(address,uint256)": "40c10f19",
    "name()": "06fdde03",
    "ownerOf(uint256)": "6352211e",
    "safeMint(address,uint256)": "a1448194",
    "safeMint(address,uint256,bytes)": "8832e6e3",
    "safeTransferFrom(address,address,uint256)": "42842e0e",
    "safeTransferFrom(address,address,uint256,bytes)": "b88d4fde",
    "setApprovalForAll(address,bool)": "a22cb465",
    "supportsInterface(bytes4)": "01ffc9a7",
    "symbol()": "95d89b41",
    "transferFrom(address,address,uint256)": "23b872dd"
  },
  "id": 106
}