{
  "abi": [
    {
      "inputs": [
        {
          "components": [
            {
              "internalType": "contract IERC20",
              "name": "assetToLend",
              "type": "address"
            },
            {
              "internalType": "uint256",
              "name": "loanToValue",
              "type": "uint256"
            },
            {
              "internalType": "uint256",
              "name": "duration",
              "type": "uint256"
            },
            {
              "internalType": "uint256",
              "name": "expirationDate",
              "type": "uint256"
            },
            {
              "internalType": "uint256",
              "name": "tranche",
              "type": "uint256"
            },
            {
              "components": [
                {
                  "internalType": "contract IERC721",
                  "name": "implem",
                  "type": "address"
                },
                {
                  "internalType": "uint256",
                  "name": "id",
                  "type": "uint256"
                }
              ],
              "internalType": "struct NFToken",
              "name": "collateral",
              "type": "tuple"
            }
          ],
          "internalType": "struct Offer",
          "name": "offer",
          "type": "tuple"
        },
        {
          "components": [
            {
              "internalType": "contract IERC721",
              "name": "implem",
              "type": "address"
            },
            {
              "internalType": "uint256",
              "name": "id",
              "type": "uint256"
            }
          ],
          "internalType": "struct NFToken",
          "name": "providedNft",
          "type": "tuple"
        }
      ],
      "name": "BadCollateral",
      "type": "error"
    },
    {
      "inputs": [
        {
          "internalType": "uint256",
          "name": "loanId",
          "type": "uint256"
        }
      ],
      "name": "BorrowerAlreadyClaimed",
      "type": "error"
    },
    {
      "inputs": [
        {
          "internalType": "address",
          "name": "admin",
          "type": "address"
        }
      ],
      "name": "CallerIsNotOwner",
      "type": "error"
    },
    {
      "inputs": [
        {
          "internalType": "uint256",
          "name": "endDate",
          "type": "uint256"
        },
        {
          "internalType": "uint256",
          "name": "loanId",
          "type": "uint256"
        }
      ],
      "name": "CollateralIsNotLiquidableYet",
      "type": "error"
    },
    {
      "inputs": [
        {
          "internalType": "contract IERC20",
          "name": "token",
          "type": "address"
        },
        {
          "internalType": "address",
          "name": "from",
          "type": "address"
        },
        {
          "internalType": "address",
          "name": "to",
          "type": "address"
        }
      ],
      "name": "ERC20TransferFailed",
      "type": "error"
    },
    {
      "inputs": [],
      "name": "ERC721AddressZeroIsNotAValidOwner",
      "type": "error"
    },
    {
      "inputs": [],
      "name": "ERC721ApprovalToCurrentOwner",
      "type": "error"
    },
    {
      "inputs": [],
      "name": "ERC721ApproveToCaller",
      "type": "error"
    },
    {
      "inputs": [],
      "name": "ERC721CallerIsNotOwnerNorApproved",
      "type": "error"
    },
    {
      "inputs": [],
      "name": "ERC721CallerIsNotOwnerNorApprovedForAll",
      "type": "error"
    },
    {
      "inputs": [],
      "name": "ERC721InvalidTokenId",
      "type": "error"
    },
    {
      "inputs": [],
      "name": "ERC721MintToTheZeroAddress",
      "type": "error"
    },
    {
      "inputs": [],
      "name": "ERC721TokenAlreadyMinted",
      "type": "error"
    },
    {
      "inputs": [],
      "name": "ERC721TransferFromIncorrectOwner",
      "type": "error"
    },
    {
      "inputs": [],
      "name": "ERC721TransferToNonERC721ReceiverImplementer",
      "type": "error"
    },
    {
      "inputs": [],
      "name": "ERC721TransferToTheZeroAddress",
      "type": "error"
    },
    {
      "inputs": [
        {
          "internalType": "contract IERC20",
          "name": "firstRequested",
          "type": "address"
        },
        {
          "internalType": "contract IERC20",
          "name": "requested",
          "type": "address"
        }
      ],
      "name": "InconsistentAssetRequests",
      "type": "error"
    },
    {
      "inputs": [
        {
          "internalType": "uint256",
          "name": "firstTrancheIdUsed",
          "type": "uint256"
        },
        {
          "internalType": "uint256",
          "name": "trancheIdFound",
          "type": "uint256"
        }
      ],
      "name": "InconsistentTranches",
      "type": "error"
    },
    {
      "inputs": [
        {
          "internalType": "uint256",
          "name": "nbOfTranches",
          "type": "uint256"
        }
      ],
      "name": "InvalidTranche",
      "type": "error"
    },
    {
      "inputs": [
        {
          "internalType": "uint256",
          "name": "loanId",
          "type": "uint256"
        }
      ],
      "name": "LoanAlreadyRepaid",
      "type": "error"
    },
    {
      "inputs": [
        {
          "internalType": "uint256",
          "name": "loanId",
          "type": "uint256"
        }
      ],
      "name": "LoanNotRepaidOrLiquidatedYet",
      "type": "error"
    },
    {
      "inputs": [
        {
          "internalType": "uint256",
          "name": "loanId",
          "type": "uint256"
        }
      ],
      "name": "NotBorrowerOfTheLoan",
      "type": "error"
    },
    {
      "inputs": [
        {
          "components": [
            {
              "internalType": "contract IERC20",
              "name": "assetToLend",
              "type": "address"
            },
            {
              "internalType": "uint256",
              "name": "loanToValue",
              "type": "uint256"
            },
            {
              "internalType": "uint256",
              "name": "duration",
              "type": "uint256"
            },
            {
              "internalType": "uint256",
              "name": "expirationDate",
              "type": "uint256"
            },
            {
              "internalType": "uint256",
              "name": "tranche",
              "type": "uint256"
            },
            {
              "components": [
                {
                  "internalType": "contract IERC721",
                  "name": "implem",
                  "type": "address"
                },
                {
                  "internalType": "uint256",
                  "name": "id",
                  "type": "uint256"
                }
              ],
              "internalType": "struct NFToken",
              "name": "collateral",
              "type": "tuple"
            }
          ],
          "internalType": "struct Offer",
          "name": "offer",
          "type": "tuple"
        },
        {
          "internalType": "uint256",
          "name": "expirationDate",
          "type": "uint256"
        }
      ],
      "name": "OfferHasExpired",
      "type": "error"
    },
    {
      "inputs": [
        {
          "components": [
            {
              "internalType": "contract IERC20",
              "name": "assetToLend",
              "type": "address"
            },
            {
              "internalType": "uint256",
              "name": "loanToValue",
              "type": "uint256"
            },
            {
              "internalType": "uint256",
              "name": "duration",
              "type": "uint256"
            },
            {
              "internalType": "uint256",
              "name": "expirationDate",
              "type": "uint256"
            },
            {
              "internalType": "uint256",
              "name": "tranche",
              "type": "uint256"
            },
            {
              "components": [
                {
                  "internalType": "contract IERC721",
                  "name": "implem",
                  "type": "address"
                },
                {
                  "internalType": "uint256",
                  "name": "id",
                  "type": "uint256"
                }
              ],
              "internalType": "struct NFToken",
              "name": "collateral",
              "type": "tuple"
            }
          ],
          "internalType": "struct Offer",
          "name": "offer",
          "type": "tuple"
        },
        {
          "internalType": "uint256",
          "name": "requested",
          "type": "uint256"
        },
        {
          "internalType": "uint256",
          "name": "lowerBound",
          "type": "uint256"
        }
      ],
      "name": "RequestedAmountIsUnderMinimum",
      "type": "error"
    },
    {
      "inputs": [
        {
          "internalType": "uint256",
          "name": "requested",
          "type": "uint256"
        },
        {
          "internalType": "uint256",
          "name": "offered",
          "type": "uint256"
        },
        {
          "components": [
            {
              "internalType": "contract IERC20",
              "name": "assetToLend",
              "type": "address"
            },
            {
              "internalType": "uint256",
              "name": "loanToValue",
              "type": "uint256"
            },
            {
              "internalType": "uint256",
              "name": "duration",
              "type": "uint256"
            },
            {
              "internalType": "uint256",
              "name": "expirationDate",
              "type": "uint256"
            },
            {
              "internalType": "uint256",
              "name": "tranche",
              "type": "uint256"
            },
            {
              "components": [
                {
                  "internalType": "contract IERC721",
                  "name": "implem",
                  "type": "address"
                },
                {
                  "internalType": "uint256",
                  "name": "id",
                  "type": "uint256"
                }
              ],
              "internalType": "struct NFToken",
              "name": "collateral",
              "type": "tuple"
            }
          ],
          "internalType": "struct Offer",
          "name": "offer",
          "type": "tuple"
        }
      ],
      "name": "RequestedAmountTooHigh",
      "type": "error"
    },
    {
      "inputs": [],
      "name": "Unauthorized",
      "type": "error"
    },
    {
      "inputs": [
        {
          "internalType": "uint256",
          "name": "lent",
          "type": "uint256"
        }
      ],
      "name": "UnsafeAmountLent",
      "type": "error"
    },
    {
      "inputs": [
        {
          "internalType": "uint256",
          "name": "minLoanToValue",
          "type": "uint256"
        },
        {
          "internalType": "uint256",
          "name": "maxLoanToValue",
          "type": "uint256"
        }
      ],
      "name": "UnsafeOfferLoanToValuesGap",
      "type": "error"
    },
    {
      "anonymous": false,
      "inputs": [
        {
          "indexed": true,
          "internalType": "address",
          "name": "owner",
          "type": "address"
        },
        {
          "indexed": true,
          "internalType": "address",
          "name": "approved",
          "type": "address"
        },
        {
          "indexed": true,
          "internalType": "uint256",
          "name": "tokenId",
          "type": "uint256"
        }
      ],
      "name": "Approval",
      "type": "event"
    },
    {
      "anonymous": false,
      "inputs": [
        {
          "indexed": true,
          "internalType": "address",
          "name": "owner",
          "type": "address"
        },
        {
          "indexed": true,
          "internalType": "address",
          "name": "operator",
          "type": "address"
        },
        {
          "indexed": false,
          "internalType": "bool",
          "name": "approved",
          "type": "bool"
        }
      ],
      "name": "ApprovalForAll",
      "type": "event"
    },
    {
      "anonymous": false,
      "inputs": [
        {
          "indexed": true,
          "internalType": "uint256",
          "name": "loanId",
          "type": "uint256"
        },
        {
          "indexed": false,
          "internalType": "bytes",
          "name": "loan",
          "type": "bytes"
        }
      ],
      "name": "Borrow",
      "type": "event"
    },
    {
      "anonymous": false,
      "inputs": [
        {
          "indexed": true,
          "internalType": "uint256",
          "name": "loanId",
          "type": "uint256"
        },
        {
          "indexed": false,
          "internalType": "bytes",
          "name": "args",
          "type": "bytes"
        }
      ],
      "name": "Buy",
      "type": "event"
    },
    {
      "anonymous": false,
      "inputs": [
        {
          "indexed": true,
          "internalType": "address",
          "name": "claimant",
          "type": "address"
        },
        {
          "indexed": true,
          "internalType": "uint256",
          "name": "claimed",
          "type": "uint256"
        },
        {
          "indexed": true,
          "internalType": "uint256",
          "name": "loanId",
          "type": "uint256"
        }
      ],
      "name": "Claim",
      "type": "event"
    },
    {
      "anonymous": false,
      "inputs": [
        {
          "indexed": true,
          "internalType": "uint256",
          "name": "newAuctionDuration",
          "type": "uint256"
        }
      ],
      "name": "NewAuctionDuration",
      "type": "event"
    },
    {
      "anonymous": false,
      "inputs": [
        {
          "indexed": true,
          "internalType": "Ray",
          "name": "newAuctionPriceFactor",
          "type": "uint256"
        }
      ],
      "name": "NewAuctionPriceFactor",
      "type": "event"
    },
    {
      "anonymous": false,
      "inputs": [
        {
          "indexed": true,
          "internalType": "contract IERC20",
          "name": "currency",
          "type": "address"
        },
        {
          "indexed": true,
          "internalType": "uint256",
          "name": "newLowerBound",
          "type": "uint256"
        }
      ],
      "name": "NewBorrowAmountPerOfferLowerBound",
      "type": "event"
    },
    {
      "anonymous": false,
      "inputs": [
        {
          "indexed": true,
          "internalType": "contract IERC20",
          "name": "currency",
          "type": "address"
        },
        {
          "indexed": true,
          "internalType": "uint256",
          "name": "newMinOfferCost",
          "type": "uint256"
        }
      ],
      "name": "NewMininimumOfferCost",
      "type": "event"
    },
    {
      "anonymous": false,
      "inputs": [
        {
          "indexed": true,
          "internalType": "Ray",
          "name": "tranche",
          "type": "uint256"
        },
        {
          "indexed": true,
          "internalType": "uint256",
          "name": "newTrancheId",
          "type": "uint256"
        }
      ],
      "name": "NewTranche",
      "type": "event"
    },
    {
      "anonymous": false,
      "inputs": [
        {
          "indexed": true,
          "internalType": "uint256",
          "name": "loanId",
          "type": "uint256"
        }
      ],
      "name": "Repay",
      "type": "event"
    },
    {
      "anonymous": false,
      "inputs": [
        {
          "indexed": true,
          "internalType": "address",
          "name": "from",
          "type": "address"
        },
        {
          "indexed": true,
          "internalType": "address",
          "name": "to",
          "type": "address"
        },
        {
          "indexed": true,
          "internalType": "uint256",
          "name": "tokenId",
          "type": "uint256"
        }
      ],
      "name": "Transfer",
      "type": "event"
    },
    {
      "inputs": [
        {
          "internalType": "address",
          "name": "to",
          "type": "address"
        },
        {
          "internalType": "uint256",
          "name": "tokenId",
          "type": "uint256"
        }
      ],
      "name": "approve",
      "outputs": [],
      "stateMutability": "nonpayable",
      "type": "function"
    },
    {
      "inputs": [
        {
          "internalType": "address",
          "name": "owner",
          "type": "address"
        }
      ],
      "name": "balanceOf",
      "outputs": [
        {
          "internalType": "uint256",
          "name": "",
          "type": "uint256"
        }
      ],
      "stateMutability": "view",
      "type": "function"
    },
    {
      "inputs": [
        {
          "components": [
            {
              "components": [
                {
                  "internalType": "contract IERC721",
                  "name": "implem",
                  "type": "address"
                },
                {
                  "internalType": "uint256",
                  "name": "id",
                  "type": "uint256"
                }
              ],
              "internalType": "struct NFToken",
              "name": "nft",
              "type": "tuple"
            },
            {
              "components": [
                {
                  "internalType": "bytes",
                  "name": "signature",
                  "type": "bytes"
                },
                {
                  "internalType": "uint256",
                  "name": "amount",
                  "type": "uint256"
                },
                {
                  "components": [
                    {
                      "internalType": "contract IERC20",
                      "name": "assetToLend",
                      "type": "address"
                    },
                    {
                      "internalType": "uint256",
                      "name": "loanToValue",
                      "type": "uint256"
                    },
                    {
                      "internalType": "uint256",
                      "name": "duration",
                      "type": "uint256"
                    },
                    {
                      "internalType": "uint256",
                      "name": "expirationDate",
                      "type": "uint256"
                    },
                    {
                      "internalType": "uint256",
                      "name": "tranche",
                      "type": "uint256"
                    },
                    {
                      "components": [
                        {
                          "internalType": "contract IERC721",
                          "name": "implem",
                          "type": "address"
                        },
                        {
                          "internalType": "uint256",
                          "name": "id",
                          "type": "uint256"
                        }
                      ],
                      "internalType": "struct NFToken",
                      "name": "collateral",
                      "type": "tuple"
                    }
                  ],
                  "internalType": "struct Offer",
                  "name": "offer",
                  "type": "tuple"
                }
              ],
              "internalType": "struct OfferArg[]",
              "name": "args",
              "type": "tuple[]"
            }
          ],
          "internalType": "struct BorrowArg[]",
          "name": "args",
          "type": "tuple[]"
        }
      ],
      "name": "borrow",
      "outputs": [],
      "stateMutability": "nonpayable",
      "type": "function"
    },
    {
      "inputs": [
        {
          "components": [
            {
              "internalType": "uint256",
              "name": "loanId",
              "type": "uint256"
            },
            {
              "internalType": "address",
              "name": "to",
              "type": "address"
            }
          ],
          "internalType": "struct BuyArg[]",
          "name": "args",
          "type": "tuple[]"
        }
      ],
      "name": "buy",
      "outputs": [],
      "stateMutability": "nonpayable",
      "type": "function"
    },
    {
      "inputs": [
        {
          "internalType": "uint256[]",
          "name": "positionIds",
          "type": "uint256[]"
        }
      ],
      "name": "claim",
      "outputs": [
        {
          "internalType": "uint256",
          "name": "sent",
          "type": "uint256"
        }
      ],
      "stateMutability": "nonpayable",
      "type": "function"
    },
    {
      "inputs": [
        {
          "internalType": "uint256[]",
          "name": "loanIds",
          "type": "uint256[]"
        }
      ],
      "name": "claimAsBorrower",
      "outputs": [
        {
          "internalType": "uint256",
          "name": "sent",
          "type": "uint256"
        }
      ],
      "stateMutability": "nonpayable",
      "type": "function"
    },
    {
      "inputs": [
        {
          "internalType": "Ray",
          "name": "newTranche",
          "type": "uint256"
        }
      ],
      "name": "createTranche",
      "outputs": [
        {
          "internalType": "uint256",
          "name": "newTrancheId",
          "type": "uint256"
        }
      ],
      "stateMutability": "nonpayable",
      "type": "function"
    },
    {
      "inputs": [
        {
          "internalType": "uint256",
          "name": "tokenId",
          "type": "uint256"
        }
      ],
      "name": "getApproved",
      "outputs": [
        {
          "internalType": "address",
          "name": "",
          "type": "address"
        }
      ],
      "stateMutability": "view",
      "type": "function"
    },
    {
      "inputs": [
        {
          "internalType": "uint256",
          "name": "id",
          "type": "uint256"
        }
      ],
      "name": "getLoan",
      "outputs": [
        {
          "components": [
            {
              "internalType": "contract IERC20",
              "name": "assetLent",
              "type": "address"
            },
            {
              "internalType": "uint256",
              "name": "lent",
              "type": "uint256"
            },
            {
              "internalType": "Ray",
              "name": "shareLent",
              "type": "uint256"
            },
            {
              "internalType": "uint256",
              "name": "startDate",
              "type": "uint256"
            },
            {
              "internalType": "uint256",
              "name": "endDate",
              "type": "uint256"
            },
            {
              "components": [
                {
                  "internalType": "uint256",
                  "name": "duration",
                  "type": "uint256"
                },
                {
                  "internalType": "Ray",
                  "name": "priceFactor",
                  "type": "uint256"
                }
              ],
              "internalType": "struct Auction",
              "name": "auction",
              "type": "tuple"
            },
            {
              "internalType": "Ray",
              "name": "interestPerSecond",
              "type": "uint256"
            },
            {
              "internalType": "address",
              "name": "borrower",
              "type": "address"
            },
            {
              "components": [
                {
                  "internalType": "contract IERC721",
                  "name": "implem",
                  "type": "address"
                },
                {
                  "internalType": "uint256",
                  "name": "id",
                  "type": "uint256"
                }
              ],
              "internalType": "struct NFToken",
              "name": "collateral",
              "type": "tuple"
            },
            {
              "components": [
                {
                  "internalType": "uint256",
                  "name": "paid",
                  "type": "uint256"
                },
                {
                  "internalType": "uint256",
                  "name": "minInterestsToRepay",
                  "type": "uint256"
                },
                {
                  "internalType": "bool",
                  "name": "liquidated",
                  "type": "bool"
                },
                {
                  "internalType": "bool",
                  "name": "borrowerClaimed",
                  "type": "bool"
                }
              ],
              "internalType": "struct Payment",
              "name": "payment",
              "type": "tuple"
            },
            {
              "internalType": "uint256",
              "name": "supplyPositionIndex",
              "type": "uint256"
            },
            {
              "internalType": "uint256",
              "name": "nbOfPositions",
              "type": "uint256"
            }
          ],
          "internalType": "struct Loan",
          "name": "",
          "type": "tuple"
        }
      ],
      "stateMutability": "view",
      "type": "function"
    },
    {
      "inputs": [
        {
          "internalType": "contract IERC20",
          "name": "currency",
          "type": "address"
        }
      ],
      "name": "getMinOfferCostAndBorrowableAmount",
      "outputs": [
        {
          "internalType": "uint256",
          "name": "minOfferCost",
          "type": "uint256"
        },
        {
          "internalType": "uint256",
          "name": "offerBorrowAmountLowerBound",
          "type": "uint256"
        }
      ],
      "stateMutability": "view",
      "type": "function"
    },
    {
      "inputs": [],
      "name": "getParameters",
      "outputs": [
        {
          "internalType": "Ray",
          "name": "auctionPriceFactor",
          "type": "uint256"
        },
        {
          "internalType": "uint256",
          "name": "auctionDuration",
          "type": "uint256"
        },
        {
          "internalType": "uint256",
          "name": "nbOfLoans",
          "type": "uint256"
        },
        {
          "internalType": "uint256",
          "name": "nbOfTranches",
          "type": "uint256"
        }
      ],
      "stateMutability": "view",
      "type": "function"
    },
    {
      "inputs": [
        {
          "internalType": "uint256",
          "name": "id",
          "type": "uint256"
        }
      ],
      "name": "getRateOfTranche",
      "outputs": [
        {
          "internalType": "Ray",
          "name": "rate",
          "type": "uint256"
        }
      ],
      "stateMutability": "view",
      "type": "function"
    },
    {
      "inputs": [
        {
          "internalType": "address",
          "name": "owner",
          "type": "address"
        },
        {
          "internalType": "address",
          "name": "operator",
          "type": "address"
        }
      ],
      "name": "isApprovedForAll",
      "outputs": [
        {
          "internalType": "bool",
          "name": "",
          "type": "bool"
        }
      ],
      "stateMutability": "view",
      "type": "function"
    },
    {
      "inputs": [],
      "name": "name",
      "outputs": [
        {
          "internalType": "string",
          "name": "",
          "type": "string"
        }
      ],
      "stateMutability": "view",
      "type": "function"
    },
    {
      "inputs": [
        {
          "components": [
            {
              "internalType": "contract IERC20",
              "name": "assetToLend",
              "type": "address"
            },
            {
              "internalType": "uint256",
              "name": "loanToValue",
              "type": "uint256"
            },
            {
              "internalType": "uint256",
              "name": "duration",
              "type": "uint256"
            },
            {
              "internalType": "uint256",
              "name": "expirationDate",
              "type": "uint256"
            },
            {
              "internalType": "uint256",
              "name": "tranche",
              "type": "uint256"
            },
            {
              "components": [
                {
                  "internalType": "contract IERC721",
                  "name": "implem",
                  "type": "address"
                },
                {
                  "internalType": "uint256",
                  "name": "id",
                  "type": "uint256"
                }
              ],
              "internalType": "struct NFToken",
              "name": "collateral",
              "type": "tuple"
            }
          ],
          "internalType": "struct Offer",
          "name": "offer",
          "type": "tuple"
        }
      ],
      "name": "offerDigest",
      "outputs": [
        {
          "internalType": "bytes32",
          "name": "",
          "type": "bytes32"
        }
      ],
      "stateMutability": "view",
      "type": "function"
    },
    {
      "inputs": [
        {
          "internalType": "address",
          "name": "operator",
          "type": "address"
        },
        {
          "internalType": "address",
          "name": "",
          "type": "address"
        },
        {
          "internalType": "uint256",
          "name": "tokenId",
          "type": "uint256"
        },
        {
          "internalType": "bytes",
          "name": "data",
          "type": "bytes"
        }
      ],
      "name": "onERC721Received",
      "outputs": [
        {
          "internalType": "bytes4",
          "name": "",
          "type": "bytes4"
        }
      ],
      "stateMutability": "nonpayable",
      "type": "function"
    },
    {
      "inputs": [
        {
          "internalType": "uint256",
          "name": "tokenId",
          "type": "uint256"
        }
      ],
      "name": "ownerOf",
      "outputs": [
        {
          "internalType": "address",
          "name": "",
          "type": "address"
        }
      ],
      "stateMutability": "view",
      "type": "function"
    },
    {
      "inputs": [
        {
          "internalType": "uint256",
          "name": "tokenId",
          "type": "uint256"
        }
      ],
      "name": "position",
      "outputs": [
        {
          "components": [
            {
              "internalType": "uint256",
              "name": "amount",
              "type": "uint256"
            },
            {
              "internalType": "Ray",
              "name": "share",
              "type": "uint256"
            },
            {
              "internalType": "uint256",
              "name": "loanId",
              "type": "uint256"
            }
          ],
          "internalType": "struct Provision",
          "name": "",
          "type": "tuple"
        }
      ],
      "stateMutability": "view",
      "type": "function"
    },
    {
      "inputs": [
        {
          "internalType": "uint256",
          "name": "loanId",
          "type": "uint256"
        }
      ],
      "name": "price",
      "outputs": [
        {
          "internalType": "uint256",
          "name": "",
          "type": "uint256"
        }
      ],
      "stateMutability": "view",
      "type": "function"
    },
    {
      "inputs": [
        {
          "internalType": "uint256[]",
          "name": "loanIds",
          "type": "uint256[]"
        }
      ],
      "name": "repay",
      "outputs": [],
      "stateMutability": "nonpayable",
      "type": "function"
    },
    {
      "inputs": [
        {
          "internalType": "address",
          "name": "from",
          "type": "address"
        },
        {
          "internalType": "address",
          "name": "to",
          "type": "address"
        },
        {
          "internalType": "uint256",
          "name": "tokenId",
          "type": "uint256"
        }
      ],
      "name": "safeTransferFrom",
      "outputs": [],
      "stateMutability": "nonpayable",
      "type": "function"
    },
    {
      "inputs": [
        {
          "internalType": "address",
          "name": "from",
          "type": "address"
        },
        {
          "internalType": "address",
          "name": "to",
          "type": "address"
        },
        {
          "internalType": "uint256",
          "name": "tokenId",
          "type": "uint256"
        },
        {
          "internalType": "bytes",
          "name": "data",
          "type": "bytes"
        }
      ],
      "name": "safeTransferFrom",
      "outputs": [],
      "stateMutability": "nonpayable",
      "type": "function"
    },
    {
      "inputs": [
        {
          "internalType": "address",
          "name": "operator",
          "type": "address"
        },
        {
          "internalType": "bool",
          "name": "approved",
          "type": "bool"
        }
      ],
      "name": "setApprovalForAll",
      "outputs": [],
      "stateMutability": "nonpayable",
      "type": "function"
    },
    {
      "inputs": [
        {
          "internalType": "uint256",
          "name": "newAuctionDuration",
          "type": "uint256"
        }
      ],
      "name": "setAuctionDuration",
      "outputs": [],
      "stateMutability": "nonpayable",
      "type": "function"
    },
    {
      "inputs": [
        {
          "internalType": "Ray",
          "name": "newAuctionPriceFactor",
          "type": "uint256"
        }
      ],
      "name": "setAuctionPriceFactor",
      "outputs": [],
      "stateMutability": "nonpayable",
      "type": "function"
    },
    {
      "inputs": [
        {
          "internalType": "contract IERC20",
          "name": "currency",
          "type": "address"
        },
        {
          "internalType": "uint256",
          "name": "newLowerBound",
          "type": "uint256"
        }
      ],
      "name": "setBorrowAmountPerOfferLowerBound",
      "outputs": [],
      "stateMutability": "nonpayable",
      "type": "function"
    },
    {
      "inputs": [
        {
          "internalType": "contract IERC20",
          "name": "currency",
          "type": "address"
        },
        {
          "internalType": "uint256",
          "name": "newMinOfferCost",
          "type": "uint256"
        }
      ],
      "name": "setMinOfferCost",
      "outputs": [],
      "stateMutability": "nonpayable",
      "type": "function"
    },
    {
      "inputs": [
        {
          "internalType": "bytes4",
          "name": "interfaceId",
          "type": "bytes4"
        }
      ],
      "name": "supportsInterface",
      "outputs": [
        {
          "internalType": "bool",
          "name": "",
          "type": "bool"
        }
      ],
      "stateMutability": "view",
      "type": "function"
    },
    {
      "inputs": [],
      "name": "symbol",
      "outputs": [
        {
          "internalType": "string",
          "name": "",
          "type": "string"
        }
      ],
      "stateMutability": "view",
      "type": "function"
    },
    {
      "inputs": [],
      "name": "totalSupply",
      "outputs": [
        {
          "internalType": "uint256",
          "name": "",
          "type": "uint256"
        }
      ],
      "stateMutability": "view",
      "type": "function"
    },
    {
      "inputs": [
        {
          "internalType": "address",
          "name": "from",
          "type": "address"
        },
        {
          "internalType": "address",
          "name": "to",
          "type": "address"
        },
        {
          "internalType": "uint256",
          "name": "tokenId",
          "type": "uint256"
        }
      ],
      "name": "transferFrom",
      "outputs": [],
      "stateMutability": "nonpayable",
      "type": "function"
    }
  ],
  "bytecode": {
    "object": "0x61014060405234801561001157600080fd5b50604080518082018252601481527f4b6169726f73204c6f616e2070726f746f636f6c000000000000000000000000602080830191825283518085019094526003845262302e3160e81b908401528151902060e08190527f8cd160c72d102a6747abd189ac21d4a1f802e3fcc1bb8fc78cc4d558df0c7c216101008190524660a0529192917f8b73c3c69bb8fe3d512ecc4cf759cc79239f7b179b0ffacaa9a75d522b39400f6101068184846040805160208101859052908101839052606081018290524660808201523060a082015260009060c0016040516020818303038152906040528051906020012090509392505050565b6080523060c052610120525061011b92505050565b60805160a05160c05160e0516101005161012051613c506200016b60003960006127e4015260006128330152600061280e0152600061276701526000612791015260006127bb0152613c506000f3fe608060405234801561001057600080fd5b50600436106101e55760003560e01c80636352211e1161010f578063a22cb465116100a2578063b88d4fde11610071578063b88d4fde14610484578063e7af8fed14610497578063e985e9c5146104aa578063f7a95a9e146104bd57600080fd5b8063a22cb46514610423578063a497e67414610436578063a5ea11da14610449578063b1ce7a6a1461047157600080fd5b80638d116c7a116100de5780638d116c7a146103cd57806392eab80e146103f557806395d89b4114610408578063980b13c51461041057600080fd5b80636352211e146103815780636ba4c1381461039457806370a08231146103a75780637660e109146103ba57600080fd5b806318160ddd1161018757806326a49e371161015657806326a49e37146103285780633d6fd5be1461033b57806342842e0e1461034e578063504006ca1461036157600080fd5b806318160ddd146102c85780631a34c700146102ef5780631fbc8a741461030257806323b872dd1461031557600080fd5b8063095ea7b3116101c3578063095ea7b3146102535780630c72ad201461026857806314aab74f1461027b578063150b7a021461029c57600080fd5b806301ffc9a7146101ea57806306fdde0314610213578063081812fc14610228575b600080fd5b6101fe6101f836600461303b565b50600090565b60405190151581526020015b60405180910390f35b61021b6104f2565b60405161020a919061309e565b61023b6102363660046130b1565b610596565b6040516001600160a01b03909116815260200161020a565b6102666102613660046130df565b6105a7565b005b6102666102763660046131be565b610633565b61028e6102893660046130b1565b610841565b60405190815260200161020a565b6102af6102aa366004613248565b61085f565b6040516001600160e01b0319909116815260200161020a565b7f9dcac861a288165fa5a7e007597a30abcd2d73e174280cf7c6967f5a922a443b5461028e565b6102666102fd3660046130df565b6108ac565b61028e6103103660046133ab565b61099d565b6102666103233660046133c7565b6109b0565b61028e6103363660046130b1565b6109e2565b61028e61034936600461344c565b610abf565b61026661035c3660046133c7565b610c4d565b61037461036f3660046130b1565b610c68565b60405161020a919061348d565b61023b61038f3660046130b1565b610d87565b61028e6103a236600461344c565b610d92565b61028e6103b5366004613588565b610f24565b6102666103c83660046130df565b610f7d565b6103e06103db366004613588565b61106e565b6040805192835260208301919091520161020a565b61028e6104033660046130b1565b6110ad565b61021b6111b0565b61026661041e3660046135a5565b6111ef565b610266610431366004613667565b611233565b6102666104443660046130b1565b61123e565b610451611314565b60408051948552602085019390935291830152606082015260800161020a565b61026661047f36600461344c565b611345565b61026661049236600461370f565b61149a565b6102666104a53660046130b1565b6114d3565b6101fe6104b836600461377a565b6115f9565b6104d06104cb3660046130b1565b61160c565b604080518251815260208084015190820152918101519082015260600161020a565b600080516020613bfb8339815191528054606091908190610512906137a8565b80601f016020809104026020016040519081016040528092919081815260200182805461053e906137a8565b801561058b5780601f106105605761010080835404028352916020019161058b565b820191906000526020600020905b81548152906001019060200180831161056e57829003601f168201915b505050505091505090565b60006105a1826116bc565b92915050565b60006105b282610d87565b9050806001600160a01b0316836001600160a01b0316036105e657604051630591db6d60e01b815260040160405180910390fd5b336001600160a01b03821614801590610606575061060481336115f9565b155b156106245760405163e495e68760e01b815260040160405180910390fd5b61062e838361171f565b505050565b600061063d611783565b905060008060008060005b865181101561083857856005016000888381518110610669576106696137e2565b602002602001015181526020019081526020016000209450600085600b016000015411806106a05750600d850154610100900460ff165b806106af5750600d85015460ff165b156106f3578681815181106106c6576106c66137e2565b602002602001015160405163dae2c27360e01b81526004016106ea91815260200190565b60405180910390fd5b8460010154935061072f61072561071e876003015442610713919061380e565b6007890154906117a7565b86906117b3565b600c8701546117d5565b925061073b8385613821565b600b8601819055600d8601805461ff001916610100179055855490925061076d906001600160a01b03163330856117eb565b60098501546008860154600a870154604051632142170760e11b81526001600160a01b03938416936342842e0e936107ae9330939290911691600401613834565b600060405180830381600087803b1580156107c857600080fd5b505af11580156107dc573d6000803e3d6000fd5b505050508681815181106107f2576107f26137e2565b60200260200101517fa6ffc78a660e4971a47a0f916a0abae483804e6f42c9292ed06aa64f8fe4623060405160405180910390a28061083081613858565b915050610648565b50505050505050565b600061084b611783565b600092835260040160205250604090205490565b60008061086e83850185613935565b905061089881886040518060400160405280336001600160a01b0316815260200189815250611896565b50630a85bd0160e11b979650505050505050565b6000306001600160a01b0316638da5cb5b6040518163ffffffff1660e01b8152600401602060405180830381865afa1580156108ec573d6000803e3d6000fd5b505050506040513d601f19601f82011682018060405250810190610910919061397d565b9050336001600160a01b038216146109465760405163d4ed9a1760e01b81526001600160a01b03821660048201526024016106ea565b8161094f611783565b6001600160a01b038516600081815260069290920160205260408083209390935591518492917f67c648fad0621d49c4ec46cd8bd0f732a5999eb456200b96b1ad475163d8672f91a3505050565b60006105a16109ab83611b1c565b611bc4565b6109ba3382611c12565b6109d757604051636eb172ad60e11b815260040160405180910390fd5b61062e838383611c71565b6000806109ed611783565b600084815260059190910160205260408120600481015490925090610a12824261380e565b9050610a1d85611d7a565b6005830154600090821015610a57576005840154610a5290610a40908490611e03565b676765c793fa10079d601b1b90611e1b565b610a5a565b60005b90506000610a8e610a838660020154676765c793fa10079d601b1b611e0390919063ffffffff16565b6001870154906117b3565b9050610ab482610aae8760050160010154846117b390919063ffffffff16565b906117b3565b979650505050505050565b600080610aca611783565b905060008080805b86811015610c4257878782818110610aec57610aec6137e2565b6020908102929092013560008181526005890190935260409092206008810154909650919350506001600160a01b03163314610b3e5760405163c250ea5d60e01b8152600481018390526024016106ea565b600d840154610100900460ff1615610b6c5760405163059803b760e21b8152600481018390526024016106ea565b600d84015460ff1615610bbb57600d8401805461ff0019166101001790556002840154610bb490610ba990676765c793fa10079d601b1b90611e1b565b600b860154906117b3565b9250610bd7565b6040516311653e5f60e21b8152600481018390526024016106ea565b8215610c30578354610bf3906001600160a01b03163385611e27565b610bfd8387613821565b6040519096508290849033907f34fcbac0073d7c3d388e51312faf357774904998eeb8fca628b9e6f65ee1cbf790600090a45b80610c3a81613858565b915050610ad2565b505050505092915050565b61062e8383836040518060200160405280600081525061149a565b610c70612ed1565b610c78611783565b60009283526005908101602090815260409384902084516101808101865281546001600160a01b039081168252600183015482850152600283015482880152600383015460608084019190915260048401546080808501919091528851808a018a5296850154875260068501548787015260a0840196909652600784015460c08401526008840154821660e08401528751808901895260098501549092168252600a840154828601526101008084019290925287519586018852600b8401548652600c84015494860194909452600d83015460ff80821615159887019890985204909516151591830191909152610120840191909152600e810154610140840152600f01546101608301525090565b60006105a182611ed0565b600080610d9d611783565b9050600080516020613bfb8339815191526000808080805b88811015610f1757610ddf338b8b84818110610dd357610dd36137e2565b90506020020135611c12565b610dfc57604051636eb172ad60e11b815260040160405180910390fd5b610e1d8a8a83818110610e1157610e116137e2565b90506020020135611f35565b8560070160008b8b84818110610e3557610e356137e2565b905060200201358152602001908152602001600020935083600201549250866005016000848152602001908152602001600020945084600b0160020160009054906101000a900460ff1615610e9557610e8e8585611fb4565b9150610eca565b600b850154600003610ebd576040516311653e5f60e21b8152600481018490526024016106ea565b610ec78585611fe4565b91505b6040518390839033907f34fcbac0073d7c3d388e51312faf357774904998eeb8fca628b9e6f65ee1cbf790600090a4610f038289613821565b975080610f0f81613858565b915050610db5565b5050505050505092915050565b6000600080516020613bfb8339815191526001600160a01b038316610f5c57604051630b505c1d60e11b815260040160405180910390fd5b6001600160a01b039092166000908152600490920160205250604090205490565b6000306001600160a01b0316638da5cb5b6040518163ffffffff1660e01b8152600401602060405180830381865afa158015610fbd573d6000803e3d6000fd5b505050506040513d601f19601f82011682018060405250810190610fe1919061397d565b9050336001600160a01b038216146110175760405163d4ed9a1760e01b81526001600160a01b03821660048201526024016106ea565b81611020611783565b6001600160a01b038516600081815260079290920160205260408083209390935591518492917f146e1a257ecd0267c391070e1bc23a703eee64ed866c1ceb73cc8b2508f4a37191a3505050565b600080600061107b611783565b6001600160a01b0390941660009081526006850160209081526040808320546007909701909152902054939492505050565b600080306001600160a01b0316638da5cb5b6040518163ffffffff1660e01b8152600401602060405180830381865afa1580156110ee573d6000803e3d6000fd5b505050506040513d601f19601f82011682018060405250810190611112919061397d565b9050336001600160a01b038216146111485760405163d4ed9a1760e01b81526001600160a01b03821660048201526024016106ea565b6000611152611783565b600181018054919250600061116683613858565b90915550600081815260048301602052604080822087905551919450849186917f6da37ad08550ba024c1448b799ac757c4f29bc9fb729b3f370a4fa2ab798fbd591a35050919050565b7f9dcac861a288165fa5a7e007597a30abcd2d73e174280cf7c6967f5a922a443a8054606091600080516020613bfb83398151915291610512906137a8565b60005b815181101561122f5761121d828281518110611210576112106137e2565b6020026020010151612075565b8061122781613858565b9150506111f2565b5050565b61122f3383836121b9565b6000306001600160a01b0316638da5cb5b6040518163ffffffff1660e01b8152600401602060405180830381865afa15801561127e573d6000803e3d6000fd5b505050506040513d601f19601f820116820180604052508101906112a2919061397d565b9050336001600160a01b038216146112d85760405163d4ed9a1760e01b81526001600160a01b03821660048201526024016106ea565b816112e1611783565b6002015560405182907f99c234461abfab1095b48d0d9527ff204caa62038112f57c795cecb99503676290600090a25050565b6000806000806000611324611783565b60038101546002820154825460019093015491989097509195509350915050565b60005b8181101561062e57828282818110611362576113626137e2565b9050602002810190611374919061399a565b611382906020810190613588565b6001600160a01b03166323b872dd33308686868181106113a4576113a46137e2565b90506020028101906113b6919061399a565b6040516001600160e01b031960e086901b1681526113dd9392916020013590600401613834565b600060405180830381600087803b1580156113f757600080fd5b505af115801561140b573d6000803e3d6000fd5b50505050611487838383818110611424576114246137e2565b9050602002810190611436919061399a565b6114449060408101906139ba565b61144d91613a03565b33858585818110611460576114606137e2565b9050602002810190611472919061399a565b6114829036819003810190613a10565b611896565b508061149281613858565b915050611348565b6114a43383611c12565b6114c157604051636eb172ad60e11b815260040160405180910390fd5b6114cd8484848461222c565b50505050565b6000306001600160a01b0316638da5cb5b6040518163ffffffff1660e01b8152600401602060405180830381865afa158015611513573d6000803e3d6000fd5b505050506040513d601f19601f82011682018060405250810190611537919061397d565b9050336001600160a01b0382161461156d5760405163d4ed9a1760e01b81526001600160a01b03821660048201526024016106ea565b611597611591600261158b676765c793fa10079d601b1b60056117a7565b9061225f565b83101590565b6115bd5760405162461bcd60e51b815260206004820152600060248201526044016106ea565b816115c6611783565b6003015560405182907f1ce4b7127cce448c8a88c8a281145cece8c80a8e53693505547c31fabc92c44590600090a25050565b6000611605838361226b565b9392505050565b61163060405180606001604052806000815260200160008152602001600081525090565b7f9dcac861a288165fa5a7e007597a30abcd2d73e174280cf7c6967f5a922a443b54600080516020613bfb833981519152908311156116825760405163089ba7e160e41b815260040160405180910390fd5b6000928352600701602090815260409283902083516060810185528154815260018201549281019290925260020154928101929092525090565b60006116c7826122b8565b6116e45760405163089ba7e160e41b815260040160405180910390fd5b5060009081527f9dcac861a288165fa5a7e007597a30abcd2d73e174280cf7c6967f5a922a443e60205260409020546001600160a01b031690565b60008181527f9dcac861a288165fa5a7e007597a30abcd2d73e174280cf7c6967f5a922a443e6020526040902080546001600160a01b0319166001600160a01b038416179055600080516020613bfb83398151915261062e61178083611ed0565b50565b7f84e508d57dadc535817af594804944c3bc341cdb6befa5a0747e20285912a7eb90565b60006116058284613a2c565b6000676765c793fa10079d601b1b6117cb8385613a2c565b6116059190613a43565b60008183116117e45781611605565b5090919050565b6040516323b872dd60e01b81526001600160a01b038516906323b872dd9061181b90869086908690600401613834565b6020604051808303816000875af115801561183a573d6000803e3d6000fd5b505050506040513d601f19601f8201168201806040525081019061185e9190613a65565b6114cd576040516362fe41f360e01b81526001600160a01b0380861660048301528085166024830152831660448201526064016106ea565b61189e612ed1565b60006118c5856000815181106118b6576118b66137e2565b602002602001015185856122f4565b90506000600080516020613bfb833981519152600201546118e7906001613821565b86519091506000805b8281101561195a5761191b89828151811061190d5761190d6137e2565b602002602001015186612398565b945088818151811061192f5761192f6137e2565b602002602001015160200151826119469190613821565b91508061195281613858565b9150506118f0565b50701d6329f1c35ca4bfabb9f56100000000008111156119905760405163a1b0082360e01b8152600481018290526024016106ea565b61199e848888858588612600565b9450846119a9611783565b6101008681018051600090815260059384016020908152604091829020865181546001600160a01b03199081166001600160a01b039283161783558884015160018401558885015160028401556060808a0151600385015560808a0151600485015560a08a015180519985019990995597840151600684015560c0890151600784015560e089015160088401805483169184169190911790558887015180516009850180549093169316929092179055820151600a8201556101208701518051600b83015580830151600c83015580840151600d83018054929098015161ffff1990921690151561ff0019161790151590950294909417909455610140850151600e84015561016090940151600f909201919091555191517fdca520d648f7d72e985ce218de7119aeca8bdd20abdb296f69ee74630fe79c7b91611aef9189910161348d565b60408051601f1981840301815290829052611b099161309e565b60405180910390a2505050509392505050565b60007f2ac049b6467232d12ceb145e80f9890371b3f6a4ccb53cdc241cf1a1c6e9dd9782600001518360200151846040015185606001518660800151611b658860a00151612725565b6040805160208101989098526001600160a01b03909616958701959095526060860193909352608085019190915260a084015260c083015260e0820152610100015b604051602081830303815290604052805190602001209050919050565b60006105a1611bd161275a565b8360405161190160f01b6020820152602281018390526042810182905260009060620160405160208183030381529060405280519060200120905092915050565b600080611c1e83611ed0565b9050806001600160a01b0316846001600160a01b03161480611c455750611c45818561226b565b80611c695750836001600160a01b0316611c5e846116bc565b6001600160a01b0316145b949350505050565b600080516020613bfb8339815191526001600160a01b038416611c9383611ed0565b6001600160a01b031614611cba5760405163e146af6f60e01b815260040160405180910390fd5b6001600160a01b038316611ce1576040516338f646ff60e21b815260040160405180910390fd5b611cec60008361171f565b6001600160a01b03841660009081526004820160205260408120805460019290611d1790849061380e565b90915550506001600160a01b03831660009081526004820160205260408120805460019290611d47908490613821565b90915550506000828152600382016020526040902080546001600160a01b0319166001600160a01b0385161790556114cd565b6000611d84611783565b600501600083815260200190815260200160002090508060040154421015611dcc5760048181015460405163ee9e72dd60e01b815291820152602481018390526044016106ea565b600b810154151580611de25750600d81015460ff165b1561122f5760405163dae2c27360e01b8152600481018390526024016106ea565b6000816117cb676765c793fa10079d601b1b85613a2c565b6000611605828461380e565b60405163a9059cbb60e01b81526001600160a01b0383811660048301526024820183905284169063a9059cbb906044016020604051808303816000875af1158015611e76573d6000803e3d6000fd5b505050506040513d601f19601f82011682018060405250810190611e9a9190613a65565b61062e576040516362fe41f360e01b81526001600160a01b038085166004830152306024830152831660448201526064016106ea565b60008181527f9dcac861a288165fa5a7e007597a30abcd2d73e174280cf7c6967f5a922a443c6020526040812054600080516020613bfb833981519152906001600160a01b0316806116055760405163089ba7e160e41b815260040160405180910390fd5b600080516020613bfb8339815191526000611f4f83611ed0565b9050611f5c60008461171f565b6001600160a01b03811660009081526004830160205260408120805460019290611f8790849061380e565b90915550506000838152600383016020526040812080546001600160a01b031916905561062e9082908583565b6001810154600b830154600091611fcb91906117b3565b83549091506105a1906001600160a01b03163383611e27565b600080836001015484600b0160000154611ffe919061380e565b600c850154909150810361202e57600f84015461201b9082613a43565b83546120279190613821565b9150612058565b6001840154835461203f9083613a2c565b6120499190613a43565b83546120559190613821565b91505b835461206e906001600160a01b03163384611e27565b5092915050565b600061207f611783565b825160009081526005919091016020526040902082519091506120a190611d7a565b60006120b083600001516109e2565b600d8301805460ff19166001179055600b830181905582549091506120e0906001600160a01b03163330846117eb565b60098201546020840151600a840154604051632142170760e11b81526001600160a01b03909316926342842e0e9261211c923092600401613834565b600060405180830381600087803b15801561213657600080fd5b505af115801561214a573d6000803e3d6000fd5b505084516040805160208082018490528801516001600160a01b0316818301528151808203830181526060909101918290529193507f56fa56fac71c8ba176bf5af94ddd918100d0d8b56a12bbe5e94bac85eca114da92506121ac919061309e565b60405180910390a2505050565b600080516020613bfb8339815191526001600160a01b03808416908516036121f457604051630b7b99b960e21b815260040160405180910390fd5b6001600160a01b0384811660009081526006830160209081526040808320938716835292905220805460ff19168315151790556114cd565b612237848484611c71565b61224384848484612881565b6114cd57604051626b5e2960e61b815260040160405180910390fd5b60006116058284613a43565b6001600160a01b0391821660009081527f9dcac861a288165fa5a7e007597a30abcd2d73e174280cf7c6967f5a922a443f6020908152604080832093909416825291909152205460ff1690565b60009081527f9dcac861a288165fa5a7e007597a30abcd2d73e174280cf7c6967f5a922a443c60205260409020546001600160a01b0316151590565b6122fc612fa3565b604051806101200160405280600081526020018560400151600001516001600160a01b031681526020018560400151608001518152602001856040015160400151815260200185604001516020015181526020018560400151602001518152602001846001600160a01b0316815260200183815260200161237b611783565b805460009061238990613858565b91829055509052949350505050565b6123a0612fa3565b60006123ab84612982565b9050600083602001516001600160a01b03168560400151600001516001600160a01b03161461240b5760208401516040868101515190516346aac2a960e01b81526001600160a01b039283166004820152911660248201526044016106ea565b836040015185604001516080015114612450578360400151856040015160800151604051632ff7abc160e11b81526004016106ea929190918252602082015260400190565b61246285604001518560e00151612a6c565b6124818560400151602001518660200151611e0390919063ffffffff16565b84519091506124909082612a9c565b808552676765c793fa10079d601b1b10156124ee57602085015184516124cd906124be90610a409085611e1b565b604088015160200151906117b3565b86604001516040516352e84b3360e11b81526004016106ea93929190613adb565b8360600151856040015160400151101561251057604080860151015160608501525b836080015185604001516020015110156125335760408501516020015160808501525b8360a0015185604001516020015111156125565760408501516020015160a08501525b6080840151612566906002613a2c565b8460a00151111561259d57608084015160a0850151604051633065b5b760e11b8152600481019290925260248201526044016106ea565b6125c9828560c00151876020015187602001516001600160a01b03166117eb909392919063ffffffff16565b6125f682604051806060016040528088602001518152602001848152602001876101000151815250612aa8565b5092949350505050565b612608612ed1565b6000612612611783565b905060008860600151426126269190613821565b9050612657604051806080016040528060008152602001600081526020016000151581526020016000151581525090565b6020808b01516001600160a01b031660009081526006850190915260409020546126819088613a2c565b60208281019190915260408051610180810182528c8301516001600160a01b039081168252818401999099528c51818301524260608201526080810194909452805180820182526002860154815260038601548184015260a08501529a8b0151600090815260049094019052989091205460c08201529590921660e08601526101008501939093525061012083019390935261014082015261016081019190915290565b60007f8ee82799d3068521f828767217e880bf7d6bb6ec7d5dbcc3de1e3e4bbb39c9e982604051602001611ba7929190613af7565b6000306001600160a01b037f0000000000000000000000000000000000000000000000000000000000000000161480156127b357507f000000000000000000000000000000000000000000000000000000000000000046145b156127dd57507f000000000000000000000000000000000000000000000000000000000000000090565b50604080517f00000000000000000000000000000000000000000000000000000000000000006020808301919091527f0000000000000000000000000000000000000000000000000000000000000000828401527f000000000000000000000000000000000000000000000000000000000000000060608301524660808301523060a0808401919091528351808403909101815260c0909201909252805191012090565b60006001600160a01b0384163b1561297757604051630a85bd0160e11b81526001600160a01b0385169063150b7a02906128c5903390899088908890600401613b1e565b6020604051808303816000875af1925050508015612900575060408051601f3d908101601f191682019092526128fd91810190613b5b565b60015b61295d573d80801561292e576040519150601f19603f3d011682016040523d82523d6000602084013e612933565b606091505b50805160000361295557604051626b5e2960e61b815260040160405180910390fd5b805181602001fd5b6001600160e01b031916630a85bd0160e11b149050611c69565b506001949350505050565b60008061298d611783565b90506129a661299f846040015161099d565b8451612b25565b604080850151516001600160a01b0316600090815260078401602090815291902054908501519193509081106129fd57836040015184602001518260405163889976c760e01b81526004016106ea93929190613b78565b836040015160600151421115612a31576040808501516060810151915163065a5c3b60e01b81526106ea9290600401613b99565b816001015484604001516080015110612a65578160010154604051632fac17ed60e11b81526004016106ea91815260200190565b5050919050565b60a0820151612a7b9082612b49565b61122f57818160405163d8ef221b60e01b81526004016106ea929190613bb5565b60006116058284613821565b7f9dcac861a288165fa5a7e007597a30abcd2d73e174280cf7c6967f5a922a443b8054600091600080516020613bfb833981519152918390612ae990613858565b918290555060008181526007830160209081526040918290208651815590860151600182015590850151600290910155915061206e8483612b72565b6000806000612b348585612b8c565b91509150612b4181612bd1565b509392505050565b6000816020015183602001511480156116055750505190516001600160a01b0391821691161490565b61122f828260405180602001604052806000815250612d1b565b6000808251604103612bc25760208301516040840151606085015160001a612bb687828585612d4e565b94509450505050612bca565b506000905060025b9250929050565b6000816004811115612be557612be5613be4565b03612bed5750565b6001816004811115612c0157612c01613be4565b03612c4e5760405162461bcd60e51b815260206004820152601860248201527f45434453413a20696e76616c6964207369676e6174757265000000000000000060448201526064016106ea565b6002816004811115612c6257612c62613be4565b03612caf5760405162461bcd60e51b815260206004820152601f60248201527f45434453413a20696e76616c6964207369676e6174757265206c656e6774680060448201526064016106ea565b6003816004811115612cc357612cc3613be4565b036117805760405162461bcd60e51b815260206004820152602260248201527f45434453413a20696e76616c6964207369676e6174757265202773272076616c604482015261756560f01b60648201526084016106ea565b612d258383612e12565b612d326000848484612881565b61062e57604051626b5e2960e61b815260040160405180910390fd5b6000807f7fffffffffffffffffffffffffffffff5d576e7357a4501ddfe92f46681b20a0831115612d855750600090506003612e09565b6040805160008082526020820180845289905260ff881692820192909252606081018690526080810185905260019060a0016020604051602081039080840390855afa158015612dd9573d6000803e3d6000fd5b5050604051601f1901519150506001600160a01b038116612e0257600060019250925050612e09565b9150600090505b94509492505050565b600080516020613bfb8339815191526001600160a01b038316612e48576040516325bd6bd360e01b815260040160405180910390fd5b612e51826122b8565b15612e6f5760405163c5a8d37160e01b815260040160405180910390fd5b6001600160a01b03831660009081526004820160205260408120805460019290612e9a908490613821565b90915550506000828152600382016020526040812080546001600160a01b0319166001600160a01b03861617905561062e90848483565b60405180610180016040528060006001600160a01b0316815260200160008152602001600081526020016000815260200160008152602001612f26604051806040016040528060008152602001600081525090565b81526020016000815260200160006001600160a01b03168152602001612f68604051806040016040528060006001600160a01b03168152602001600081525090565b815260408051608081018252600080825260208281018290529282018190526060820152910190815260200160008152602001600081525090565b6040518061012001604052806000815260200160006001600160a01b031681526020016000815260200160008152602001600081526020016000815260200160006001600160a01b03168152602001613018604051806040016040528060006001600160a01b03168152602001600081525090565b8152602001600081525090565b6001600160e01b03198116811461178057600080fd5b60006020828403121561304d57600080fd5b813561160581613025565b6000815180845260005b8181101561307e57602081850181015186830182015201613062565b506000602082860101526020601f19601f83011685010191505092915050565b6020815260006116056020830184613058565b6000602082840312156130c357600080fd5b5035919050565b6001600160a01b038116811461178057600080fd5b600080604083850312156130f257600080fd5b82356130fd816130ca565b946020939093013593505050565b634e487b7160e01b600052604160045260246000fd5b604080519081016001600160401b03811182821017156131435761314361310b565b60405290565b604051606081016001600160401b03811182821017156131435761314361310b565b604051601f8201601f191681016001600160401b03811182821017156131935761319361310b565b604052919050565b60006001600160401b038211156131b4576131b461310b565b5060051b60200190565b600060208083850312156131d157600080fd5b82356001600160401b038111156131e757600080fd5b8301601f810185136131f857600080fd5b803561320b6132068261319b565b61316b565b81815260059190911b8201830190838101908783111561322a57600080fd5b928401925b82841015610ab45783358252928401929084019061322f565b60008060008060006080868803121561326057600080fd5b853561326b816130ca565b9450602086013561327b816130ca565b93506040860135925060608601356001600160401b038082111561329e57600080fd5b818801915088601f8301126132b257600080fd5b8135818111156132c157600080fd5b8960208285010111156132d357600080fd5b9699959850939650602001949392505050565b6000604082840312156132f857600080fd5b613300613121565b9050813561330d816130ca565b808252506020820135602082015292915050565b600060e0828403121561333357600080fd5b60405160c081018181106001600160401b03821117156133555761335561310b565b6040529050808235613366816130ca565b808252506020830135602082015260408301356040820152606083013560608201526080830135608082015261339f8460a085016132e6565b60a08201525092915050565b600060e082840312156133bd57600080fd5b6116058383613321565b6000806000606084860312156133dc57600080fd5b83356133e7816130ca565b925060208401356133f7816130ca565b929592945050506040919091013590565b60008083601f84011261341a57600080fd5b5081356001600160401b0381111561343157600080fd5b6020830191508360208260051b8501011115612bca57600080fd5b6000806020838503121561345f57600080fd5b82356001600160401b0381111561347557600080fd5b61348185828601613408565b90969095509350505050565b81516001600160a01b0316815261022081016020830151602083015260408301516040830152606083015160608301526080830151608083015260a08301516134e360a084018280518252602090810151910152565b5060c083015160e083015260e083015161010061350a818501836001600160a01b03169052565b84015190506101206135318482018380516001600160a01b03168252602090810151910152565b840151905061016061356a8482018380518252602081015160208301526040810151151560408301526060810151151560608301525050565b6101408501516101e085015280850151610200850152505092915050565b60006020828403121561359a57600080fd5b8135611605816130ca565b600060208083850312156135b857600080fd5b82356001600160401b038111156135ce57600080fd5b8301601f810185136135df57600080fd5b80356135ed6132068261319b565b81815260069190911b8201830190838101908783111561360c57600080fd5b928401925b82841015610ab4576040848903121561362a5760008081fd5b613632613121565b8435815285850135613643816130ca565b8187015282526040939093019290840190613611565b801515811461178057600080fd5b6000806040838503121561367a57600080fd5b8235613685816130ca565b9150602083013561369581613659565b809150509250929050565b600082601f8301126136b157600080fd5b81356001600160401b038111156136ca576136ca61310b565b6136dd601f8201601f191660200161316b565b8181528460208386010111156136f257600080fd5b816020850160208301376000918101602001919091529392505050565b6000806000806080858703121561372557600080fd5b8435613730816130ca565b93506020850135613740816130ca565b92506040850135915060608501356001600160401b0381111561376257600080fd5b61376e878288016136a0565b91505092959194509250565b6000806040838503121561378d57600080fd5b8235613798816130ca565b91506020830135613695816130ca565b600181811c908216806137bc57607f821691505b6020821081036137dc57634e487b7160e01b600052602260045260246000fd5b50919050565b634e487b7160e01b600052603260045260246000fd5b634e487b7160e01b600052601160045260246000fd5b818103818111156105a1576105a16137f8565b808201808211156105a1576105a16137f8565b6001600160a01b039384168152919092166020820152604081019190915260600190565b60006001820161386a5761386a6137f8565b5060010190565b600061387f6132068461319b565b8381529050602080820190600585901b84018681111561389e57600080fd5b845b8181101561392a5780356001600160401b03808211156138c05760008081fd5b90870190610120828b0312156138d65760008081fd5b6138de613149565b8235828111156138ee5760008081fd5b6138fa8c8286016136a0565b8252508583013586820152604091506139158b838501613321565b918101919091528552509282019282016138a0565b505050509392505050565b60006020828403121561394757600080fd5b81356001600160401b0381111561395d57600080fd5b8201601f8101841361396e57600080fd5b611c6984823560208401613871565b60006020828403121561398f57600080fd5b8151611605816130ca565b60008235605e198336030181126139b057600080fd5b9190910192915050565b6000808335601e198436030181126139d157600080fd5b8301803591506001600160401b038211156139eb57600080fd5b6020019150600581901b3603821315612bca57600080fd5b6000611605368484613871565b600060408284031215613a2257600080fd5b61160583836132e6565b80820281158282048414176105a1576105a16137f8565b600082613a6057634e487b7160e01b600052601260045260246000fd5b500490565b600060208284031215613a7757600080fd5b815161160581613659565b60018060a01b0381511682526020810151602083015260408101516040830152606081015160608301526080810151608083015260a081015161062e60a084018280516001600160a01b03168252602090810151910152565b838152602081018390526101208101611c696040830184613a82565b82815260608101611605602083018480516001600160a01b03168252602090810151910152565b6001600160a01b0385811682528416602082015260408101839052608060608201819052600090613b5190830184613058565b9695505050505050565b600060208284031215613b6d57600080fd5b815161160581613025565b6101208101613b878286613a82565b60e08201939093526101000152919050565b6101008101613ba88285613a82565b8260e08301529392505050565b6101208101613bc48285613a82565b82516001600160a01b031660e08301526020830151610100830152611605565b634e487b7160e01b600052602160045260246000fdfe9dcac861a288165fa5a7e007597a30abcd2d73e174280cf7c6967f5a922a4439a26469706673582212205668230545a15660b2f173653c92ee29429c52d1e8a4c7bb3b35eed1a992e55e64736f6c63430008120033",
    "linkReferences": {}
  },
  "methodIdentifiers": {
    "approve(address,uint256)": "095ea7b3",
    "balanceOf(address)": "70a08231",
    "borrow(((address,uint256),(bytes,uint256,(address,uint256,uint256,uint256,uint256,(address,uint256)))[])[])": "b1ce7a6a",
    "buy((uint256,address)[])": "980b13c5",
    "claim(uint256[])": "6ba4c138",
    "claimAsBorrower(uint256[])": "3d6fd5be",
    "createTranche(uint256)": "92eab80e",
    "getApproved(uint256)": "081812fc",
    "getLoan(uint256)": "504006ca",
    "getMinOfferCostAndBorrowableAmount(address)": "8d116c7a",
    "getParameters()": "a5ea11da",
    "getRateOfTranche(uint256)": "14aab74f",
    "isApprovedForAll(address,address)": "e985e9c5",
    "name()": "06fdde03",
    "offerDigest((address,uint256,uint256,uint256,uint256,(address,uint256)))": "1fbc8a74",
    "onERC721Received(address,address,uint256,bytes)": "150b7a02",
    "ownerOf(uint256)": "6352211e",
    "position(uint256)": "f7a95a9e",
    "price(uint256)": "26a49e37",
    "repay(uint256[])": "0c72ad20",
    "safeTransferFrom(address,address,uint256)": "42842e0e",
    "safeTransferFrom(address,address,uint256,bytes)": "b88d4fde",
    "setApprovalForAll(address,bool)": "a22cb465",
    "setAuctionDuration(uint256)": "a497e674",
    "setAuctionPriceFactor(uint256)": "e7af8fed",
    "setBorrowAmountPerOfferLowerBound(address,uint256)": "7660e109",
    "setMinOfferCost(address,uint256)": "1a34c700",
    "supportsInterface(bytes4)": "01ffc9a7",
    "symbol()": "95d89b41",
    "totalSupply()": "18160ddd",
    "transferFrom(address,address,uint256)": "23b872dd"
  },
  "id": 97
}