{
  "abi": [
    {
      "inputs": [
        {
          "internalType": "address",
          "name": "admin",
          "type": "address"
        }
      ],
      "name": "CallerIsNotOwner",
      "type": "error"
    },
    {
      "anonymous": false,
      "inputs": [
        {
          "indexed": true,
          "internalType": "uint256",
          "name": "newAuctionDuration",
          "type": "uint256"
        }
      ],
      "name": "NewAuctionDuration",
      "type": "event"
    },
    {
      "anonymous": false,
      "inputs": [
        {
          "indexed": true,
          "internalType": "Ray",
          "name": "newAuctionPriceFactor",
          "type": "uint256"
        }
      ],
      "name": "NewAuctionPriceFactor",
      "type": "event"
    },
    {
      "anonymous": false,
      "inputs": [
        {
          "indexed": true,
          "internalType": "contract IERC20",
          "name": "currency",
          "type": "address"
        },
        {
          "indexed": true,
          "internalType": "uint256",
          "name": "newLowerBound",
          "type": "uint256"
        }
      ],
      "name": "NewBorrowAmountPerOfferLowerBound",
      "type": "event"
    },
    {
      "anonymous": false,
      "inputs": [
        {
          "indexed": true,
          "internalType": "contract IERC20",
          "name": "currency",
          "type": "address"
        },
        {
          "indexed": true,
          "internalType": "uint256",
          "name": "newMinOfferCost",
          "type": "uint256"
        }
      ],
      "name": "NewMininimumOfferCost",
      "type": "event"
    },
    {
      "anonymous": false,
      "inputs": [
        {
          "indexed": true,
          "internalType": "Ray",
          "name": "tranche",
          "type": "uint256"
        },
        {
          "indexed": true,
          "internalType": "uint256",
          "name": "newTrancheId",
          "type": "uint256"
        }
      ],
      "name": "NewTranche",
      "type": "event"
    },
    {
      "inputs": [
        {
          "internalType": "Ray",
          "name": "newTranche",
          "type": "uint256"
        }
      ],
      "name": "createTranche",
      "outputs": [
        {
          "internalType": "uint256",
          "name": "newTrancheId",
          "type": "uint256"
        }
      ],
      "stateMutability": "nonpayable",
      "type": "function"
    },
    {
      "inputs": [
        {
          "internalType": "uint256",
          "name": "newAuctionDuration",
          "type": "uint256"
        }
      ],
      "name": "setAuctionDuration",
      "outputs": [],
      "stateMutability": "nonpayable",
      "type": "function"
    },
    {
      "inputs": [
        {
          "internalType": "Ray",
          "name": "newAuctionPriceFactor",
          "type": "uint256"
        }
      ],
      "name": "setAuctionPriceFactor",
      "outputs": [],
      "stateMutability": "nonpayable",
      "type": "function"
    },
    {
      "inputs": [
        {
          "internalType": "contract IERC20",
          "name": "currency",
          "type": "address"
        },
        {
          "internalType": "uint256",
          "name": "newLowerBound",
          "type": "uint256"
        }
      ],
      "name": "setBorrowAmountPerOfferLowerBound",
      "outputs": [],
      "stateMutability": "nonpayable",
      "type": "function"
    },
    {
      "inputs": [
        {
          "internalType": "contract IERC20",
          "name": "currency",
          "type": "address"
        },
        {
          "internalType": "uint256",
          "name": "newMinOfferCost",
          "type": "uint256"
        }
      ],
      "name": "setMinOfferCost",
      "outputs": [],
      "stateMutability": "nonpayable",
      "type": "function"
    }
  ],
  "bytecode": {
    "object": "0x608060405234801561001057600080fd5b50610776806100206000396000f3fe608060405234801561001057600080fd5b50600436106100575760003560e01c80631a34c7001461005c5780637660e1091461007157806392eab80e14610084578063a497e674146100a9578063e7af8fed146100bc575b600080fd5b61006f61006a36600461066f565b6100cf565b005b61006f61007f36600461066f565b6101d5565b61009761009236600461069b565b6102d6565b60405190815260200160405180910390f35b61006f6100b736600461069b565b61040b565b61006f6100ca36600461069b565b6104f8565b6000306001600160a01b0316638da5cb5b6040518163ffffffff1660e01b8152600401602060405180830381865afa15801561010f573d6000803e3d6000fd5b505050506040513d601f19601f8201168201806040525081019061013391906106b4565b9050336001600160a01b0382161461016e5760405163d4ed9a1760e01b81526001600160a01b03821660048201526024015b60405180910390fd5b6001600160a01b03831660008181527f84e508d57dadc535817af594804944c3bc341cdb6befa5a0747e20285912a7f16020526040808220859055518492917f67c648fad0621d49c4ec46cd8bd0f732a5999eb456200b96b1ad475163d8672f91a3505050565b6000306001600160a01b0316638da5cb5b6040518163ffffffff1660e01b8152600401602060405180830381865afa158015610215573d6000803e3d6000fd5b505050506040513d601f19601f8201168201806040525081019061023991906106b4565b9050336001600160a01b0382161461026f5760405163d4ed9a1760e01b81526001600160a01b0382166004820152602401610165565b6001600160a01b03831660008181527f84e508d57dadc535817af594804944c3bc341cdb6befa5a0747e20285912a7f26020526040808220859055518492917f146e1a257ecd0267c391070e1bc23a703eee64ed866c1ceb73cc8b2508f4a37191a3505050565b600080306001600160a01b0316638da5cb5b6040518163ffffffff1660e01b8152600401602060405180830381865afa158015610317573d6000803e3d6000fd5b505050506040513d601f19601f8201168201806040525081019061033b91906106b4565b9050336001600160a01b038216146103715760405163d4ed9a1760e01b81526001600160a01b0382166004820152602401610165565b7f84e508d57dadc535817af594804944c3bc341cdb6befa5a0747e20285912a7ec80547f84e508d57dadc535817af594804944c3bc341cdb6befa5a0747e20285912a7eb9160006103c1836106ee565b90915550600081815260048301602052604080822087905551919450849186917f6da37ad08550ba024c1448b799ac757c4f29bc9fb729b3f370a4fa2ab798fbd591a35050919050565b6000306001600160a01b0316638da5cb5b6040518163ffffffff1660e01b8152600401602060405180830381865afa15801561044b573d6000803e3d6000fd5b505050506040513d601f19601f8201168201806040525081019061046f91906106b4565b9050336001600160a01b038216146104a55760405163d4ed9a1760e01b81526001600160a01b0382166004820152602401610165565b7f84e508d57dadc535817af594804944c3bc341cdb6befa5a0747e20285912a7ed82905560405182907f99c234461abfab1095b48d0d9527ff204caa62038112f57c795cecb99503676290600090a25050565b6000306001600160a01b0316638da5cb5b6040518163ffffffff1660e01b8152600401602060405180830381865afa158015610538573d6000803e3d6000fd5b505050506040513d601f19601f8201168201806040525081019061055c91906106b4565b9050336001600160a01b038216146105925760405163d4ed9a1760e01b81526001600160a01b0382166004820152602401610165565b6105bd6105b760026105b16b033b2e3c9fd0803ce80000006005610636565b9061064b565b83101590565b6105e35760405162461bcd60e51b81526020600482015260006024820152604401610165565b7f84e508d57dadc535817af594804944c3bc341cdb6befa5a0747e20285912a7ee82905560405182907f1ce4b7127cce448c8a88c8a281145cece8c80a8e53693505547c31fabc92c44590600090a25050565b60006106428284610707565b90505b92915050565b6000610642828461071e565b6001600160a01b038116811461066c57600080fd5b50565b6000806040838503121561068257600080fd5b823561068d81610657565b946020939093013593505050565b6000602082840312156106ad57600080fd5b5035919050565b6000602082840312156106c657600080fd5b81516106d181610657565b9392505050565b634e487b7160e01b600052601160045260246000fd5b600060018201610700576107006106d8565b5060010190565b8082028115828204841417610645576106456106d8565b60008261073b57634e487b7160e01b600052601260045260246000fd5b50049056fea264697066735822122033da619231e686deee2a2a865ee212c85b7ce5db60aff413b04dc04ccd03890464736f6c63430008120033",
    "linkReferences": {}
  },
  "methodIdentifiers": {
    "createTranche(uint256)": "92eab80e",
    "setAuctionDuration(uint256)": "a497e674",
    "setAuctionPriceFactor(uint256)": "e7af8fed",
    "setBorrowAmountPerOfferLowerBound(address,uint256)": "7660e109",
    "setMinOfferCost(address,uint256)": "1a34c700"
  },
  "id": 45
}